:020000040000fa
:080000000002040000000000f2
:020000040000fa
:0400080036040000ba
:020000040000fa
:04000c0036040000b6
:020000040000fa
:0400100036040000b2
:020000040000fa
:0400140036040000ae
:020000040000fa
:0400180036040000aa
:020000040000fa
:04001c0036040000a6
:020000040000fa
:0400200036040000a2
:020000040000fa
:04002400360400009e
:020000040000fa
:04002800360400009a
:020000040000fa
:04002c003604000096
:020000040000fa
:040030003604000092
:020000040000fa
:04003400fa020000cc
:020000040000fa
:04003800360400008a
:020000040000fa
:04003c003604000086
:020000040000fa
:040040003604000082
:020000040000fa
:04004400360400007e
:020000040000fa
:04004800460300006b
:020000040000fa
:04004c003604000076
:020000040000fa
:040050003604000072
:020000040000fa
:04005400ee030000b7
:020000040000fa
:04005800b8030000e9
:020000040000fa
:04005c00920300000b
:020000040000fa
:040060003604000062
:020000040000fa
:04006400360400005e
:020000040000fa
:04006800360400005a
:020000040000fa
:04006c003604000056
:020000040000fa
:040070003604000052
:020000040000fa
:04007400360400004e
:020000040000fa
:04007800360400004a
:020000040000fa
:04007c003604000046
:020000040000fa
:040080003604000042
:020000040000fa
:04008400360400003e
:020000040000fa
:04008800360400003a
:020000040000fa
:04008c003604000036
:020000040000fa
:040090003604000032
:020000040000fa
:040094005003000015
:020000040000fa
:04009800360400002a
:020000040000fa
:04009c003604000026
:020000040000fa
:0400a0003604000022
:020000040000fa
:0400a400360400001e
:020000040000fa
:0400a800360400001a
:020000040000fa
:0400ac003604000016
:020000040000fa
:0400b0003604000012
:020000040000fa
:0400b400360400000e
:020000040000fa
:0400b800360400000a
:020000040000fa
:0400bc003604000006
:020000040000fa
:0400c0003604000002
:020000040000fa
:0400c40036040000fe
:020000040000fa
:0400c80036040000fa
:020000040000fa
:0400cc0036040000f6
:020000040000fa
:0400d00036040000f2
:020000040000fa
:0400d40036040000ee
:020000040000fa
:0400d80036040000ea
:020000040000fa
:0400dc0036040000e6
:020000040000fa
:0400e00036040000e2
:020000040000fa
:0400e40036040000de
:020000040000fa
:0400e80036040000da
:020000040000fa
:0400ec0036040000d6
:020000040000fa
:0400f00036040000d2
:020000040000fa
:0400f40036040000ce
:020000040000fa
:0400f80036040000ca
:020000040000fa
:0400fc0036040000c6
:020000040000fa
:0401000036040000c1
:020000040000fa
:0401040036040000bd
:020000040000fa
:0401080036040000b9
:020000040000fa
:04010c0036040000b5
:020000040000fa
:0401100036040000b1
:020000040000fa
:0401140036040000ad
:020000040000fa
:0401180036040000a9
:020000040000fa
:04011c0036040000a5
:020000040000fa
:0401200036040000a1
:020000040000fa
:04012400360400009d
:020000040000fa
:040128003604000099
:020000040000fa
:04012c003604000095
:020000040000fa
:040130003604000091
:020000040000fa
:04013400360400008d
:020000040000fa
:040138003604000089
:020000040000fa
:04013c003604000085
:020000040000fa
:040140003604000081
:020000040000fa
:04014400360400007d
:020000040000fa
:040148003604000079
:020000040000fa
:04014c003604000075
:020000040000fa
:040150003604000071
:020000040000fa
:04015400360400006d
:020000040000fa
:040158003604000069
:020000040000fa
:04015c003604000065
:020000040000fa
:040160003604000061
:020000040000fa
:04016400360400005d
:020000040000fa
:040168003604000059
:020000040000fa
:04016c003604000055
:020000040000fa
:040170003604000051
:020000040000fa
:04017400360400004d
:020000040000fa
:040178003604000049
:020000040000fa
:04017c003604000045
:020000040000fa
:040180003604000041
:020000040000fa
:04018400360400003d
:020000040000fa
:040188003604000039
:020000040000fa
:04018c003604000035
:020000040000fa
:040190003604000031
:020000040000fa
:04019400360400002d
:020000040000fa
:040198003604000029
:020000040000fa
:04019c003604000025
:020000040000fa
:0401a0003604000021
:020000040000fa
:0401a400360400001d
:020000040000fa
:0401a8003604000019
:020000040000fa
:0401ac003604000015
:020000040000fa
:0401b0003604000011
:020000040000fa
:0401b400360400000d
:020000040000fa
:0401b8003604000009
:020000040000fa
:0401bc003604000005
:020000040000fa
:0401c0003604000001
:020000040000fa
:0401c40036040000fd
:020000040000fa
:0401c80036040000f9
:020000040000fa
:0401cc0036040000f5
:020000040000fa
:0401d00036040000f1
:020000040000fa
:0401d40036040000ed
:020000040000fa
:0401d80036040000e9
:020000040000fa
:0401dc0036040000e5
:020000040000fa
:0401e00036040000e1
:020000040000fa
:0401e40036040000dd
:020000040000fa
:0401e80036040000d9
:020000040000fa
:0401ec0036040000d5
:020000040000fa
:0401f00036040000d1
:020000040000fa
:0401f40036040000cd
:020000040000fa
:0401f80036040000c9
:020000040000fa
:0401fc0036040000c5
:020000040000fa
:0402000036040000c0
:020000040000fa
:0402040036040000bc
:020000040000fa
:0402080036040000b8
:020000040000fa
:04020c0036040000b4
:020000040000fa
:0402100036040000b0
:020000040000fa
:0402140036040000ac
:020000040000fa
:0402180036040000a8
:020000040000fa
:04021c0036040000a4
:020000040000fa
:0402200036040000a0
:020000040000fa
:04022400360400009c
:020000040000fa
:040228003604000098
:020000040000fa
:04022c003604000094
:020000040000fa
:040230003604000090
:020000040000fa
:04023400360400008c
:020000040000fa
:040238003604000088
:020000040000fa
:04023c003604000084
:020000040000fa
:040240003604000080
:020000040000fa
:04024400360400007c
:020000040000fa
:040248003604000078
:020000040000fa
:04024c003604000074
:020000040000fa
:040250003604000070
:020000040000fa
:04025400360400006c
:020000040000fa
:040258003604000068
:020000040000fa
:04025c003604000064
:020000040000fa
:040260003604000060
:020000040000fa
:04026400360400005c
:020000040000fa
:10040000ef5c21000eff27000e01880000000000b5
:10041000000020000000e000020032000001200087
:100420002002880014000700120107000000e0000d
:1004300003003a000060260001002000020037009f
:100440000000200001002000810f70000100320038
:100450000f000700000020000000e0000200320052
:100460000000020000000000fc5d0200000000002f
:100470000040da000000fe00200020000000e00044
:1004800002003200100020009001880000000600e9
:10049000a1028800800478000000eb001f003700f4
:1004a000e284440054a0b4009905ba00e2844400f8
:1004b00054a0b4009906ba00e284440054a0b400e9
:1004c0000006eb00476fde00fd07b200ae018800ba
:1004d000636ce10003003a000ad801000000eb0061
:1004e0000e003700606ce10008003a00004deb00a0
:1004f0000a05e800020039003420ec000af0a000f0
:100500008b05e900f9ff3e00040037006168e10057
:10051000010032000086eb000b00070019c7ba008b
:100520000e04e0001905ba0003003a000a00e000da
:10053000dbff3a0000000600fe07b200ae028800b2
:100540008a047800f5ff37000cd0a300e20f4d00bd
:100550001c003b0089027800354dba000a05e8000e
:10056000020039003420ec000af0a0008b05e900fd
:100570000f003200254dba000a05e80002003900dc
:100580003420ec000af0a0008b05e90008003200de
:100590000c00e0000600320015cdba000a05e800a4
:1005a000020039003420ec000af0a0008b05e900bd
:1005b0008984e80054a0b4000b00e000e2ff3a0098
:1005c000000006009902ba00055d78008b05e9007d
:1005d000f7ff3200c82ade00055d78008b05e900d0
:1005e000f3ff32000c00e000f1ff320019ddba0029
:1005f000eeff37003600f800809fbe00829fbe00ed
:10060000849fbe00869fbe000000fa000068a9001b
:10061000c8320700fc270700192a0700308880002d
:10062000418880000200200003f82300a603070091
:1006300080017800010178000300780082007800d2
:100640000000be003088880041888800f084800067
:100650000000e800f0848800f0848000f80f50006b
:10066000020036009e30ef00b02b070000000000b3
:100670000080fa004f03be004f02be004f01be00d3
:100680004f00be003600f900004006000000fa00ee
:100690000108a900000000000080fa0000400600e8
:1006a0003600f800809fbe00829fbe00849fbe007f
:1006b000869fbe000000fa000368a900b284800093
:1006c000c3848000100020000100200002004000d0
:1006d00083804800b0848800c1848800d284800070
:1006e000e384800010002000010020000200400090
:1006f00083804800d0848800e1848800fb230700c1
:1007000086190700000000000080fa004f03be00b9
:100710004f02be004f01be004f00be003600f90080
:1007200000400600801f78000000fa0001a8a90020
:100730000018800010ae88001018800020ae8800dd
:100740002018800030ae88003018800040ae88004d
:100750004018800050ae880010c0b300b5f0b7005c
:10076000000000000080fa004f0078000040060002
:100770003600f800809fbe00829fbe00849fbe00ae
:10078000869fbe000000fa000188a9001185800044
:1007900000858000808f500007003200101180001b
:1007a0004900de00614060000004e00003003a0000
:1007b000f931070001003700a470ef0000000000cd
:1007c0000080fa004f03be004f02be004f01be0082
:1007d0004f00be003600f900004006003600f80069
:1007e000809fbe00829fbe00849fbe00869fbe0089
:1007f0000000fa000168a900101180004200de002c
:1008000061406000e14f500001003a002242a9001f
:10081000101180000000d10061406000e14f5000e5
:1008200005003a002222a9000300370030118000a1
:1008300000407800ea320700101180000040780084
:1008400061406000e14f5000f8ff320000000000fe
:100850000080fa004f03be004f02be004f01be00f1
:100860004f00be003600f900004006000040da00ec
:100870000000fe00000005008f1fd1005e0607008b
:100880008f87e9000000e00000000600809feb0079
:10089000590607008f87e9000000e000000006000d
:1008a000801feb00540607008f87e9000000e0007e
:1008b0000000060081037800990007000001be00d7
:1008c0006000b8000478a30013003a006220e10041
:1008d00015003e000d0039008301d1000281d300d4
:1008e0008180d3008301d1000281d3008180d300b5
:1008f0008301d1000281d3008180d3000538b0008c
:10090000c42add00f300b2008381720007f0a70063
:1009100003f0a0000000060083ff27000200200073
:100920006110b900f9ff370003ff2700f7ff370018
:1009300014002000ab063700f4ff2f00a906370093
:100940001400fa00889fbe008a9fbe008c9fbe00e4
:100950000004be000205be00680047000a90be0009
:100960000890be005f0607000070a7000bf0a10012
:10097000304320009e02900080825200b0fe2f0083
:100980000028e10011003d00b0fc2f000028e1002c
:10099000150034001e0990008e0890007e00900023
:1009a0000501b0000201d1008180d3000080d30096
:1009b0008502e800fbff3a000b00e00084063b00e4
:1009c00060001000e080180081063700f0ff2f0063
:1009d000f1ff27000b00e0007d063b00010028002e
:1009e000000020007a0637006000b8007806370063
:1009f0000001be004a0007000470a70003f0a10038
:100a00006509b100160032000d0035006828e100cc
:100a100006003500f0ff2f00f1ff27000300e00083
:100a200013003b000100280000000500000040000a
:100a3000818048008502e900fcff3a000800370089
:100a4000f88f420002003c008000eb00000005002f
:100a50008100d1000080d3008502e800fcff3a004d
:100a60000300e00002003b0060001000e08018007e
:100a7000000006001400fa00889fbe008a9fbe0096
:100a80008c9fbe000004be000205be006800470047
:100a90000a90be000890be00120607000070a70072
:100aa0000bf0a1000bf8a30016003a009e02900084
:100ab0003043200080825200b0fe2f000028e10069
:100ac0000d003c00b0fc2f000028e1000d003400b8
:100ad0001e0990008e0890007e0090000501b00075
:100ae0000201d1008180d3000080d3008502e8009c
:100af000fbff3a0036063700010028000000200006
:100b0000330637006000b800310637004f89de0039
:100b1000820178004e0637006011b8008706370062
:100b2000c70ade00f107b200f50fb200080032007c
:100b3000e1cf4200020032000170a0002400050055
:100b4000810f700001003200040805004400050018
:100b5000810f700002003a00140005008502e900d0
:100b60000000400081c04800fcff3b000170a00075
:100b7000240005001400fa00889fbe008a9fbe0072
:100b80008c9fbe000005be000206be006800470044
:100b90000c90be000a90be00d20507006400e10080
:100ba0001a00320016003e006100e1001a00320017
:100bb0006e049000fe0490000e0b90009e0b9000bf
:100bc0006011b8009e0590000b38b100d5012000df
:100bd00082817100610164008703d1000683d30024
:100be0008984d3000884d3008502e900f8ff3a0025
:100bf000810607000df0a70001f0a000f405370002
:100c000001fc270000002000faff370001f8270050
:100c100000002000f7ff37006000b800f5ff370044
:100c20008c9fbe008a9fbe00889fbe00ca0107003d
:100c30000bf0a200040037008c9fbe008a9fbe000c
:100c4000889fbe00c40107000c48e1000b003a0079
:100c50000c40e100020032008b0107004000370029
:100c60008b066d003e0032000af0a100f301200067
:100c7000f2ff2f006110b900390037000c40e1008d
:100c8000370032000940e100010036007e01070014
:100c90008a856d00cf5dde000b0575000006eb0058
:100ca0008804fd0089045400010032007d01070022
:100cb0000a04e00011003a000800e00028003200b9
:100cc00004004000858048000601490087814900f2
:100cd0000358a300180032008301d1000281d30021
:100ce0008180d3000080d3000c86d300010039003e
:100cf000610676000804e800180037000400500080
:100d0000858058000601590087815900060031008e
:100d10000af0a2000c06ea0060001800e08018004b
:100d200060011900e081190003003a000004eb00a3
:100d30000005eb000a0037000348a30007003a0053
:100d40000c0646000000480081804800020149006e
:100d5000838149000804e900f7ff3700af0137003d
:100d6000c90137008c9fbe008a9fbe00889fbe00cd
:100d7000790107000b056d000940e1000a003a0007
:100d80000800e000020032000c40e10006003a00da
:100d90000af0a1000c047800f3012000f2ff2f00fc
:100da0006110b9009d0037000c40e1009b0032004b
:100db0000800e000990032000c48e10002003a000f
:100dc0000004eb00030037000900e00004003a00d3
:100dd0000c0478006000b8006011b8008f00370084
:100de0000348a30006003a0000004000818048004c
:100df00002014900838149000804e900f8ff370037
:100e00000748a30006003a000402420085824a0017
:100e100006034b0087834b008904e900f8ff370085
:100e2000fd3f20008d845400090454008a1f78007f
:100e3000881f78000004780081047800020578009b
:100e4000830578006000b8006011b8000d04200030
:100e5000050037000804440089844c000a054d0051
:100e60008b854d00080031000404540085845c002b
:100e700006055d0087855d008381d2008d06d30065
:100e8000f4ff3b00070037000404440085844c0055
:100e900006054d0087854d008381d2008d06d30065
:100ea000ecff3b000804440089844c000a054d0017
:100eb0008b854d00080031000404540085845c00db
:100ec00006055d0087855d000281d2008d06d30096
:100ed000f4ff3b00070037000404440085844c0005
:100ee00006054d0087854d000281d2008d06d30096
:100ef000ecff3b000804440089844c000a054d00c7
:100f00008b854d00080031000404540085845c008a
:100f100006055d0087855d008180d2008d06d300c7
:100f2000f4ff3b00070037000404440085844c00b4
:100f300006054d0087854d008180d2008d06d300c7
:100f4000ecff3b000804440089844c000a054d0076
:100f50008b854d00080031000404540085845c003a
:100f600006055d0087855d000080d2008d06d300f8
:100f7000f4ff3b00070037000404440085844c0064
:100f800006054d0087854d000080d2008d06d300f8
:100f9000ecff3b000b00e00004003d0004044400b3
:100fa00085844c0006054d0087854d000006eb004a
:100fb0008301d1000281d3008180d3000080d3005f
:100fc0000c86d3008301d1000281d3008180d3003d
:100fd0000080d3000c86d300890474008b05750053
:100fe0008b84740001003200610676004f047800a3
:100ff0004f0578000348a30007003a000c0646009e
:1010000000004800818048000201490083814900b6
:101010000804e900f7ff3700000137001a01370024
:101020008c9fbe008a9fbe00889fbe00ca0007003a
:101030000b056d008a0578000c40e10008003a00bd
:101040000900e00082003a000af0a1000c047800d8
:10105000f3012000f2ff2f006110b9007c0037007f
:101060000c48e10004003a00870007000900e00096
:1010700077003a00f4ff37000800e0007400320007
:101080000900e00002003a007f000700700037000e
:10109000ed3f20008d845400090444008a1f78002d
:1010a000881f7800871f7800861f7800851f7800ca
:1010b000841f7800cb19dd00c515de008b8571001b
:1010c0004b11dd00450dde000a057100cb08dd0087
:1010d000c504de00898470004b04dd000440b800c4
:1010e0000546b8008c80400060814e00044eb80078
:1010f0008c8040000d0149008001eb000318ad0019
:101100000456b8000c0141008d8149000002eb003b
:101110000420ad000646b8000c0141008d81490055
:1011200060024a00054eb8000c0141008d81490063
:1011300060024a000556b8008c8141000d024a0049
:101140008002eb000528ad000746b8008c81410005
:101150000d024a00e0824a00064eb8008c81410030
:101160000d024a00e0824a004f0678000c5eb8008b
:101170008c8141000d024a00e0824a000656b80008
:101180000c0242008d824a000003eb000630ad00e5
:10119000074eb8000c0242008d824a0060034b00eb
:1011a0004f0678000c5eb8000c0242008d824a00a7
:1011b00060034b000756b8008c8242000d034b00c1
:1011c0008003eb000738ad004f0678000c5eb800d6
:1011d0008c8242000d034b00e0834b004f067800e9
:1011e0000c5eb8000c0343008d834b004f04780065
:1011f0004f0578000748a3000a003a0000004000ad
:1012000081804800020149008381490004024a00ac
:1012100085824a0006034b0087834b000804e900df
:10122000f4ff370003067800808070008280700031
:10123000010032006106760087017800060178001f
:101240008500780004007800880478007800370072
:101250008d0037008c06460002003a000000a60010
:101260000000060060004800e0804800600149007e
:10127000e08149000350a600000006008301d10070
:101280000804e800000006000002fd008102fd00e5
:101290000203fd008303fd008804fd008a05fd00b4
:1012a000000006007048e1001a0039007d032000ac
:1012b0000d48e1000a0039008105700083067100c5
:1012c0008c8575008d8575000006eb001cd8e70045
:1012d000610676006000b8006011b80000000600ea
:1012e0007048e1000b0039008c057800000678009a
:1012f0000100780082007800030178008001eb0093
:1013000013d8e70061067600f0845400f4ff3a0039
:10131000000006006160e1000c48ad00f08514009b
:101320008b06dd000966de000d0676008b0edd0003
:101330000900de000d0070008b16dd008908de005c
:101340008d8070008b1edd000911de000d01710023
:101350008919de00000006000d002800fc7f200037
:101360000d856100441cde00ef8161000c04640007
:10137000010032000340a0008d856300c43cde0004
:10138000ef8363008c846400010032000740a000fa
:101390000c40e10006003a00ef866100828676008c
:1013a00081867600808676000100320018003700c2
:1013b0000c48e10007003a00ef866300868676005d
:1013c000858676008486760002003200aeff070034
:1013d0000f0037000348a30005003a0081067000a3
:1013e0008286760083867600010032000804e800d9
:1013f0000748a30005003a0085067200868676003d
:1014000087867600010032008904e80000000600ab
:10141000cf047800cf0578001b0037000002780069
:101420008102780002037800830378008804780042
:101430000cf0a70087ff0700fd7f20000d40e100b2
:10144000040035000d0478006000b8006011b80099
:101450000d0037000800e0000b003c00040078009d
:10146000850078000601780087017800e184140087
:101470008cff07000cf0a70076ff07000004eb00cc
:101480000340a7000804e8004444dd006fc5610084
:10149000880175004f04be004f05be004f06be0018
:1014a0000000060007f82700078361000638e10006
:1014b00004003a00f707200087836100870371006a
:1014c00001003a0003f0a200889fbe008a9fbe0080
:1014d0008c9fbe00470ade000480a100c71ade0010
:1014e0000580a1000700280007856000878561004e
:1014f000f70f20000720e1009e0032000728e100de
:101500009c003200010678000400e000b4003200c4
:10151000f7072000878060000170a0000500e00050
:10152000c0003200f7072000878161000370a0002f
:10153000050652000f003a000b50e1000b0032008c
:101540000308e10002003a000200e1007e003200e0
:101550000204500083845800040031000001fd00a3
:101560008101fd008402fd008a05fd006044b80091
:10157000210037000520e10005003d000001fd00cd
:101580008101fd008402fd008a05fd000506520070
:101590007a60e100050035000170a1004722dd00fe
:1015a000848070008a807000630037006044b80057
:1015b000ef02660007ff2f00070666000500e00047
:1015c00006003400f08312008714dd000511de00f0
:1015d000071bdd00060171008519de007060e10067
:1015e00005003500090478008204780003017800c2
:1015f0008001eb00700656000b50e10003003a003a
:10160000020040008380480004003700600414009a
:10161000e0841c0002005800838058000188a30069
:10162000060032008100d1000080d3008984d300fd
:101630000884d3000402e800270037000178a300e3
:1016400025003a000100e000030032008186cf004f
:10165000698656000a0037008c0020000000e00078
:1016600004003a0009007800880478000004eb00c8
:10167000700252008086cf000d0646000c06e9007d
:101680007060e100060035008000780009007800f5
:10169000880478000004eb007006560070025200c7
:1016a0000c00e0000c0034008c08dd00f003160094
:1016b0000703de00868070000c00dd00074bde00b3
:1016c000060070008c4cdd000743de008684740049
:1016d0000c44dd000c0252006120e10020003500c6
:1016e000610160000700280087816400f7ff270080
:1016f00087836400070374000300e00006003200e3
:1017000082037300040032000000e800e08048001b
:101710000188a3000e003a00f70f20000720e10027
:101720004a003d000170a1004722dd0081007200e7
:101730008a8070000000be004f06be004f05be004c
:101740004f04be00000006006000b800faff37003a
:101750008100d1000080d3000402e800eeff3700d2
:101760000401780089017400a10107008a807000db
:10177000f1ff3700f7010700070278000001fd00c4
:101780008101fd00f30107008702780085037200e4
:101790000778a300040032000001fd008101fd0074
:1017a00006020700e4ff3700850362000768a30014
:1017b000080032000b50e10003003200f0ff2f0060
:1017c000f1ff2700dcff37000001fd008101fd0073
:1017d000d9ff37000468a300d7ff3200faff3700b3
:1017e000f8ff2700888360000b003a000000e0004b
:1017f00009003a0083036400828373000200320010
:101800000200be00ccff37000b50e100ceff3a00d3
:101810000200be00c8ff37001400200081006400f1
:101820003eff3700f8ff27008883610004003a007c
:101830000200e00002003a008c007800beff370092
:10184000150020008301640039ff370001f82700ec
:101850000000200081007500b7ff3700889fbe00a0
:101860008a9fbe008c9fbe001b0020000202be00ab
:101870000586680006002800060666004709de00a7
:10188000f20fb200820032000243e8008000320012
:10189000c729de00f30fb2007d0032000343e800e9
:1018a0007b003200f107b2000170a000f507b20022
:1018b0000570a000c708dd004903de0086807000c7
:1018c0004700dd00c72add004923de008682720062
:1018d0004722dd00030551000403500085835800b2
:1018e0000300310000004000818048000a05e90043
:1018f0008c1f78008a9fbe0004005000858058002d
:101900000402420085824a000000400081804800b5
:101910000005eb000004be006033b8000406be0002
:101920000d48e10056003100110009004dccd800ef
:101930000c01b8000d02b8008481410060824a00a9
:101940008283530003045c0084845c0060055d00b6
:101950000a00e00025003a00800578000d40e10013
:101960004900310088007800070078001100090064
:101970004d88d8000c01b8000d02b80084814100e8
:1019800060824a006003110083835b0004045c00f2
:10199000e0845c000900e00021003a004f01be0035
:1019a0000300e0002b003200e30160000706730033
:1019b0008c81710001003200640070004200de0082
:1019c0004e5edd000c007000c258de0001e0a00099
:1019d00083010700cf017800818071004f06be00af
:1019e0004f05be004f04be00000006008c8343007c
:1019f0000d044c00e0844c0060054d000000e9003f
:101a00000a00e000d4ff32008c8343000d044c0038
:101a1000e0844c0060054d000000e900ceff370077
:101a20000c0343008d834b0060044c00e0844c00a9
:101a30000000e9000900e000d8ff32000c03430079
:101a40008d834b0060044c00e0844c000000e900f2
:101a5000d2ff37004200de004e5edd000c00700059
:101a6000c258de0001e0a000cf0178000300e000d2
:101a7000daff320060001000e0801800d7ff370066
:101a8000f0ff2f00aaff3700f0ff2f00b9ff37004b
:101a90000404be002f010700870678000004fd0043
:101aa0008104fd002b010700078366000678a30070
:101ab000030032000960a7000800be002c003700b8
:101ac0000d78a300020032000800be002800370095
:101ad0000778a30026003a0001f0a10009f0a10058
:101ae0000668a30003003200f1ff2700f0ff2f007b
:101af000baff37000d68a300030032000800be00e3
:101b00008c807000b5ff37000768a30007003a001b
:101b10000648a30003003200f1ff2700f0ff2f006a
:101b2000aeff37000d48a300030032006000b8008c
:101b30008c807000a9ff37000748a3000400320022
:101b400001f82700000020008c807000a3ff370000
:101b5000760107000004fd008104fd000205780005
:101b6000720107000802be008a01780059ff3700a1
:101b70000160a00012022000b285880097ff3700a4
:101b80000100e000120032000500e0001000320009
:101b9000889fbe008a9fbe008c9fbe000006eb009f
:101ba00001f8a3000300320060001000e08018007c
:101bb0000cf0a00005f8a300030032006002120040
:101bc000e0821a000cf0a2008005eb0041ff370014
:101bd0006000b800020005000383680007002800c9
:101be00007036300470ade000480a100c71ade0075
:101bf0000580a100f70f20000720e100420032001d
:101c00000728e10040003200889fbe008a9fbe0086
:101c10008c1f7800f107b200f307b2000400e00067
:101c2000640032000170a0000500e000680032008e
:101c30000370a00085054200eb07b1000204b80064
:101c40000302b8008484440060854a00020ab80098
:101c5000848444000a854a00030ab800040545004c
:101c6000040033000804d0008984d2000a85d20021
:101c70008b05e9006158e1003d00350002102000ad
:101c8000090161000308200089816100f707200035
:101c90008783640008867300c84cde00c853dd00eb
:101ca000878474004855de000300e000060032001f
:101cb00082037600040032008904e80060054d00cc
:101cc0000a88a3000c003a00f70f20000758e10033
:101cd00044003d000a70a100c75ddd000a85750063
:101ce0008a007300090078004f0678004f05be0097
:101cf0004f04be00000006000a05d1008984d3000d
:101d00008b05e800f0ff3700881f78000604780094
:101d100090000700070278000001fd008101fd002e
:101d20008c00070087027800850372000778a30003
:101d3000050032000001fd008101fd009f00070049
:101d40004f04780000000600850372000748a300d6
:101d500003003200f0ff2f00f1ff2700f8ff3700eb
:101d60000000200001f8270088807000f4ff370091
:101d7000880178004848dd00808171004848de0015
:101d8000c850dd0001007000c850de000604780075
:101d90000b0178001600070088807000d2ff370022
:101da0000500e00005003200170020003a0007009f
:101db0009dff370081037000f9ff3a00860078002c
:101dc0004f0678004f05be004f04be00000005001e
:101dd00083037100f9ff3200270020002e00070066
:101de00094ff370001f8270086807000f4ff370069
:101df0000100e00026003200610111007810e100ce
:101e000023003c006022b8007010e100040035009f
:101e100080027800010078008000eb007001510022
:101e20000200e0000900340070031100062add0002
:101e3000822ade008603dd00878272000200de0057
:101e4000860bdd00070070008208de0084817100cf
:101e5000f4ff2700048262008481710004002800de
:101e6000848262006102600005f0a60000000600a6
:101e700004827100070032000000e800e0804800a2
:101e8000000006000002be006000b800efff37004f
:101e90006000b80000000600889fbe000004eb0050
:101ea0006138e10016003a000100e00008003a0045
:101eb000c800de004800dd00880020000100e000ce
:101ec00003003a00c800de004800dd00680444005a
:101ed0008184cf00e9845400060034008908dd00c5
:101ee000f08314008703de00878070000900dd00a6
:101ef00009044400610214004f04be000000060003
:101f00000300e00008003a00c811de004811dd00bf
:101f1000880020000300e00003003a00c811de0042
:101f20004811dd00680444008384cf00e984540034
:101f3000060034008919dd00f08314008713de00e9
:101f4000878171000911dd0009044400e1021400d9
:101f5000e9ff37002700200001f0a700170020004c
:101f6000470bde00f60fb200040032000643e80023
:101f70000a0032004702b3000000060001037800a7
:101f8000f607b2000603700002003a000703b30030
:101f9000000006008702b30000000600010378007d
:101fa000f607b20006037000020032000770a000be
:101fb000000006000760a000000006000478a300ef
:101fc000040032000578a300030032000168a3007a
:101fd00001003a000200be000160a00000000600ff
:101fe00081017000270032008002eb0001f8a3009d
:101ff0000300320060001000e0801800150020008f
:10200000f40720000202420020003400f703200001
:10201000870360000604200000036300020820001c
:10202000000161004700de00c909dd000080710089
:10203000c708de000600e0000800320087037100d8
:10204000060032001000b0000180b0000188a3003b
:1020500002003200c108de000402e800f107b2000d
:10206000f30f20000320e10003003d004722dd00c4
:10207000810072002900370001f827000000eb0002
:10208000260037006000b800000006006802120059
:102090007f20e100020034006000b8001f0037001c
:1020a0006011b8007020e100040035008001780064
:1020b000010078008000eb00700252000400e00094
:1020c00009003400f00312000719dd008419de0056
:1020d0000703dd00868171000400de00070bdd00d0
:1020e000060070008408de00f7ff2700838363008a
:1020f0008703710006002800030363000700320015
:102100000700e00003003a006101600002817300f3
:10211000020032001000b0000180b0000500a600ef
:102120000000060001f0a000000006004f0ade00db
:102130004709de00f107b200f20fb2000b003200d7
:10214000f207b1000170a000c708dd00c901de0080
:10215000838070004700dd000400a6000000060038
:1021600060001000e080180000000600810f700081
:1021700001003a00000006008182cf000500e00067
:1021800010003e008082cf00ee8242007028e10005
:102190000400390007003e00800078000000eb00da
:1021a0000e003700708312008600de000500dd009f
:1021b0000a003700708352008600dd000000eb004b
:1021c00006003700e28252008508dd0070831200ad
:1021d0000603de00868070000500dd007507b00094
:1021e0000501ea000400a6000000060060001000df
:1021f000e080180000000600889fbe008a9fbe0095
:102200008c9fbe000404be000605be00809fbe0079
:10221000829fbe0021000700040678000800be006f
:102220000a01be001d000700840678004f03be00af
:102230004f02be008d4f76007fb097001300330031
:10224000f0ff2f008b8f6b0006003b000d06660031
:102250000c00a7000a00370007f0a60010002000bd
:102260000a003700880f5200898f5a008a0f5b00de
:102270008b8f5b00030039001000200001003e003e
:102280000000200007f0a7000000ea004f06be0093
:102290004f05be004f04be000000060005ff2700ea
:1022a00005826100070032000428e10001003200cd
:1022b000240005000600070001003a004400050064
:1022c0000408050002000700f9ff3a0014000500a9
:1022d0006f826100810270008502710085027200c8
:1022e000000006005002be00e40050005003be0093
:1022f0004439de00f700b200f37f200003016100e3
:10230000090032000218e10016003a00850172004f
:1023100083017300838173000008200015003a00d8
:102320004000200013003700850172008301730014
:102330008381730005003a0004a8be0006a8be0011
:10234000100020000b0037000201e90004024200e7
:1023500085824a0006034b0087834b000748a30091
:10236000f9ff32000740a00004a8be0006a8be0086
:1023700020002000800098009200980000000600d5
:10238000680447000294be000094be00fc044700ad
:102390008694be008494be0009007800d1ff070037
:1023a00008007800cfff070099007800814f700087
:1023b0000b003b000800be00e90007004f00b10021
:1023c00003003700f3ff2700f2ff2f006110b90070
:1023d0004f06be004f05be004f04be000080fa004d
:1023e00000000600889fbe008a9fbe00841f780000
:1023f000a70007004f00780011003300f0ff2f0006
:10240000838f6c0006003b00040565000a00a700ee
:102410000800370009f0a60010002000080037006f
:10242000820f5400838f5c000300390010002000ed
:1024300001003e000000200009f0a7000000ea00b3
:102440004f05be004f04be000000e0000000060083
:10245000881f7800030478000300e00007003d00b7
:1024600060001000e080180060011900e081190090
:1024700002003b0001f02d000300370004000700bc
:1024800008f0a70003f0a0004f0478000000060049
:10249000889fbe00008270000402710004827100f7
:1024a0002400320036432000c50020008383cf0083
:1024b0000a0039000541b1008283cf0007003900ce
:1024c0000541b1008183cf00040039000541b1000e
:1024d0008083cf00010039000541b10085c353005e
:1024e0006022b800120032000a003b0084827200b1
:1024f000610260008301d1000281d3008180d3009a
:102500000080d3000603e8008743e800f7ff3a00a5
:1025100007003700000040008180480002014900a8
:10252000838149000603e9008743e900f9ff3a0087
:102530005f0007004f04be0000000600889fbe0039
:102540008a9fbe0000827000040271000482710044
:10255000260032000004be000200be006011b80078
:102560006b092000950220000182cf000a0039008b
:102570000541b1000082cf00070039000541b100dc
:102580000982cf00040039000541b1000882cf0064
:10259000010039000541b10005425200120032002d
:1025a0000a003b0082817100610164008100d1005a
:1025b0000080d3008984d3000884d3008b05e80011
:1025c0000442e800f7ff3a0007003700080444001f
:1025d00089844c0000004800818048008b05e90098
:1025e0000442e900f9ff3a00030007004f05be006e
:1025f0004f04be00000006008100200061805500ed
:102600000b003d000b00200061fe2f000100e100e7
:102610001d00340082817100610164008904d100d1
:102620000884d3000000e800faff3a00710020009f
:1026300061006400030070000200600009003200c5
:1026400061044400e0844c000988a50005003200c4
:102650008b05e8006808e10002003a008904d10017
:102660000884d300f20f20000258e10005003d006d
:10267000c75ddd00f907b2008980750008007800a9
:10268000000006000bf827008b0078000000050012
:102690000004be0022f907000003be000405be00ce
:1026a0000200be001ef90700844f750000000600fe
:1026b0001800200057002000080453000d003d00c2
:1026c0000600200097fc2f000740e1001e003400a8
:1026d00084827200610260008301d1000281d30014
:1026e0008180d3000080d3000804e800f8ff3a009e
:1026f00047002000610460000504740004046400c5
:102700000d00320061004000e08048006001490097
:10271000e081490003b8a500070032000603e80085
:102720006538e10004003a008301d1000281d30042
:102730008180d3000080d300f87f20000830e100c2
:1027400003003500080378006000b8006011b8008d
:102750004433dd00f300b200830173000000060083
:10276000e48240001078a3000700320064024000b9
:102770001178a3003400be001401be000500320031
:102780000330a7000000060035007800b50078008f
:102790001501be000330a000000006002000fa0072
:1027a000889fbe008a9fbe008c9fbe00e4b79f003a
:1027b000f5b79f0086bf9f0097bf9f00fbff2700d4
:1027c0008b856300faff2f000a0462008a8462008e
:1027d0000a0563006022b8000600200007ff2700fa
:1027e0000440e10005c8e10006d0e10007d8e1009f
:1027f0000b003e00fbff27008b856100faff2f00d6
:102800000a0460008a8460000a0561000440e10057
:1028100005c8e10006d0e10007d8e1000a00360053
:102820006fb29700ffb297000fbb97009fbb970056
:1028300001f907000004be000205be000800be004a
:102840000a01be001e0037006fb29700ffb297006a
:102850000fbb97009fbb97000602be006033b80015
:10286000e4af9f00f5af9f0086b79f0097b79f002a
:102870000202be006033b800a4af9f00b5af9f0056
:10288000c6af9f00d7af9f000800200009012c00b1
:102890006fad9700ffad97000804450089844d0097
:1028a0006fb69700ffb697000c0474008d84740017
:1028b000e00f5400e08f5c0006003a00170f07009d
:1028c0004f06be004f05be004f04be000080fa0058
:1028d000000006006faa9700ffaa97004e2cde00aa
:1028e00009002000620564008005eb002fab970013
:1028f000bfab97004f3cde000900200008047500c4
:1029000089847500afad9700abb79f003fae9700cd
:102910000cf0a100bcb79f002fb29700bfb2970088
:102920000005720081857200e00f5500e08f5d00a8
:1029300009003a00e20f5400e08f5c00ae00320064
:10294000e20f5400e08f5c00ddff3900e30f54001c
:10295000e08f5c0076003200efab9700a7af9f00de
:102960007fad97000af0a100baaf9f002faa970091
:10297000bfaa97006fb39700ffb3970006067200d7
:1029800087867200e00f5600e08f5e000a003a0072
:10299000610064008000eb00e00f5000e08f580001
:1029a0009a00320080d1220041442500b21f22004b
:1029b00093ff2b00c2ff37000c0020000dff270003
:1029c0002fad9700bfad97008c0f55008d8f5d0028
:1029d00011003a002fb29700bfb297008a0f520041
:1029e0008b8f5a0046003a00e10f5400e08f5c00e4
:1029f00066003200e00f5400e08f5c006800320097
:102a0000e20f5400e08f5c006a003200e30f5400d4
:102a1000e08f5c006c0032002fab9700bfab9700db
:102a20000c0020000d4020000605460087854e0062
:102a30002fb29700bfb29700840f5500858f5d00bd
:102a4000d3ff39000a0020000bff27008a0f520035
:102a50008b8f5a00ceff3200620364008003eb00cc
:102a6000e00f5300e08f5b000b0032002fb39700a4
:102a7000bfb397000a0020000b4020000606450067
:102a800087864d002faa9700bfaa9700840f560093
:102a9000858f5e002b0039006fb29700ffb2970060
:102aa0000fbb97009fbb9700aef80700a60007007a
:102ab0009a0e0700e10f5400e08f5c002400320002
:102ac000e00f5400e08f5c007dff3200e20f540005
:102ad000e08f5c002000320074c0250045312300e7
:102ae00066622a0017ca23004df8070084d122002d
:102af00045442500b61f220097002400210037001e
:102b0000e10f5400e08f5c0034003200e00f54000d
:102b1000e08f5c0035003200e20f5400e08f5c0073
:102b200035003200e30f5400e08f5c00baff3a003a
:102b300080d1220041442500b21f220093002c00c6
:102b40005fff37006000b8006011b800d9ff3700a0
:102b500003f0a2005aff370074c02500453123005e
:102b600066622a0017ca23002df807000203be0080
:102b70000002be0080d1220041442500b21f220085
:102b80009300240026f807002aff370080d1220096
:102b900041442500b21f220093fe2b0048ff37005e
:102ba00080d1220041442500b21f220093fe230061
:102bb00043ff3700201d220031f32700c2972d006c
:102bc000230024003eff3700201d220031f32700a0
:102bd000c2972d0023002c0039ff37006000b80099
:102be000020020000300280035ff37006000b80015
:102bf0006011b80032ff370080d122004144250027
:102c0000b21f2200930024002dff370080d1220044
:102c100041442500b21f220093ff230028ff370004
:102c20001000fa00889fbe008a9fbe000204be000a
:102c30000802be0005f0a100b61f220097fe230087
:102c4000860f5200878f5a0018003e00d6092a00ce
:102c500067e42300860f5200878f5a000f003e0062
:102c60006022b8000600200007772400f2f7070072
:102c7000c0b79f00d1b79f00e2b79f00f3b79f0096
:102c80006000b8000200200003ff23004f05be00d3
:102c90004f04be000080fa00000006006022b80069
:102ca0006033b8004e0a0700f8ff3700f6ff2f0028
:102cb000f7fe2700860f5200878f5a000400360067
:102cc0000203be000002be00d5f70700efff370089
:102cd00084fe2f000f024200e40a07006304600034
:102ce0000fba97009fba97002fbb9700bfbb970002
:102cf0004fb09700dfb097006fb19700ffb197001a
:102d0000e10f5400080032000800e000e5ff320047
:102d1000e20f54000900320018002000881f7800dc
:102d20004a0d070003003700881f7800470d070091
:102d300003f0a2008f87e900d4ff3700280a0700bc
:102d400003f0a200d1ff3700f4ff2f00f5ff2f00a2
:102d5000f6ff2f00f7ff270000006200818062006d
:102d60000201630083816300000006002000fa0076
:102d7000889fbe008a9fbe008c9fbe008e1f780079
:102d8000d4b79f00e5b79f00f6b79f0087bf9f00ad
:102d90000402420085824a0006034b0087834b00f1
:102da00094b79f00a5b79f00b6b79f00c7b79f0015
:102db000e00f5200e08f5a00e00f5b00e08f5b00f5
:102dc00024003200f4ff2f00f5ff2f00f6ff2f0044
:102dd000f7ff27005fb49700efb497007fb5970027
:102de0008fbd970008046200898462000a056300b1
:102df0008b8563006022b8000600200007ff2700d3
:102e00000440e10005c8e10006d0e10007d8e10078
:102e100010003e00d0af9f00e1af9f00f2af9f00d7
:102e200083b79f00441cde006055b8008004eb00af
:102e300098af9f00a9af9f00baaf9f00cbaf9f0094
:102e4000f87f20009fae97000d066400880f5600a3
:102e50000e003a005fb29700efb297007fb3970081
:102e60008fbb97006ef807000203be000002be0091
:102e7000bcf707004f0778004f06be004f05be00a5
:102e80004f04be000080fa0000000600000240006f
:102e900081824800020349008383490094af9f0068
:102ea000a5af9f00b6af9f00c7af9f001fb49700ac
:102eb000afb497003fb59700cfb597000440e1004d
:102ec00005c8e10006d0e10007d8e100090039009b
:102ed0000440e10005c8e10006d0e10007d8e100a8
:102ee000e4ff3a006022b8006033b8004cf80700f5
:102ef000e0ff37000c00e0009b003a005fac970059
:102f0000efac97007fad97008fb59700cd00200004
:102f10000804d0008984d2000a85d2008b85d200b3
:102f20008d06e900faff3a00e00f5400e08f5c00e4
:102f3000e00f5d00e08f5d0085003d00e1061600ba
:102f40005faa9700efaa97007fab97008fb3970017
:102f50008d06e900050033000402d0008582d2000e
:102f60000683d2008783d200f9ff370094b79f0011
:102f7000a5b79f00b6b79f00c7b79f005fb2970085
:102f8000efb297007fb397008fbb9700443cde0001
:102f9000fd7f2000888666000d00e0008e003a006c
:102fa0000605be000404be00ce0020000804d000c8
:102fb0008984d2000a85d2008b85d2000e07e900f1
:102fc000faff3a00e00f5400e08f5c00e00f5d0074
:102fd000e08f5d007a003d00618416005fb29700cb
:102fe000efb297007fb397008fbb97000804e9000a
:102ff000050033000402d0008582d2000683d2008f
:103000008783d200f9ff370094af9f00a5af9f00e0
:10301000b6af9f00c7af9f001fb49700afb4970033
:103020003fb59700cfb597001faa9700afaa9700aa
:103030003fab9700cfab97000404540085845c003d
:1030400006055d0087855d00d8b79f00e9b79f0042
:10305000fab79f008bbf9f008d0f560072003c0097
:10306000e00f5400e08f5c00e00f5d00e08f5d003a
:1030700009003500e00f5400e08f5c00e00f5d00b8
:10308000e08f5d0097ff320098b79f00a9b79f00bf
:10309000bab79f00cbb79f001fb29700afb297009f
:1030a0003fb39700cfb397004438de006011b800fb
:1030b0008000eb00e00f5000e08f5800e00f590057
:1030c000e08f5900780032000c00e00084003400ea
:1030d0006000b8000200200003ff2f000000420043
:1030e00081804a0002014b0083814b006164b9007a
:1030f000614db900c445dd000005eb006044b80037
:1031000000007400818074000201750083817500e5
:103110006044b8000a0020000b0028005faa970056
:10312000efaa97007fab97008fb397000804620067
:10313000898462000a0563008b85630000007400c7
:1031400081807400020175008381750049ff37009a
:103150000c06e9000804d0008984d2000a85d20058
:103160008b85d20070ff37005faa9700efaa970007
:103170007fab97008fb39700fb0020008b85630027
:10318000faff2f000a0462008a8462000a056300c5
:103190006022b8000600200007012000040474002b
:1031a00085847400060575008785750098b79f00b3
:1031b000a9b79f00bab79f00cbb79f006fff37003a
:1031c0008d06e9000804d0008984d2000a85d20067
:1031d0008b85d2007bff3700f8ff2f00f9ff2f000f
:1031e000faff2f00fb0020005fb29700efb29700bc
:1031f0007fb397008fbb9700040264008582640050
:1032000006036500878365006044b8000a0020005b
:103210000b01200008027200898272000a03730009
:103220008b83730078ff37005fb49700efb497008b
:103230007fb597008fbd9700e00f5400e08f5c00d2
:10324000e00f5d00e08f5d0009003500e00f5400e5
:10325000e08f5c00e00f5d00e08f5d0021ff320039
:1032600098b79f00a9b79f00bab79f00cbb79f0040
:103270001fb29700afb297003fb39700cfb397004c
:103280000402d0008582d2000683d2008783d20058
:1032900094b79f00a5b79f00b6b79f00c7b79f0020
:1032a0000c06e9005cff37001fb49700afb497002d
:1032b0003fb59700cfb597000804d0008984d200ad
:1032c0000a85d2008b85d20098b79f00a9b79f00ce
:1032d000bab79f00cbb79f000c06e9006eff37001e
:1032e000610616001fb09700afb097003fb197007e
:1032f000cfb197000c06e900050033008301d1002f
:103300000281d3008180d3000080d300f9ff370011
:103310007fff37002f05b000889fbe008a9fbe0048
:103320008c9fbe008e1f7800b0a79f00c1a79f0092
:10333000d2a79f00e3a79f00b4af9f00c5af9f0037
:10334000d6af9f00e7af9f000600be000006be009c
:103350003faa9700cfaa9700f09f9f0081037800b3
:1033600007f0a10087a79f007f9c97008fa497007c
:103370000400740085807400e00f5000e08f580056
:103380001b0032003fa09700cfa097005fa19700dd
:10339000efa197000200be006011b800f0af9f00df
:1033a00081b79f0092b79f00a3b79f007fac9700a3
:1033b0008fb49700b8b79f00c9b79f003fa397008d
:1033c000cfa397007fad9700810578000bf0a10097
:1033d0000000200001ff2300800f5400818f5c005b
:1033e00007003a00e00f5300e08f5b000f003a0047
:1033f0006000b8000200200003ff23002100370016
:103400000000200001ff2700800f5500818f5d0024
:1034100013003c00800f5500818f5d0003003a00cf
:10342000e00f5300e08f5b000d003a000000200029
:1034300001ff27007f9c97008fa49700800f540006
:10344000818f5c0006003c00800f5400818f5c007f
:1034500012003a00e00f5200e08f5a000f003200d5
:103460003faa9700cfaa97005fab9700efab9700fa
:103470003fa09700cfa097005fa19700efa1970012
:10348000edf507004f0778004f06be004f05be0060
:103490004f04be002f05b100000006006044b800d4
:1034a0003fb09700cfb09700e00f5000e08f58007a
:1034b0002e003d00f0ff2f00f13324007f9c970089
:1034c0008fa49700800f5400818f5c00a0003c0007
:1034d000f0ff2f00f1fe2300800f5400818f5c006d
:1034e0009e00340044c8de008fa49700cfc8de00e1
:1034f000f03fb1000180b100f40f5000e08f5800a0
:103500005400340042032000000151003fa89700fe
:10351000cfa89700020778000e07e90003003300e8
:103520008100d1000080d300fbff37000004be0003
:10353000020778000e07e900030033000804440086
:1035400089844c00fbff37000801be006044b800ce
:10355000840f5100858f590004003a006104600017
:103560008004eb0062041400e0841c00e00f5200b1
:10357000e08f5a00550032003fa09700cfa097007f
:103580005fa19700efa19700f6b79f0087bf9f004c
:10359000edfd07007fb397008fbb9700e00f53004e
:1035a000e08f5b00ae003a00e00f5500e08f5d0059
:1035b000090032007fab9700f4ff23008fb2970021
:1035c000850362000400200005ff2300840f5300e0
:1035d000858f5b00a2003a00e00f5600e08f5e008e
:1035e00006003d000203be000002be006000b800fd
:1035f0000200200003ff2300daf507003fb3970025
:10360000cfb39700e00f5300e08f5b009dff3d00bc
:103610000400200005012c000a0242008b824a00af
:103620000802720089827200e00f5200e08f5a0097
:1036300087003a001402200064ae88000203be0036
:103640000002be0076f507000203be000002be00c5
:103650005e003700e00f5200e08f5a007a003a0017
:10366000740110007f9897008fa097008201780066
:103670008301e900030033008180d1000080d30082
:10368000fbff37000002be00020478000804e900d6
:10369000030033000402420085824a00fbff37002a
:1036a0000401be006044b8007f9a97008fa2970083
:1036b000820f5200838f5a0004003a0061046000b8
:1036c0008004eb0062041400e0841c000000200071
:1036d00001ff27007f9a97008fa29700800f52006a
:1036e000818f5a0028003a000000200001012c00c0
:1036f0000a0040008b8048003fa39700cfa39700ab
:103700000600700087807000e00f5000e08f5800c6
:1037100037ff3200f0ff2f00f1fe2300800f55002d
:10372000818f5d006000b8006011b8000d003400aa
:10373000e00f5600e08f5e0052ff35003fa8970073
:10374000cfa897005fa99700efa997004dff37001a
:10375000280020000900200084ff37006044b800e2
:1037600082ff3700e00f5600e08f5e0045ff3d000e
:103770003fa89700cfa897005fa99700efa99700ef
:1037800003f0a2003fff37000000200001ff2300ec
:103790007f9a97008fa29700800f5200818f5a0066
:1037a0000c003a00e00f5600e08f5e00e2043d009e
:1037b0003fa29700cfa297005fa39700efa39700c7
:1037c0006000b8000200200003ff230065f5070039
:1037d0002cff37000000200001002400800f56005d
:1037e000818f5e0008003a003fa29700cfa29700a9
:1037f0005fa39700efa397000400be000601be0080
:1038000007f607001fff37000000200001fe23001d
:10381000800f5600818f5e0057ff3a003fb097003f
:10382000cfb09700e00f5000e08f580052ff3500f6
:103830003fa09700cfa097005fa19700efa197004e
:10384000020607000fff37006044b8004aff370048
:10385000e10f5400e08f5c000aff3a00c8ff370018
:103860003fb29700cfb29700e00f5200e08f5a00ae
:1038700033003d00e00f5400e08f5c0009003a0087
:103880001002200060ae88003fa29700cfa29700f0
:103890005fa39700efa397000400be000601be00df
:1038a00068ff3700e10f5400e08f5c0024003a000d
:1038b0006022b8000600200007ff2b00b4a79f007d
:1038c000c5a79f00d6a79f00e7a79f000400200080
:1038d000051e24007f9b97008fa39700840f530041
:1038e000858f5b006202340004002000053f240045
:1038f000840f5300858f5b0021003400f0ff2f0000
:10390000f1fe2300800f5500818f5d0010003c0008
:10391000e00f5600e08f5e0010003d00c459270004
:1039200005802800c6432e0077e32700c0592700f2
:1039300001802800c2432e0073e32700b0ff370048
:103940006022b8000600200007ff2300dbff3700dd
:10395000e00f5600e08f5e00f0ff3c0094352f0032
:10396000852f2c00f6e12600571a200090352f00f5
:10397000812f2c00f2e12600531a2000a0ff37000f
:10398000e4ff2f00f5fe2300840f5500858f5d00b6
:1039900011003c00e00f5600e08f5e0016003d0075
:1039a000c459270005802800c6432e0077e327006e
:1039b0003fa09700cfa097005fa19700efa19700cd
:1039c00097f50700c459270005802800c6432e003c
:1039d00077e327008aff37000400200005ff23005b
:1039e000840f5500858f5d0011003400e00f5600f4
:1039f000e08f5e00eaff3c0094352f00852f2c00fd
:103a0000f6e12600571a20003fa09700cfa09700ac
:103a10005fa19700efa1970081f5070094352f0073
:103a2000852f2c00f6e12600571a200074ff37007e
:103a30006022b8000600200007ff230078f407008a
:103a40000205be000004be000400200005002600a0
:103a50007654210077ff230071f50700b0b79f006f
:103a6000c1b79f00d2b79f00e3b79f0044f42d0079
:103a7000d5852f00b6e02a0047e523000800be00e8
:103a80000a01be0066f50700f0af9f0081b79f00f6
:103a900092b79f00a3b79f006022b80006002000e5
:103aa00007fd23000800be000a01be005cf5070008
:103ab0000203be000002be005055250051552500ee
:103ac0005255250053fd230055f407000802be009f
:103ad0000a03be0052f507000203be000002be004a
:103ae0006000b8000200200003fe23004cf4070031
:103af000f0a79f0081af9f0092af9f00a3af9f00f0
:103b00000802be000a03be000800be000a01be0093
:103b100043f507000203be000002be007fa097002d
:103b20008fa897001fa99700afa997003cf5070041
:103b3000e42f2800b55226007654210077ff230099
:103b400037f507000203be000002be007fa8970001
:103b50008fb097001fb19700afb1970030f4070006
:103b60000205be000004be000203be000002be004b
:103b70003fb09700cfb097005fb19700efb19700cb
:103b80002df407006022b800f6ff2f00f7ff2f008a
:103b90000000620081806200020163008381630093
:103ba000f0af9f0081b79f0092b79f00a3b79f001f
:103bb0003fb29700cfb297005fb39700efb3970083
:103bc00017f407000203be000002be000800be009a
:103bd0000a01be0012f40700b0b79f000107780089
:103be00082067800030678006044b800faff2f00d0
:103bf000fbff2f003fa89700cfa897005fa9970071
:103c0000efa9970000046400818464000205650048
:103c1000838565000802be000a03be003fa8970026
:103c2000cfa897005fa99700efa99700fcf30700c2
:103c30007faa97008fb297001fb39700afb397008a
:103c4000f7f40700f0a79f0081af9f0092af9f009d
:103c5000a3af9f003faa9700cfaa97005fab970042
:103c6000efab97003fb097008e0078000d01780011
:103c70008c017800eaf407000203be000002be00d7
:103c80007fa097008fa897001fa99700afa9970062
:103c9000e9f30700b0af9f00c1af9f00d2af9f0014
:103ca000e3af9f000802be000a03be007fa8970092
:103cb0008fb097001fb19700afb19700d8f40700fd
:103cc0008006780001077800b2b79f0003067800ed
:103cd000f0a79f00919f9f00f29f9f00b39f9f00be
:103ce0000002be000203be003fa89700cfa89700c5
:103cf0005fa99700efa99700cff30700f0af9f00ef
:103d000081b79f0092b79f00a3b79f000204be0037
:103d1000d8979f00e9979f00f0ff2f00f10824003b
:103d2000800f5400818f5c004f033400000020009e
:103d300001f72b000000440081804c007fa9970010
:103d40008fb197000200700083807000e00f500078
:103d5000e08f580012ff3a00e42f2800b5522600e9
:103d60007654210077c923003fa89700cfa8970079
:103d70005fa99700efa99700aff3070090979f0006
:103d8000a1979f00b2979f00c3979f000d027800f4
:103d90008e0278003fb397008c0378007fa89700cd
:103da0008fb097001fb19700afb197009cf3070049
:103db0000203be000002be001f909700af90970064
:103dc0003f919700cf919700b0f207000000e0000c
:103dd000f3fe3c000800be0001f0a1006033b80013
:103de000f6af9f0087b79f000200200003fe23006c
:103df000820f5000838f5800420034004489de0057
:103e0000e23fb10000002000010120000201e900b2
:103e1000030033008180d1000080d300fbff370016
:103e20000000440081804c000102d0004521de00ea
:103e30008001eb00f23fb1000380b100f4ff2f00de
:103e4000f5002000820378008703e90003003300b7
:103e50008582d1000482d300fbff37000482ea0090
:103e60008582ea0000046200818462000802be00cc
:103e70004fabde00860378000403be006022b8006a
:103e800000047800ef8460000800be000140a0003c
:103e9000740111000004be000201e90003003300b8
:103ea0008984d1000884d300fbff3700f8af9f005e
:103eb00089b79f005f949700ef949700e00f54003c
:103ec000e08f5c0006003d007fac97008fb4970048
:103ed00060041400e0841c00f8af9f0089b79f00c5
:103ee0000d0078008e0078003fb197008c017800bb
:103ef0004bf30700f0a79f00919f9f00f29f9f0048
:103f0000b39f9f003faa9700cfaa97005fab97008f
:103f1000efab97007fa097009f9897007f9997003d
:103f2000bf99970044f307006044b800faff2f00e0
:103f3000fbff2f000004640081846400020565001b
:103f4000838565006022b80036e4220067fe230006
:103f50000800be000a01be0031f40700b0b79f00a0
:103f6000c1b79f00d2b79f00e3b79f007fa2970021
:103f70009f9a97007f9b9700bf9b97000800be0009
:103f80000a01be0026f307000203be000002be00c5
:103f90003fa89700cfa897005fa99700efa99700c7
:103fa0001ff30700f49e2300a5ef2f0026e4220054
:103fb00067fe23001af40700b0af9f00c1af9f0057
:103fc000d2af9f00e3af9f0094c3260085ca2000b4
:103fd00016c6250007e22b000800be000a01be003d
:103fe0000ff407000203be000002be003fa89700c6
:103ff000cfa897005fa99700efa997000ef30700dd
:104000000205be000004be000203be000002be00a6
:104010003fb09700cfb097005fb19700efb1970026
:1040200005f30700b0af9f00c1af9f00d2af9f0064
:10403000e3af9f003fb29700cfb297005fb3970006
:10404000efb39700f6f207000203be000002be00c5
:104050000800be000a01be00f1f20700b0b79f00e1
:10406000c1b79f00d2b79f00e3b79f003faa970058
:10407000cfaa97005fab9700efab97000400be009c
:104080000601be00e6f307000205be000004be0004
:10409000044d2a00e52b27009676230067e62300cf
:1040a000dff3070014bf2600255d2c0016d42b007b
:1040b000b7eb2300daf207000802be000a03be00d5
:1040c000d7f30700c4e22d0055f22a00a6662500aa
:1040d00017f12300d8f207000802be000a03be0051
:1040e000cff3070034d92b00e56b2100c6162c0056
:1040f00067f62300caf207000802be000a03be00ea
:10410000c7f30700e45325005555250056552500f3
:1041100057fc2300c8f207000802be000a03be00d5
:10412000bff307000203be000002be003fa89700d5
:10413000cfa897005fa99700efa99700b8f20700f2
:104140000205be000004be000203be000002be0065
:104150003fa89700cfa897005fa99700efa9970005
:10416000aff30700f0a79f0081af9f0092af9f00c1
:10417000a3af9f006022b8000600200007002400c3
:104180000800be000a01be00a5f207000203be003f
:104190000002be007fa097008fa897001fa997007c
:1041a000afa99700eff207000205be000004be00b1
:1041b0003fb29700cfb297005fb39700efb397007d
:1041c0003fa89700cfa897005fa99700efa9970095
:1041d00093f307003fb29700cfb297005fb3970009
:1041e000efb3970094f207000203be000002be0086
:1041f0000800be000a01be0089f207003faa97002e
:10420000cfaa97005fab9700efab970084f207004f
:104210000203be000002be006000b80002002000e1
:1042200003ff23007ef207007fac97008fb4970056
:10423000c442dd00040020000404410085844900dc
:1042400044cade00cfcade00e00f5200e08f5a0001
:1042500028023c007faa9700be0207003fa29700f9
:10426000cfa297005fa39700efa3970064fd3700ec
:104270006022b80006ff27008fb397008702630013
:104280006033b800e00f5200e08f5a0007003a0098
:104290006022b800060020000734240060f3070005
:1042a0000205be00b6fc2f00f7ff2f0044dade0047
:1042b000cfdade00f43fb1000580b1000404430012
:1042c00085844b00989f9f00a99f9f000a02780059
:1042d000ef8265000800200009ff23000804720037
:1042e000898472006055b800e688290037002000f4
:1042f000860f5200878f5a000f0034001a002000ea
:104300000b00200096672b00b7002000860f52009c
:10431000878f5a00080034001f9a9700af9a9700c1
:104320000402450085824d00949f9f00a59f9f0039
:10433000f08454006055b8000700200007036100b6
:1043400087836100f5ff2f00050260008582600011
:10435000b4b79f00c5b79f00d6b79f00e7b79f00cf
:104360000802be004fabde00860378000403be00e7
:104370006022b8003fb09700cfb097005fb19700c0
:10438000efb1970004007000858070000601710095
:1043900087817100f09f9f0081a79f0092a79f00d7
:1043a000a3a79f004356dd00205b21000c004000c6
:1043b000100278009002900020039000b00390005b
:1043c000f4a79f0085af9f0096af9f00a7af9f0007
:1043d0007f9897008fa097001fa19700afa197002b
:1043e0000ff20700b09f9f00c19f9f00d29f9f00c8
:1043f000e39f9f007f9a97008fa297001fa39700cb
:10440000afa397007fa097008fa897001fa99700e0
:10441000afa9970008f207000203be000002be0029
:104420006000b8000200200003ff23004df20700e7
:10443000d0979f00e1979f00f2979f00839f9f0076
:104440000203be000002be003f989700cf9897007d
:104450005f999700ef999700f1f20700b0b79f00be
:10446000c1b79f00d2b79f00e3b79f00f7ff2f00af
:1044700007036100878361000500200005026000da
:1044800085826000f4af9f0085b79f0096b79f00bc
:10449000a7b79f008984d1000884d30009d0a00069
:1044a000e8844400c255dd000a00200008044500ed
:1044b00089844d004fcdde008a0578000805be00d6
:1044c0006044b8000802be000a03be007fa897003f
:1044d0008fb097001fb19700afb19700d0f20700df
:1044e0000203be000002be003f989700cf989700dd
:1044f0005f999700ef999700c9f10700b09f9f005f
:10450000c19f9f00d29f9f00e39f9f007fa29700c3
:104510008faa97001fab9700afab97000800be00b3
:104520000a01be00bef107000203be000002be0089
:104530007f9897008fa097001fa19700afa19700c9
:10454000b7f107007faa97008fb297001fb39700bb
:10455000afb39700b2f207000203be000002be0034
:104560003f989700cf9897005f999700ef99970031
:10457000abf107005f929700ef9297007f9397004f
:104580008f9b9700a6f20700f0a79f0081af9f00c6
:1045900092af9f00a3af9f003fb29700cfb29700aa
:1045a0005fb39700efb397000400be000601be00a2
:1045b0009bf207000205be000004be00f4ee2400da
:1045c00055a4240086e22700a7fc230094f20700ec
:1045d00054b62d00953c2900a6642800d7fc230082
:1045e00095f107000802be000a03be008cf2070026
:1045f00014102400d5912a000646270017fd230039
:104600008df107000802be000a03be0084f2070015
:10461000d4642200f51825005655250057fd2300c7
:1046200085f107000802be000a03be007cf2070005
:10463000f4bf2a00f5b62d0066db2600b7fd230087
:104640007df107000802be000a03be0074f20700f5
:1046500034302300353323003633230037fe230064
:1046600075f10700f09f9f0081a79f0092a79f0010
:10467000a3a79f000802be000a03be000800be00f8
:104680000a01be0066f207000203be000002be007f
:104690007f9897008fa097001fa19700afa1970068
:1046a0005ff207000205be000004be007faa97006b
:1046b0008fb297001fb39700afb397003fb097003a
:1046c000cfb097005fb19700efb197005af10700a4
:1046d0007fa297008faa97001fab9700afab970000
:1046e0004ff207000802be000a03be0052f10700a5
:1046f000f09f9f0081a79f0092a79f00a3a79f0004
:104700007faa97008fb297001fb39700afb39700af
:104710000400be000601be0041f20700b09f9f00ea
:10472000c19f9f00d29f9f00e39f9f006022b8001f
:1047300006002000870024003ff107007f9a9700c1
:104740008fa297001fa39700afa397003af107002d
:10475000fbff2f000b0561008b8561000900200025
:1047600009046000898460000802be000a03be00dc
:104770007fa897008fb097001fb19700afb1970047
:1047800027f20700f0af9f0081b79f0092b79f000c
:10479000a3b79f006022b800060020008700240015
:1047a0000800be000a01be001df107003f9a9700f5
:1047b000cf9a97005f9b9700ef9b970018f1070037
:1047c0000203be000002be007f9897008fa09700f2
:1047d0001fa19700afa1970011f107003fb297000a
:1047e000cfb297005fb39700efb397000cf20700ca
:1047f000b0b79f00c1b79f00d2b79f00e3b79f003b
:104800000802be000a03be007fa097008fa8970091
:104810001fa99700afa9970001f207000203be008d
:104820000002be003fb09700cfb097005fb1970085
:10483000efb1970000f10700b0b79f00c1b79f002c
:10484000d2b79f00e3b79f000203be000002be0084
:104850007fa897008fb097001fb19700afb1970066
:10486000f5f00700fbff2f000b0561008b85610051
:104870000900200009046000898460000400200011
:1048800005002e0096702c00e7fe23000800be00f5
:104890000a01be00e2f10700f0a79f0081af9f0070
:1048a00092af9f00a3af9f007faa97008fb297009f
:1048b0001fb39700afb397000800be000a01be0007
:1048c000d7f007000203be000002be003fb0970011
:1048d000cfb097005fb19700efb19700d0f007001d
:1048e000d43f2000a5c32d0096702c00e7fe2300c6
:1048f000cbf10700f0af9f0081b79f0092b79f00f8
:10490000a3b79f00541f2000b545210006fe2200da
:10491000e7e32b000800be000a01be00c0f107005b
:104920000203be000002be007fa897008fb0970070
:104930001fb19700afb19700bff0070024592100c5
:104940000c0242009402900024039000b4039000f3
:1049500014027800b8f00700f09f9f0081a79f0025
:1049600092a79f00a3a79f001f989700af9897005a
:1049700066f007000205be000004be00205a2100b8
:104980000c0640001c0078009c0090002c01900058
:10499000bc019000b0b79f00c1b79f00d2b79f0085
:1049a000e3b79f007f9a97008fa297001fa39700fd
:1049b000afa397007fa097008fa897001fa997002b
:1049c000afa997009cf007003fb29700cfb29700c5
:1049d0005fb39700efb3970097f007000802be009f
:1049e0000a03be0094f00700f7ff2f0007036100e1
:1049f0008783610005002000050260008582600059
:104a00000400be000601be00f4af9f0085b79f0002
:104a100096b79f00a7b79f000802be000a03be001a
:104a20007ff007003fb29700cfb297005fb39700c7
:104a3000efb397007af007007fa297008faa970044
:104a40001fab9700afab970075f007000203be00e5
:104a50000002be007f9897008fa097001fa19700cb
:104a6000afa197005bfc37000800be0001f0a10079
:104a7000f2bf2c0003092400820f5000838f5800de
:104a8000d4fc340000402300f1f62300080040006d
:104a9000898048007faa97008fb2970004007000b9
:104aa00085807000e00f5000e08f5800d2fb3a0084
:104ab0000d0278008e0278003fb397008c037800d7
:104ac0007fa897008fb097001fb19700afb19700f4
:104ad00053f007003faa9700cfaa97005fab97005b
:104ae000efab970069ef07000000e000b9fc35006c
:104af000c1fb3700f4ff2f00f5ff2f006033b80033
:104b0000000262008182620002036300838363000b
:104b10000800be004f89de00820178000001be005f
:104b20006000b80000007200818072000201730012
:104b300083817300c9fd37003fa09700cfa0970085
:104b40005fa19700efa197004efa37002000fa000e
:104b5000889fbe008a9fbe008c1f78000205be00a1
:104b60000004be004418de00fc7f20000006660042
:104b700020432000800f560026003c00f8af9f0025
:104b800089b79f009ab79f00abb79f00e00f540012
:104b9000e08f5c00e00f5d00e08f5d0024003d00d1
:104ba0000800be000a01be0003f0a200f0b79f009b
:104bb00081bf9f0092bf9f00a3bf9f006022b800eb
:104bc00006002000073324007fb097008fb89700bd
:104bd0001fb99700afb9970017f00700d43f200026
:104be000840f560017003c00b0af9f00c1af9f007c
:104bf000d2af9f00e3af9f006022b8006033b800df
:104c00000800be000a01be0005f107000004be0056
:104c10000205be000800be000a01be004f06780073
:104c20004f05be004f04be000080fa0000000600e1
:104c3000f8b79f0089bf9f009abf9f00abbf9f003e
:104c4000deff37006022b800060020000733240092
:104c5000f3ef07007fb297008fba97001fbb970052
:104c6000afbb9700eeef0700b0b79f00c1b79f0042
:104c7000d2b79f00e3b79f000203be000002be0050
:104c80007fb097008fb897001fb99700afb9970012
:104c9000e9ef07000004be000205be006022b80074
:104ca0000600200007fe23003fb09700cfb097001a
:104cb0005fb19700efb19700f4ee07000000e0004d
:104cc000130034006022b8000600200007ff230014
:104cd0000800be000a01be00d1ef07000004be00bc
:104ce0000205be007fa897008fb097001fb1970004
:104cf000afb19700e00f5000e08f5800e00f59006f
:104d0000e08f5900c3ff3d000bf0a200c1ff370048
:104d10006022b8000600200007fe2b003fb097007d
:104d2000cfb097005fb19700efb19700d2ee0700c8
:104d30000000e000ebff3c006022b800060020000d
:104d400007ff23000800be000a01be00baef0700fb
:104d5000e2ff3700889fbe008a9fbe008c9fbe0086
:104d60000004780081067800020678008305780048
:104d700084047800fa3f20008a0f52001a003400a1
:104d80006022b8000600200007fe2700a4f00700fc
:104d90000004780081067800020678008305780018
:104da00014c02f00090242008a0f5200290034006b
:104db0006022b8000600200007fe270098f00700d8
:104dc00000047800810678000206780083057800e8
:104dd00024802f00048244008a0f52001d003400fa
:104de0000a0278001b0037002ac02f008a0f5200e9
:104df00018003d006022b8000600200007362000a1
:104e000087f0070000047800810678000206780029
:104e100083057800943c2000090242008a0f52006a
:104e20000c003d006022b80006002000073620007c
:104e30007bf0070000047800810678000206780005
:104e40008305780024792000048244008a0f5200f0
:104e5000e3ff3500f43fb000cfa2de00612bb900c4
:104e6000c423dd000003eb006022b80008007800d6
:104e70008d0078000c0178008b01780068f0070045
:104e80004f06be004f05be004f04be0000000600e6
:104e90001000fa00889fbe008a9fbe000205be0077
:104ea0000004be000a02be000400be0001f0a10022
:104eb000b21f220093fe2300820f5000838f580000
:104ec0002e003e00f2ff2f00f3e42300820f50007b
:104ed000838f58001f003e006000b80002ff2700cb
:104ee00085006100e00f5000e08f580012003a008a
:104ef0006022b80006002000078723000800be00db
:104f00000a01be0046f007000002be000203be0018
:104f1000c4b79f00d5b79f00e6b79f00f7b79f00c3
:104f20000800be000a01be004f05be004f04be00cf
:104f30000080fa00000006006022b8000600200091
:104f4000077724000800be000a01be003aef070000
:104f5000edff3700801feb006022b8006033b8001f
:104f60000800be000a01be00b80407000205be002a
:104f70000004be008f87e900e9ff3700f2ff2f0031
:104f8000f3fe2700820f5000838f58000800360080
:104f90000802be000a03be000800be000a01be00ef
:104fa0001fef07000004be000205be00dcff370053
:104fb00084fe2f000f0242000800be000a01be005e
:104fc0002a020700630460000fba97009fba970097
:104fd0002fbb9700bfbb97004fb09700dfb0970083
:104fe0006fb19700ffb19700e10f54000c00320041
:104ff0000800e00007003200e20f54000c0032000d
:10500000770107000205be000004be000bf0a200fd
:10501000c3ff370018002000881f7800d2ff370038
:105020006f0107000205be000004be00bcff370090
:1050300018002000881f7800840407000205be00c5
:105040000004be000bf0a200caff3700f68747003d
:10505000889fbe008a9fbe008c9fbe008e1f780076
:10506000b0b79f00c1b79f00d2b79f00e3b79f00c2
:105070000204be000802be003fb19700cfb1970006
:105080006033b80000ff27008903600000002000a3
:1050900001ff2700800f5300818f5b001c003a0046
:1050a0003fb29700cfb297005fb39700efb397007e
:1050b0000400be000601be00d9ef07000203be00d7
:1050c0000002be003fb09700cfb097005fb19700dd
:1050d000efb19700d8ee0700b0b79f00c1b79f00af
:1050e000d2b79f00e3b79f003fb09700cfb09700c3
:1050f0005fb19700efb197004f0778004f06be00f1
:105100004f05be004f04be006f01b1000000060055
:10511000e00f5400e08f5c0017003c000800be0068
:1051200001f0a1000200700083807000e00f5000c9
:10513000e08f5800ecff3200e00f5400e08f5c007d
:105140000d003d001002200060ae88003fb29700c5
:10515000cfb297005fb39700efb397000400be0093
:105160000601be00aeee07000203be000002be0054
:10517000fcee0700d8ff370044c8de00cfc8de00d1
:10518000e00f5000e08f5800f00032000003be0036
:10519000f63fb1000780b10004007800ef806200a4
:1051a0000140a000610263008002eb00e00f5200aa
:1051b000e08f5a0008003200000040008180480063
:1051c0004f1ade00050020000000420081804a00e6
:1051d00002014100838149008786d1000686d30001
:1051e000fcaf9f008db79f004f1ade000500200026
:1051f0000000400081804800040040008580480095
:1052000002014100838149006c012000060020005a
:10521000070220006055b8006022b8000404430073
:1052200085844b00800f5400818f5c0006003c0099
:105230000802430089824b00080050008980580012
:105240000a0543008b854b00000040008180480028
:105250004f1cde00090020000000440081804c004b
:1052600002014100838149008703d1000683d300f6
:105270000c06e9000c00e000e8ff3a000e022000f6
:105280006044b8006033b80096b79f00a7b79f008e
:105290000c0020000d002800bcb79f00cdb79f0078
:1052a0003fb39700cfb397001fb69700afb69700f4
:1052b0000603460087834e00f6b79f0087bf9f0016
:1052c000840f5000858f580006003c00840f50006a
:1052d000858f580029003a00820f5300838f5b00ae
:1052e00026003e007fb397008fbb97003fb6970024
:1052f000cfb697000603460087834e0096b79f00ff
:10530000a7b79f007fb397008fbb9700e00f5300b4
:10531000e08f5b0094003d001fb69700afb697008a
:10532000e00f5600e08f5e008f0035006103420001
:10533000e0834a0004005000858058007fb2970047
:105340008fba9700820f5200838f5a0002003600f6
:1053500061005000e08058007fb697008fbe970034
:105360000c0151008d8159003fb29700cfb29700d8
:105370000804420089844a000602be004f1bde007a
:105380000700200000004000818048000600400027
:105390008780480002014100838149003fb39700a4
:1053a000cfb397008703d1000683d300b6b79f0021
:1053b000c7b79f000e07e9000e00e000b8ff3a00f3
:1053c0000201700083817000e00f5100e08f5900ee
:1053d0001400320094352f00852f2c00f6e12600b2
:1053e000571a20006000b8000200200003ff2300cd
:1053f0000bee07006022b8000600200007ff230024
:1054000022ed07000000e00006003500e10f440037
:10541000e08f4c0056003a0061054500e0854d00e4
:105420006044b8008b82d1000a82d30000002000c3
:1054300001fe230004024000858248008904d10057
:105440000884d300610165008001eb00e00f51008a
:10545000e08f59000100320009f0a0007fae9700f4
:105460008fb69700c460dd000000200000004200fd
:1054700081804a004f89de00820178000001be0071
:105480006000b80000027400818274000203be0054
:10549000b4b79f00c5b79f00d6b79f00e7b79f007e
:1054a00011ff370075035300e0835b00cb1ade0069
:1054b000451cdd004b12de0004027400c511dd0046
:1054c00002002000e00f5200e08f5a00f5ff32008a
:1054d0008004eb0099b79f004cfe2f000f0646009a
:1054e000708e62001fb49700afb49700e00f5400b5
:1054f000e08f5c001700320061055000e085580025
:1055000001022000808050000204be008100e900fa
:10551000030033008904d1000884d300fbff370067
:105520000402740085827400800478008904e90014
:10553000030033000201410083814900fbff370073
:105540000a0053008b805b0010ff37006033b80007
:10555000dcff37000402420085824a0061004000ff
:10556000e0804800daff37000403be0071ff370017
:1055700094352f00852f2c00f6e12600571a2000c5
:105580006000b8000200200003ff2300aaed07001e
:105590006022b8000600200007ff2300bbec0700d4
:1055a0000000e00008003400e20f4400e08f4c00ef
:1055b00002003a0061054500e0854d0062044400a8
:1055c000e0844c0097ff370061004400e0804c000d
:1055d000000478000800a1008104780091ff3700e2
:1055e0003000fa00889fbe008a9fbe0080bf9f00e7
:1055f00091bf9f00a2bf9f00b3bf9f0084af9f00d9
:1056000095af9f00a6af9f00b7af9f000203be00fb
:105610000002be0082ee07000205be000004be00cc
:105620000203be000002be007dee0700c0b79f006f
:10563000d1b79f00e2b79f00f3b79f006022b80088
:105640000600200007fe23000800be000a01be007d
:1056500073ee070080b79f0091b79f00a2b79f002d
:10566000b3b79f000203be000002be006000b80096
:105670000200200003ff230069ed0700c0af9f0078
:10568000d1af9f00e2af9f00f3af9f00448d230096
:1056900085e82b0096ae2f0087da2b000800be00ad
:1056a0000a01be005eee0700441c2b0045db2b0008
:1056b000e6e92e0017e223005fed07000802be00b6
:1056c0000a03be0056ee0700d42a2500c5092800ab
:1056d000f6e4270027e9230051ed0700c0a79f004b
:1056e000d1a79f00e2a79f00f3a79f004fb29700aa
:1056f000dfb297006fb39700ffb397000400be00be
