:020000040000fa
:080000000002040000000000f2
:020000040000fa
:0400080036040000ba
:020000040000fa
:04000c0036040000b6
:020000040000fa
:0400100036040000b2
:020000040000fa
:0400140036040000ae
:020000040000fa
:0400180036040000aa
:020000040000fa
:04001c0036040000a6
:020000040000fa
:0400200036040000a2
:020000040000fa
:04002400360400009e
:020000040000fa
:04002800360400009a
:020000040000fa
:04002c003604000096
:020000040000fa
:040030003604000092
:020000040000fa
:04003400fa020000cc
:020000040000fa
:04003800360400008a
:020000040000fa
:04003c003604000086
:020000040000fa
:040040003604000082
:020000040000fa
:04004400360400007e
:020000040000fa
:04004800460300006b
:020000040000fa
:04004c003604000076
:020000040000fa
:040050003604000072
:020000040000fa
:04005400ee030000b7
:020000040000fa
:04005800b8030000e9
:020000040000fa
:04005c00920300000b
:020000040000fa
:040060003604000062
:020000040000fa
:04006400360400005e
:020000040000fa
:04006800360400005a
:020000040000fa
:04006c003604000056
:020000040000fa
:040070003604000052
:020000040000fa
:04007400360400004e
:020000040000fa
:04007800360400004a
:020000040000fa
:04007c003604000046
:020000040000fa
:040080003604000042
:020000040000fa
:04008400360400003e
:020000040000fa
:04008800360400003a
:020000040000fa
:04008c003604000036
:020000040000fa
:040090003604000032
:020000040000fa
:040094005003000015
:020000040000fa
:04009800360400002a
:020000040000fa
:04009c003604000026
:020000040000fa
:0400a0003604000022
:020000040000fa
:0400a400360400001e
:020000040000fa
:0400a800360400001a
:020000040000fa
:0400ac003604000016
:020000040000fa
:0400b0003604000012
:020000040000fa
:0400b400360400000e
:020000040000fa
:0400b800360400000a
:020000040000fa
:0400bc003604000006
:020000040000fa
:0400c0003604000002
:020000040000fa
:0400c40036040000fe
:020000040000fa
:0400c80036040000fa
:020000040000fa
:0400cc0036040000f6
:020000040000fa
:0400d00036040000f2
:020000040000fa
:0400d40036040000ee
:020000040000fa
:0400d80036040000ea
:020000040000fa
:0400dc0036040000e6
:020000040000fa
:0400e00036040000e2
:020000040000fa
:0400e40036040000de
:020000040000fa
:0400e80036040000da
:020000040000fa
:0400ec0036040000d6
:020000040000fa
:0400f00036040000d2
:020000040000fa
:0400f40036040000ce
:020000040000fa
:0400f80036040000ca
:020000040000fa
:0400fc0036040000c6
:020000040000fa
:0401000036040000c1
:020000040000fa
:0401040036040000bd
:020000040000fa
:0401080036040000b9
:020000040000fa
:04010c0036040000b5
:020000040000fa
:0401100036040000b1
:020000040000fa
:0401140036040000ad
:020000040000fa
:0401180036040000a9
:020000040000fa
:04011c0036040000a5
:020000040000fa
:0401200036040000a1
:020000040000fa
:04012400360400009d
:020000040000fa
:040128003604000099
:020000040000fa
:04012c003604000095
:020000040000fa
:040130003604000091
:020000040000fa
:04013400360400008d
:020000040000fa
:040138003604000089
:020000040000fa
:04013c003604000085
:020000040000fa
:040140003604000081
:020000040000fa
:04014400360400007d
:020000040000fa
:040148003604000079
:020000040000fa
:04014c003604000075
:020000040000fa
:040150003604000071
:020000040000fa
:04015400360400006d
:020000040000fa
:040158003604000069
:020000040000fa
:04015c003604000065
:020000040000fa
:040160003604000061
:020000040000fa
:04016400360400005d
:020000040000fa
:040168003604000059
:020000040000fa
:04016c003604000055
:020000040000fa
:040170003604000051
:020000040000fa
:04017400360400004d
:020000040000fa
:040178003604000049
:020000040000fa
:04017c003604000045
:020000040000fa
:040180003604000041
:020000040000fa
:04018400360400003d
:020000040000fa
:040188003604000039
:020000040000fa
:04018c003604000035
:020000040000fa
:040190003604000031
:020000040000fa
:04019400360400002d
:020000040000fa
:040198003604000029
:020000040000fa
:04019c003604000025
:020000040000fa
:0401a0003604000021
:020000040000fa
:0401a400360400001d
:020000040000fa
:0401a8003604000019
:020000040000fa
:0401ac003604000015
:020000040000fa
:0401b0003604000011
:020000040000fa
:0401b400360400000d
:020000040000fa
:0401b8003604000009
:020000040000fa
:0401bc003604000005
:020000040000fa
:0401c0003604000001
:020000040000fa
:0401c40036040000fd
:020000040000fa
:0401c80036040000f9
:020000040000fa
:0401cc0036040000f5
:020000040000fa
:0401d00036040000f1
:020000040000fa
:0401d40036040000ed
:020000040000fa
:0401d80036040000e9
:020000040000fa
:0401dc0036040000e5
:020000040000fa
:0401e00036040000e1
:020000040000fa
:0401e40036040000dd
:020000040000fa
:0401e80036040000d9
:020000040000fa
:0401ec0036040000d5
:020000040000fa
:0401f00036040000d1
:020000040000fa
:0401f40036040000cd
:020000040000fa
:0401f80036040000c9
:020000040000fa
:0401fc0036040000c5
:020000040000fa
:0402000036040000c0
:020000040000fa
:0402040036040000bc
:020000040000fa
:0402080036040000b8
:020000040000fa
:04020c0036040000b4
:020000040000fa
:0402100036040000b0
:020000040000fa
:0402140036040000ac
:020000040000fa
:0402180036040000a8
:020000040000fa
:04021c0036040000a4
:020000040000fa
:0402200036040000a0
:020000040000fa
:04022400360400009c
:020000040000fa
:040228003604000098
:020000040000fa
:04022c003604000094
:020000040000fa
:040230003604000090
:020000040000fa
:04023400360400008c
:020000040000fa
:040238003604000088
:020000040000fa
:04023c003604000084
:020000040000fa
:040240003604000080
:020000040000fa
:04024400360400007c
:020000040000fa
:040248003604000078
:020000040000fa
:04024c003604000074
:020000040000fa
:040250003604000070
:020000040000fa
:04025400360400006c
:020000040000fa
:040258003604000068
:020000040000fa
:04025c003604000064
:020000040000fa
:040260003604000060
:020000040000fa
:04026400360400005c
:020000040000fa
:10040000ef5221000eff27000e01880000000000bf
:10041000000020000000e000020032000001200087
:100420002002880014000700120107000000e0000d
:1004300003003a0080ef2500010020000200370091
:100440000000200001002000810f70000100320038
:100450000f000700000020000000e0000200320052
:100460000000020000000000f4560200000000003e
:100470000040da000000fe00200020000000e00044
:1004800002003200100020009001880000000600e9
:10049000a1028800800478000000eb001f003700f4
:1004a000e284440054a0b4009905ba00e2844400f8
:1004b00054a0b4009906ba00e284440054a0b400e9
:1004c0000006eb00476fde00fd07b200ae018800ba
:1004d000636ce10003003a000ad801000000eb0061
:1004e0000e003700606ce10008003a00004deb00a0
:1004f0000a05e800020039003420ec000af0a000f0
:100500008b05e900f9ff3e00040037006168e10057
:10051000010032000086eb000b00070019c7ba008b
:100520000e04e0001905ba0003003a000a00e000da
:10053000dbff3a0000000600fe07b200ae028800b2
:100540008a047800f5ff37000cd0a300e20f4d00bd
:100550001c003b0089027800354dba000a05e8000e
:10056000020039003420ec000af0a0008b05e900fd
:100570000f003200254dba000a05e80002003900dc
:100580003420ec000af0a0008b05e90008003200de
:100590000c00e0000600320015cdba000a05e800a4
:1005a000020039003420ec000af0a0008b05e900bd
:1005b0008984e80054a0b4000b00e000e2ff3a0098
:1005c000000006009902ba00055d78008b05e9007d
:1005d000f7ff3200c82ade00055d78008b05e900d0
:1005e000f3ff32000c00e000f1ff320019ddba0029
:1005f000eeff37003600f800809fbe00829fbe00ed
:10060000849fbe00869fbe000000fa000068a9001b
:10061000042f07007824070095260700a088800093
:10062000b18880000200200003f82300a603070021
:1006300080017800010178000300780082007800d2
:100640000000be00a0888800b18888007085800006
:100650000000e8007085880070858000f80f500069
:1006600002003600ae30ef002c280700000000002a
:100670000080fa004f03be004f02be004f01be00d3
:100680004f00be003600f900004006000000fa00ee
:100690000108a900000000000080fa0000400600e8
:1006a0003600f800809fbe00829fbe00849fbe007f
:1006b000869fbe000000fa000368a9003285800012
:1006c000438580001000200001002000020040004f
:1006d00083804800308588004185880052858000ed
:1006e000638580001000200001002000020040000f
:1006f0008380480050858800618588005b20070062
:100700002a130700000000000080fa004f03be001b
:100710004f02be004f01be004f00be003600f90080
:1007200000400600801f78000000fa0001a8a90020
:100730000018800010a988001018800020a98800e7
:100740002018800030a988003018800040a9880057
:100750004018800050a9880010c0b300c1f0b70055
:10076000000000000080fa004f0078000040060002
:100770003600f800809fbe00829fbe00849fbe00ae
:10078000869fbe000000fa000188a90091858000c4
:1007900080858000808f500007003200101180009b
:1007a0004900de00614060000004e00003003a0000
:1007b000352e070001003700b470ef000000000084
:1007c0000080fa004f03be004f02be004f01be0082
:1007d0004f00be003600f900004006003600f80069
:1007e000809fbe00829fbe00849fbe00869fbe0089
:1007f0000000fa000168a900101180004200de002c
:1008000061406000e14f500001003a002242a9001f
:10081000101180000000d10061406000e14f5000e5
:1008200005003a002222a9000300370030118000a1
:1008300000407800262f070010118000004078004b
:1008400061406000e14f5000f8ff320000000000fe
:100850000080fa004f03be004f02be004f01be00f1
:100860004f00be003600f900004006000040da00ec
:100870000000fe00000005008f1fd1005e0607008b
:100880008f87e9000000e00000000600809feb0079
:10089000590607008f87e9000000e000000006000d
:1008a000801feb00540607008f87e9000000e0007e
:1008b0000000060081037800990007000001be00d7
:1008c0006000b8000478a30013003a006220e10041
:1008d00015003e000d0039008301d1000281d300d4
:1008e0008180d3008301d1000281d3008180d300b5
:1008f0008301d1000281d3008180d3000538b0008c
:10090000c42add00f300b2008381720007f0a70063
:1009100003f0a0000000060083ff27000200200073
:100920006110b900f9ff370003ff2700f7ff370018
:1009300014002000ab063700f4ff2f00a906370093
:100940001400fa00889fbe008a9fbe008c9fbe00e4
:100950000004be000205be00680047000a90be0009
:100960000890be005f0607000070a7000bf0a10012
:10097000304320009e02900080825200b0fe2f0083
:100980000028e10011003d00b0fc2f000028e1002c
:10099000150034001e0990008e0890007e00900023
:1009a0000501b0000201d1008180d3000080d30096
:1009b0008502e800fbff3a000b00e00084063b00e4
:1009c00060001000e080180081063700f0ff2f0063
:1009d000f1ff27000b00e0007d063b00010028002e
:1009e000000020007a0637006000b8007806370063
:1009f0000001be004a0007000470a70003f0a10038
:100a00006509b100160032000d0035006828e100cc
:100a100006003500f0ff2f00f1ff27000300e00083
:100a200013003b000100280000000500000040000a
:100a3000818048008502e900fcff3a000800370089
:100a4000f88f420002003c008000eb00000005002f
:100a50008100d1000080d3008502e800fcff3a004d
:100a60000300e00002003b0060001000e08018007e
:100a7000000006001400fa00889fbe008a9fbe0096
:100a80008c9fbe000004be000205be006800470047
:100a90000a90be000890be00120607000070a70072
:100aa0000bf0a1000bf8a30016003a009e02900084
:100ab0003043200080825200b0fe2f000028e10069
:100ac0000d003c00b0fc2f000028e1000d003400b8
:100ad0001e0990008e0890007e0090000501b00075
:100ae0000201d1008180d3000080d3008502e8009c
:100af000fbff3a0036063700010028000000200006
:100b0000330637006000b800310637004f89de0039
:100b1000820178004e0637006011b8008706370062
:100b2000c70ade00f107b200f50fb200080032007c
:100b3000e1cf4200020032000170a0002400050055
:100b4000810f700001003200040805004400050018
:100b5000810f700002003a00140005008502e900d0
:100b60000000400081c04800fcff3b000170a00075
:100b7000240005001400fa00889fbe008a9fbe0072
:100b80008c9fbe000005be000206be006800470044
:100b90000c90be000a90be00d20507006400e10080
:100ba0001a00320016003e006100e1001a00320017
:100bb0006e049000fe0490000e0b90009e0b9000bf
:100bc0006011b8009e0590000b38b100d5012000df
:100bd00082817100610164008703d1000683d30024
:100be0008984d3000884d3008502e900f8ff3a0025
:100bf000810607000df0a70001f0a000f405370002
:100c000001fc270000002000faff370001f8270050
:100c100000002000f7ff37006000b800f5ff370044
:100c20008c9fbe008a9fbe00889fbe00ca0107003d
:100c30000bf0a200040037008c9fbe008a9fbe000c
:100c4000889fbe00c40107000c48e1000b003a0079
:100c50000c40e100020032008b0107004000370029
:100c60008b066d003e0032000af0a100f301200067
:100c7000f2ff2f006110b900390037000c40e1008d
:100c8000370032000940e100010036007e01070014
:100c90008a856d00cf5dde000b0575000006eb0058
:100ca0008804fd0089045400010032007d01070022
:100cb0000a04e00011003a000800e00028003200b9
:100cc00004004000858048000601490087814900f2
:100cd0000358a300180032008301d1000281d30021
:100ce0008180d3000080d3000c86d300010039003e
:100cf000610676000804e800180037000400500080
:100d0000858058000601590087815900060031008e
:100d10000af0a2000c06ea0060001800e08018004b
:100d200060011900e081190003003a000004eb00a3
:100d30000005eb000a0037000348a30007003a0053
:100d40000c0646000000480081804800020149006e
:100d5000838149000804e900f7ff3700af0137003d
:100d6000c90137008c9fbe008a9fbe00889fbe00cd
:100d7000790107000b056d000940e1000a003a0007
:100d80000800e000020032000c40e10006003a00da
:100d90000af0a1000c047800f3012000f2ff2f00fc
:100da0006110b9009d0037000c40e1009b0032004b
:100db0000800e000990032000c48e10002003a000f
:100dc0000004eb00030037000900e00004003a00d3
:100dd0000c0478006000b8006011b8008f00370084
:100de0000348a30006003a0000004000818048004c
:100df00002014900838149000804e900f8ff370037
:100e00000748a30006003a000402420085824a0017
:100e100006034b0087834b008904e900f8ff370085
:100e2000fd3f20008d845400090454008a1f78007f
:100e3000881f78000004780081047800020578009b
:100e4000830578006000b8006011b8000d04200030
:100e5000050037000804440089844c000a054d0051
:100e60008b854d00080031000404540085845c002b
:100e700006055d0087855d008381d2008d06d30065
:100e8000f4ff3b00070037000404440085844c0055
:100e900006054d0087854d008381d2008d06d30065
:100ea000ecff3b000804440089844c000a054d0017
:100eb0008b854d00080031000404540085845c00db
:100ec00006055d0087855d000281d2008d06d30096
:100ed000f4ff3b00070037000404440085844c0005
:100ee00006054d0087854d000281d2008d06d30096
:100ef000ecff3b000804440089844c000a054d00c7
:100f00008b854d00080031000404540085845c008a
:100f100006055d0087855d008180d2008d06d300c7
:100f2000f4ff3b00070037000404440085844c00b4
:100f300006054d0087854d008180d2008d06d300c7
:100f4000ecff3b000804440089844c000a054d0076
:100f50008b854d00080031000404540085845c003a
:100f600006055d0087855d000080d2008d06d300f8
:100f7000f4ff3b00070037000404440085844c0064
:100f800006054d0087854d000080d2008d06d300f8
:100f9000ecff3b000b00e00004003d0004044400b3
:100fa00085844c0006054d0087854d000006eb004a
:100fb0008301d1000281d3008180d3000080d3005f
:100fc0000c86d3008301d1000281d3008180d3003d
:100fd0000080d3000c86d300890474008b05750053
:100fe0008b84740001003200610676004f047800a3
:100ff0004f0578000348a30007003a000c0646009e
:1010000000004800818048000201490083814900b6
:101010000804e900f7ff3700000137001a01370024
:101020008c9fbe008a9fbe00889fbe00ca0007003a
:101030000b056d008a0578000c40e10008003a00bd
:101040000900e00082003a000af0a1000c047800d8
:10105000f3012000f2ff2f006110b9007c0037007f
:101060000c48e10004003a00870007000900e00096
:1010700077003a00f4ff37000800e0007400320007
:101080000900e00002003a007f000700700037000e
:10109000ed3f20008d845400090444008a1f78002d
:1010a000881f7800871f7800861f7800851f7800ca
:1010b000841f7800cb19dd00c515de008b8571001b
:1010c0004b11dd00450dde000a057100cb08dd0087
:1010d000c504de00898470004b04dd000440b800c4
:1010e0000546b8008c80400060814e00044eb80078
:1010f0008c8040000d0149008001eb000318ad0019
:101100000456b8000c0141008d8149000002eb003b
:101110000420ad000646b8000c0141008d81490055
:1011200060024a00054eb8000c0141008d81490063
:1011300060024a000556b8008c8141000d024a0049
:101140008002eb000528ad000746b8008c81410005
:101150000d024a00e0824a00064eb8008c81410030
:101160000d024a00e0824a004f0678000c5eb8008b
:101170008c8141000d024a00e0824a000656b80008
:101180000c0242008d824a000003eb000630ad00e5
:10119000074eb8000c0242008d824a0060034b00eb
:1011a0004f0678000c5eb8000c0242008d824a00a7
:1011b00060034b000756b8008c8242000d034b00c1
:1011c0008003eb000738ad004f0678000c5eb800d6
:1011d0008c8242000d034b00e0834b004f067800e9
:1011e0000c5eb8000c0343008d834b004f04780065
:1011f0004f0578000748a3000a003a0000004000ad
:1012000081804800020149008381490004024a00ac
:1012100085824a0006034b0087834b000804e900df
:10122000f4ff370003067800808070008280700031
:10123000010032006106760087017800060178001f
:101240008500780004007800880478007800370072
:101250008d0037008c06460002003a000000a60010
:101260000000060060004800e0804800600149007e
:10127000e08149000350a600000006008301d10070
:101280000804e800000006000002fd008102fd00e5
:101290000203fd008303fd008804fd008a05fd00b4
:1012a000000006007048e1001a0039007d032000ac
:1012b0000d48e1000a0039008105700083067100c5
:1012c0008c8575008d8575000006eb001cd8e70045
:1012d000610676006000b8006011b80000000600ea
:1012e0007048e1000b0039008c057800000678009a
:1012f0000100780082007800030178008001eb0093
:1013000013d8e70061067600f0845400f4ff3a0039
:10131000000006006160e1000c48ad00f08514009b
:101320008b06dd000966de000d0676008b0edd0003
:101330000900de000d0070008b16dd008908de005c
:101340008d8070008b1edd000911de000d01710023
:101350008919de00000006000d002800fc7f200037
:101360000d856100441cde00ef8161000c04640007
:10137000010032000340a0008d856300c43cde0004
:10138000ef8363008c846400010032000740a000fa
:101390000c40e10006003a00ef866100828676008c
:1013a00081867600808676000100320018003700c2
:1013b0000c48e10007003a00ef866300868676005d
:1013c000858676008486760002003200aeff070034
:1013d0000f0037000348a30005003a0081067000a3
:1013e0008286760083867600010032000804e800d9
:1013f0000748a30005003a0085067200868676003d
:1014000087867600010032008904e80000000600ab
:10141000cf047800cf0578001b0037000002780069
:101420008102780002037800830378008804780042
:101430000cf0a70087ff0700fd7f20000d40e100b2
:10144000040035000d0478006000b8006011b80099
:101450000d0037000800e0000b003c00040078009d
:10146000850078000601780087017800e184140087
:101470008cff07000cf0a70076ff07000004eb00cc
:101480000340a7000804e8004444dd006fc5610084
:10149000880175004f04be004f05be004f06be0018
:1014a0000000060007f82700078361000638e10006
:1014b00004003a00f707200087836100870371006a
:1014c00001003a0003f0a200889fbe008a9fbe0080
:1014d0008c9fbe00470ade000480a100c71ade0010
:1014e0000580a1000700280007856000878561004e
:1014f000f70f20000720e1009e0032000728e100de
:101500009c003200010678000400e000b4003200c4
:10151000f7072000878060000170a0000500e00050
:10152000c0003200f7072000878161000370a0002f
:10153000050652000f003a000b50e1000b0032008c
:101540000308e10002003a000200e1007e003200e0
:101550000204500083845800040031000001fd00a3
:101560008101fd008402fd008a05fd006044b80091
:10157000210037000520e10005003d000001fd00cd
:101580008101fd008402fd008a05fd000506520070
:101590007a60e100050035000170a1004722dd00fe
:1015a000848070008a807000630037006044b80057
:1015b000ef02660007ff2f00070666000500e00047
:1015c00006003400f08312008714dd000511de00f0
:1015d000071bdd00060171008519de007060e10067
:1015e00005003500090478008204780003017800c2
:1015f0008001eb00700656000b50e10003003a003a
:10160000020040008380480004003700600414009a
:10161000e0841c0002005800838058000188a30069
:10162000060032008100d1000080d3008984d300fd
:101630000884d3000402e800270037000178a300e3
:1016400025003a000100e000030032008186cf004f
:10165000698656000a0037008c0020000000e00078
:1016600004003a0009007800880478000004eb00c8
:10167000700252008086cf000d0646000c06e9007d
:101680007060e100060035008000780009007800f5
:10169000880478000004eb007006560070025200c7
:1016a0000c00e0000c0034008c08dd00f003160094
:1016b0000703de00868070000c00dd00074bde00b3
:1016c000060070008c4cdd000743de008684740049
:1016d0000c44dd000c0252006120e10020003500c6
:1016e000610160000700280087816400f7ff270080
:1016f00087836400070374000300e00006003200e3
:1017000082037300040032000000e800e08048001b
:101710000188a3000e003a00f70f20000720e10027
:101720004a003d000170a1004722dd0081007200e7
:101730008a8070000000be004f06be004f05be004c
:101740004f04be00000006006000b800faff37003a
:101750008100d1000080d3000402e800eeff3700d2
:101760000401780089017400a10107008a807000db
:10177000f1ff3700f7010700070278000001fd00c4
:101780008101fd00f30107008702780085037200e4
:101790000778a300040032000001fd008101fd0074
:1017a00006020700e4ff3700850362000768a30014
:1017b000080032000b50e10003003200f0ff2f0060
:1017c000f1ff2700dcff37000001fd008101fd0073
:1017d000d9ff37000468a300d7ff3200faff3700b3
:1017e000f8ff2700888360000b003a000000e0004b
:1017f00009003a0083036400828373000200320010
:101800000200be00ccff37000b50e100ceff3a00d3
:101810000200be00c8ff37001400200081006400f1
:101820003eff3700f8ff27008883610004003a007c
:101830000200e00002003a008c007800beff370092
:10184000150020008301640039ff370001f82700ec
:101850000000200081007500b7ff3700889fbe00a0
:101860008a9fbe008c9fbe001b0020000202be00ab
:101870000586680006002800060666004709de00a7
:10188000f20fb200820032000243e8008000320012
:10189000c729de00f30fb2007d0032000343e800e9
:1018a0007b003200f107b2000170a000f507b20022
:1018b0000570a000c708dd004903de0086807000c7
:1018c0004700dd00c72add004923de008682720062
:1018d0004722dd00030551000403500085835800b2
:1018e0000300310000004000818048000a05e90043
:1018f0008c1f78008a9fbe0004005000858058002d
:101900000402420085824a000000400081804800b5
:101910000005eb000004be006033b8000406be0002
:101920000d48e10056003100110009004dccd800ef
:101930000c01b8000d02b8008481410060824a00a9
:101940008283530003045c0084845c0060055d00b6
:101950000a00e00025003a00800578000d40e10013
:101960004900310088007800070078001100090064
:101970004d88d8000c01b8000d02b80084814100e8
:1019800060824a006003110083835b0004045c00f2
:10199000e0845c000900e00021003a004f01be0035
:1019a0000300e0002b003200e30160000706730033
:1019b0008c81710001003200640070004200de0082
:1019c0004e5edd000c007000c258de0001e0a00099
:1019d00083010700cf017800818071004f06be00af
:1019e0004f05be004f04be00000006008c8343007c
:1019f0000d044c00e0844c0060054d000000e9003f
:101a00000a00e000d4ff32008c8343000d044c0038
:101a1000e0844c0060054d000000e900ceff370077
:101a20000c0343008d834b0060044c00e0844c00a9
:101a30000000e9000900e000d8ff32000c03430079
:101a40008d834b0060044c00e0844c000000e900f2
:101a5000d2ff37004200de004e5edd000c00700059
:101a6000c258de0001e0a000cf0178000300e000d2
:101a7000daff320060001000e0801800d7ff370066
:101a8000f0ff2f00aaff3700f0ff2f00b9ff37004b
:101a90000404be002f010700870678000004fd0043
:101aa0008104fd002b010700078366000678a30070
:101ab000030032000960a7000800be002c003700b8
:101ac0000d78a300020032000800be002800370095
:101ad0000778a30026003a0001f0a10009f0a10058
:101ae0000668a30003003200f1ff2700f0ff2f007b
:101af000baff37000d68a300030032000800be00e3
:101b00008c807000b5ff37000768a30007003a001b
:101b10000648a30003003200f1ff2700f0ff2f006a
:101b2000aeff37000d48a300030032006000b8008c
:101b30008c807000a9ff37000748a3000400320022
:101b400001f82700000020008c807000a3ff370000
:101b5000760107000004fd008104fd000205780005
:101b6000720107000802be008a01780059ff3700a1
:101b70000160a000120220002286880097ff370033
:101b80000100e000120032000500e0001000320009
:101b9000889fbe008a9fbe008c9fbe000006eb009f
:101ba00001f8a3000300320060001000e08018007c
:101bb0000cf0a00005f8a300030032006002120040
:101bc000e0821a000cf0a2008005eb0041ff370014
:101bd0006000b800020005000383680007002800c9
:101be00007036300470ade000480a100c71ade0075
:101bf0000580a100f70f20000720e100420032001d
:101c00000728e10040003200889fbe008a9fbe0086
:101c10008c1f7800f107b200f307b2000400e00067
:101c2000640032000170a0000500e000680032008e
:101c30000370a00085054200eb07b1000204b80064
:101c40000302b8008484440060854a00020ab80098
:101c5000848444000a854a00030ab800040545004c
:101c6000040033000804d0008984d2000a85d20021
:101c70008b05e9006158e1003d00350002102000ad
:101c8000090161000308200089816100f707200035
:101c90008783640008867300c84cde00c853dd00eb
:101ca000878474004855de000300e000060032001f
:101cb00082037600040032008904e80060054d00cc
:101cc0000a88a3000c003a00f70f20000758e10033
:101cd00044003d000a70a100c75ddd000a85750063
:101ce0008a007300090078004f0678004f05be0097
:101cf0004f04be00000006000a05d1008984d3000d
:101d00008b05e800f0ff3700881f78000604780094
:101d100090000700070278000001fd008101fd002e
:101d20008c00070087027800850372000778a30003
:101d3000050032000001fd008101fd009f00070049
:101d40004f04780000000600850372000748a300d6
:101d500003003200f0ff2f00f1ff2700f8ff3700eb
:101d60000000200001f8270088807000f4ff370091
:101d7000880178004848dd00808171004848de0015
:101d8000c850dd0001007000c850de000604780075
:101d90000b0178001600070088807000d2ff370022
:101da0000500e00005003200170020003a0007009f
:101db0009dff370081037000f9ff3a00860078002c
:101dc0004f0678004f05be004f04be00000005001e
:101dd00083037100f9ff3200270020002e00070066
:101de00094ff370001f8270086807000f4ff370069
:101df0000100e00026003200610111007810e100ce
:101e000023003c006022b8007010e100040035009f
:101e100080027800010078008000eb007001510022
:101e20000200e0000900340070031100062add0002
:101e3000822ade008603dd00878272000200de0057
:101e4000860bdd00070070008208de0084817100cf
:101e5000f4ff2700048262008481710004002800de
:101e6000848262006102600005f0a60000000600a6
:101e700004827100070032000000e800e0804800a2
:101e8000000006000002be006000b800efff37004f
:101e90006000b80000000600889fbe000004eb0050
:101ea0006138e10016003a000100e00008003a0045
:101eb000c800de004800dd00880020000100e000ce
:101ec00003003a00c800de004800dd00680444005a
:101ed0008184cf00e9845400060034008908dd00c5
:101ee000f08314008703de00878070000900dd00a6
:101ef00009044400610214004f04be000000060003
:101f00000300e00008003a00c811de004811dd00bf
:101f1000880020000300e00003003a00c811de0042
:101f20004811dd00680444008384cf00e984540034
:101f3000060034008919dd00f08314008713de00e9
:101f4000878171000911dd0009044400e1021400d9
:101f5000e9ff37002700200001f0a700170020004c
:101f6000470bde00f60fb200040032000643e80023
:101f70000a0032004702b3000000060001037800a7
:101f8000f607b2000603700002003a000703b30030
:101f9000000006008702b30000000600010378007d
:101fa000f607b20006037000020032000770a000be
:101fb000000006000760a000000006000478a300ef
:101fc000040032000578a300030032000168a3007a
:101fd00001003a000200be000160a00000000600ff
:101fe00081017000270032008002eb0001f8a3009d
:101ff0000300320060001000e0801800150020008f
:10200000f40720000202420020003400f703200001
:10201000870360000604200000036300020820001c
:10202000000161004700de00c909dd000080710089
:10203000c708de000600e0000800320087037100d8
:10204000060032001000b0000180b0000188a3003b
:1020500002003200c108de000402e800f107b2000d
:10206000f30f20000320e10003003d004722dd00c4
:10207000810072002900370001f827000000eb0002
:10208000260037006000b800000006006802120059
:102090007f20e100020034006000b8001f0037001c
:1020a0006011b8007020e100040035008001780064
:1020b000010078008000eb00700252000400e00094
:1020c00009003400f00312000719dd008419de0056
:1020d0000703dd00868171000400de00070bdd00d0
:1020e000060070008408de00f7ff2700838363008a
:1020f0008703710006002800030363000700320015
:102100000700e00003003a006101600002817300f3
:10211000020032001000b0000180b0000500a600ef
:102120000000060001f0a000000006004f0ade00db
:102130004709de00f107b200f20fb2000b003200d7
:10214000f207b1000170a000c708dd00c901de0080
:10215000838070004700dd000400a6000000060038
:1021600060001000e080180000000600810f700081
:1021700001003a00000006008182cf000500e00067
:1021800010003e008082cf00ee8242007028e10005
:102190000400390007003e00800078000000eb00da
:1021a0000e003700708312008600de000500dd009f
:1021b0000a003700708352008600dd000000eb004b
:1021c00006003700e28252008508dd0070831200ad
:1021d0000603de00868070000500dd007507b00094
:1021e0000501ea000400a6000000060060001000df
:1021f000e080180000000600889fbe008a9fbe0095
:102200008c9fbe000404be000605be00809fbe0079
:10221000829fbe0021000700040678000800be006f
:102220000a01be001d000700840678004f03be00af
:102230004f02be008d4f76007fb097001300330031
:10224000f0ff2f008b8f6b0006003b000d06660031
:102250000c00a7000a00370007f0a60010002000bd
:102260000a003700880f5200898f5a008a0f5b00de
:102270008b8f5b00030039001000200001003e003e
:102280000000200007f0a7000000ea004f06be0093
:102290004f05be004f04be000000060005ff2700ea
:1022a00005826100070032000428e10001003200cd
:1022b000240005000600070001003a004400050064
:1022c0000408050002000700f9ff3a0014000500a9
:1022d0006f826100810270008502710085027200c8
:1022e000000006005002be00e40050005003be0093
:1022f0004439de00f700b200f37f200003016100e3
:10230000090032000218e10016003a00850172004f
:1023100083017300838173000008200015003a00d8
:102320004000200013003700850172008301730014
:102330008381730005003a0004a8be0006a8be0011
:10234000100020000b0037000201e90004024200e7
:1023500085824a0006034b0087834b000748a30091
:10236000f9ff32000740a00004a8be0006a8be0086
:1023700020002000800098009200980000000600d5
:10238000680447000294be000094be00fc044700ad
:102390008694be008494be0009007800d1ff070037
:1023a00008007800cfff070099007800814f700087
:1023b0000b003b000800be00e90007004f00b10021
:1023c00003003700f3ff2700f2ff2f006110b90070
:1023d0004f06be004f05be004f04be000080fa004d
:1023e00000000600889fbe008a9fbe00841f780000
:1023f000a70007004f00780011003300f0ff2f0006
:10240000838f6c0006003b00040565000a00a700ee
:102410000800370009f0a60010002000080037006f
:10242000820f5400838f5c000300390010002000ed
:1024300001003e000000200009f0a7000000ea00b3
:102440004f05be004f04be000000e0000000060083
:10245000881f7800030478000300e00007003d00b7
:1024600060001000e080180060011900e081190090
:1024700002003b0001f02d000300370004000700bc
:1024800008f0a70003f0a0004f0478000000060049
:10249000889fbe00008270000402710004827100f7
:1024a0002400320036432000c50020008383cf0083
:1024b0000a0039000541b1008283cf0007003900ce
:1024c0000541b1008183cf00040039000541b1000e
:1024d0008083cf00010039000541b10085c353005e
:1024e0006022b800120032000a003b0084827200b1
:1024f000610260008301d1000281d3008180d3009a
:102500000080d3000603e8008743e800f7ff3a00a5
:1025100007003700000040008180480002014900a8
:10252000838149000603e9008743e900f9ff3a0087
:102530005f0007004f04be0000000600889fbe0039
:102540008a9fbe0000827000040271000482710044
:10255000260032000004be000200be006011b80078
:102560006b092000950220000182cf000a0039008b
:102570000541b1000082cf00070039000541b100dc
:102580000982cf00040039000541b1000882cf0064
:10259000010039000541b10005425200120032002d
:1025a0000a003b0082817100610164008100d1005a
:1025b0000080d3008984d3000884d3008b05e80011
:1025c0000442e800f7ff3a0007003700080444001f
:1025d00089844c0000004800818048008b05e90098
:1025e0000442e900f9ff3a00030007004f05be006e
:1025f0004f04be00000006008100200061805500ed
:102600000b003d000b00200061fe2f000100e100e7
:102610001d00340082817100610164008904d100d1
:102620000884d3000000e800faff3a00710020009f
:1026300061006400030070000200600009003200c5
:1026400061044400e0844c000988a50005003200c4
:102650008b05e8006808e10002003a008904d10017
:102660000884d300f20f20000258e10005003d006d
:10267000c75ddd00f907b2008980750008007800a9
:10268000000006000bf827008b0078000000050012
:102690000004be0022f907000003be000405be00ce
:1026a0000200be001ef90700844f750000000600fe
:1026b0001800200057002000080453000d003d00c2
:1026c0000600200097fc2f000740e1001e003400a8
:1026d00084827200610260008301d1000281d30014
:1026e0008180d3000080d3000804e800f8ff3a009e
:1026f00047002000610460000504740004046400c5
:102700000d00320061004000e08048006001490097
:10271000e081490003b8a500070032000603e80085
:102720006538e10004003a008301d1000281d30042
:102730008180d3000080d300f87f20000830e100c2
:1027400003003500080378006000b8006011b8008d
:102750004433dd00f300b200830173000000060083
:10276000e48240001078a3000700320064024000b9
:102770001178a3003400be001401be000500320031
:102780000330a7000000060035007800b50078008f
:102790001501be000330a000000006002000fa0072
:1027a000889fbe008a9fbe008c9fbe00e4b79f003a
:1027b000f5b79f0086bf9f0097bf9f00fbff2700d4
:1027c0008b856300faff2f000a0462008a8462008e
:1027d0000a0563006022b8000600200007ff2700fa
:1027e0000440e10005c8e10006d0e10007d8e1009f
:1027f0000b003e00fbff27008b856100faff2f00d6
:102800000a0460008a8460000a0561000440e10057
:1028100005c8e10006d0e10007d8e1000a00360053
:102820006fb29700ffb297000fbb97009fbb970056
:1028300001f907000004be000205be000800be004a
:102840000a01be001e0037006fb29700ffb297006a
:102850000fbb97009fbb97000602be006033b80015
:10286000e4af9f00f5af9f0086b79f0097b79f002a
:102870000202be006033b800a4af9f00b5af9f0056
:10288000c6af9f00d7af9f000800200009012c00b1
:102890006fad9700ffad97000804450089844d0097
:1028a0006fb69700ffb697000c0474008d84740017
:1028b000e00f5400e08f5c0006003a00ba08070001
:1028c0004f06be004f05be004f04be000080fa0058
:1028d000000006006faa9700ffaa97004e2cde00aa
:1028e00009002000620564008005eb002fab970013
:1028f000bfab97004f3cde000900200008047500c4
:1029000089847500afad9700abb79f003fae9700cd
:102910000cf0a100bcb79f002fb29700bfb2970088
:102920000005720081857200e00f5500e08f5d00a8
:1029300009003a00e20f5400e08f5c00ae00320064
:10294000e20f5400e08f5c00ddff3900e30f54001c
:10295000e08f5c0076003200efab9700a7af9f00de
:102960007fad97000af0a100baaf9f002faa970091
:10297000bfaa97006fb39700ffb3970006067200d7
:1029800087867200e00f5600e08f5e000a003a0072
:10299000610064008000eb00e00f5000e08f580001
:1029a0009a00320080d1220041442500b21f22004b
:1029b00093ff2b00c2ff37000c0020000dff270003
:1029c0002fad9700bfad97008c0f55008d8f5d0028
:1029d00011003a002fb29700bfb297008a0f520041
:1029e0008b8f5a0046003a00e10f5400e08f5c00e4
:1029f00066003200e00f5400e08f5c006800320097
:102a0000e20f5400e08f5c006a003200e30f5400d4
:102a1000e08f5c006c0032002fab9700bfab9700db
:102a20000c0020000d4020000605460087854e0062
:102a30002fb29700bfb29700840f5500858f5d00bd
:102a4000d3ff39000a0020000bff27008a0f520035
:102a50008b8f5a00ceff3200620364008003eb00cc
:102a6000e00f5300e08f5b000b0032002fb39700a4
:102a7000bfb397000a0020000b4020000606450067
:102a800087864d002faa9700bfaa9700840f560093
:102a9000858f5e002b0039006fb29700ffb2970060
:102aa0000fbb97009fbb9700aef80700a60007007a
:102ab0003d080700e10f5400e08f5c002400320065
:102ac000e00f5400e08f5c007dff3200e20f540005
:102ad000e08f5c002000320074c0250045312300e7
:102ae00066622a0017ca23004df8070084d122002d
:102af00045442500b61f220097002400210037001e
:102b0000e10f5400e08f5c0034003200e00f54000d
:102b1000e08f5c0035003200e20f5400e08f5c0073
:102b200035003200e30f5400e08f5c00baff3a003a
:102b300080d1220041442500b21f220093002c00c6
:102b40005fff37006000b8006011b800d9ff3700a0
:102b500003f0a2005aff370074c02500453123005e
:102b600066622a0017ca23002df807000203be0080
:102b70000002be0080d1220041442500b21f220085
:102b80009300240026f807002aff370080d1220096
:102b900041442500b21f220093fe2b0048ff37005e
:102ba00080d1220041442500b21f220093fe230061
:102bb00043ff3700201d220031f32700c2972d006c
:102bc000230024003eff3700201d220031f32700a0
:102bd000c2972d0023002c0039ff37006000b80099
:102be000020020000300280035ff37006000b80015
:102bf0006011b80032ff370080d122004144250027
:102c0000b21f2200930024002dff370080d1220044
:102c100041442500b21f220093ff230028ff370004
:102c20001000fa00889fbe008a9fbe000204be000a
:102c30000802be0005f0a100b61f220097fe230087
:102c4000860f5200878f5a0018003e00d6092a00ce
:102c500067e42300860f5200878f5a000f003e0062
:102c60006022b8000600200007772400f2f7070072
:102c7000c0b79f00d1b79f00e2b79f00f3b79f0096
:102c80006000b8000200200003ff23004f05be00d3
:102c90004f04be000080fa00000006006022b80069
:102ca0006033b800f1030700f8ff3700f6ff2f008c
:102cb000f7fe2700860f5200878f5a000400360067
:102cc0000203be000002be00d5f70700efff370089
:102cd00084fe2f000f024200870407006304600097
:102ce0000fba97009fba97002fbb9700bfbb970002
:102cf0004fb09700dfb097006fb19700ffb197001a
:102d0000e10f5400080032000800e000e5ff320047
:102d1000e20f54000900320018002000881f7800dc
:102d2000ed06070003003700881f7800ea06070059
:102d300003f0a2008f87e900d4ff3700cb03070020
:102d400003f0a200d1ff3700f4ff2f00f5ff2f00a2
:102d5000f6ff2f00f7ff270000006200818062006d
:102d60000201630083816300000006002000fa0076
:102d7000889fbe008a9fbe008c9fbe008e1f780079
:102d8000d4b79f00e5b79f00f6b79f0087bf9f00ad
:102d90000402420085824a0006034b0087834b00f1
:102da00094b79f00a5b79f00b6b79f00c7b79f0015
:102db000e00f5200e08f5a00e00f5b00e08f5b00f5
:102dc00024003200f4ff2f00f5ff2f00f6ff2f0044
:102dd000f7ff27005fb49700efb497007fb5970027
:102de0008fbd970008046200898462000a056300b1
:102df0008b8563006022b8000600200007ff2700d3
:102e00000440e10005c8e10006d0e10007d8e10078
:102e100010003e00d0af9f00e1af9f00f2af9f00d7
:102e200083b79f00441cde006055b8008004eb00af
:102e300098af9f00a9af9f00baaf9f00cbaf9f0094
:102e4000f87f20009fae97000d066400880f5600a3
:102e50000e003a005fb29700efb297007fb3970081
:102e60008fbb97006ef807000203be000002be0091
:102e7000bcf707004f0778004f06be004f05be00a5
:102e80004f04be000080fa0000000600000240006f
:102e900081824800020349008383490094af9f0068
:102ea000a5af9f00b6af9f00c7af9f001fb49700ac
:102eb000afb497003fb59700cfb597000440e1004d
:102ec00005c8e10006d0e10007d8e100090039009b
:102ed0000440e10005c8e10006d0e10007d8e100a8
:102ee000e4ff3a006022b8006033b8004cf80700f5
:102ef000e0ff37000c00e0009b003a005fac970059
:102f0000efac97007fad97008fb59700cd00200004
:102f10000804d0008984d2000a85d2008b85d200b3
:102f20008d06e900faff3a00e00f5400e08f5c00e4
:102f3000e00f5d00e08f5d0085003d00e1061600ba
:102f40005faa9700efaa97007fab97008fb3970017
:102f50008d06e900050033000402d0008582d2000e
:102f60000683d2008783d200f9ff370094b79f0011
:102f7000a5b79f00b6b79f00c7b79f005fb2970085
:102f8000efb297007fb397008fbb9700443cde0001
:102f9000fd7f2000888666000d00e0008e003a006c
:102fa0000605be000404be00ce0020000804d000c8
:102fb0008984d2000a85d2008b85d2000e07e900f1
:102fc000faff3a00e00f5400e08f5c00e00f5d0074
:102fd000e08f5d007a003d00618416005fb29700cb
:102fe000efb297007fb397008fbb97000804e9000a
:102ff000050033000402d0008582d2000683d2008f
:103000008783d200f9ff370094af9f00a5af9f00e0
:10301000b6af9f00c7af9f001fb49700afb4970033
:103020003fb59700cfb597001faa9700afaa9700aa
:103030003fab9700cfab97000404540085845c003d
:1030400006055d0087855d00d8b79f00e9b79f0042
:10305000fab79f008bbf9f008d0f560072003c0097
:10306000e00f5400e08f5c00e00f5d00e08f5d003a
:1030700009003500e00f5400e08f5c00e00f5d00b8
:10308000e08f5d0097ff320098b79f00a9b79f00bf
:10309000bab79f00cbb79f001fb29700afb297009f
:1030a0003fb39700cfb397004438de006011b800fb
:1030b0008000eb00e00f5000e08f5800e00f590057
:1030c000e08f5900780032000c00e00084003400ea
:1030d0006000b8000200200003ff2f000000420043
:1030e00081804a0002014b0083814b006164b9007a
:1030f000614db900c445dd000005eb006044b80037
:1031000000007400818074000201750083817500e5
:103110006044b8000a0020000b0028005faa970056
:10312000efaa97007fab97008fb397000804620067
:10313000898462000a0563008b85630000007400c7
:1031400081807400020175008381750049ff37009a
:103150000c06e9000804d0008984d2000a85d20058
:103160008b85d20070ff37005faa9700efaa970007
:103170007fab97008fb39700fb0020008b85630027
:10318000faff2f000a0462008a8462000a056300c5
:103190006022b8000600200007012000040474002b
:1031a00085847400060575008785750098b79f00b3
:1031b000a9b79f00bab79f00cbb79f006fff37003a
:1031c0008d06e9000804d0008984d2000a85d20067
:1031d0008b85d2007bff3700f8ff2f00f9ff2f000f
:1031e000faff2f00fb0020005fb29700efb29700bc
:1031f0007fb397008fbb9700040264008582640050
:1032000006036500878365006044b8000a0020005b
:103210000b01200008027200898272000a03730009
:103220008b83730078ff37005fb49700efb497008b
:103230007fb597008fbd9700e00f5400e08f5c00d2
:10324000e00f5d00e08f5d0009003500e00f5400e5
:10325000e08f5c00e00f5d00e08f5d0021ff320039
:1032600098b79f00a9b79f00bab79f00cbb79f0040
:103270001fb29700afb297003fb39700cfb397004c
:103280000402d0008582d2000683d2008783d20058
:1032900094b79f00a5b79f00b6b79f00c7b79f0020
:1032a0000c06e9005cff37001fb49700afb497002d
:1032b0003fb59700cfb597000804d0008984d200ad
:1032c0000a85d2008b85d20098b79f00a9b79f00ce
:1032d000bab79f00cbb79f000c06e9006eff37001e
:1032e000610616001fb09700afb097003fb197007e
:1032f000cfb197000c06e900050033008301d1002f
:103300000281d3008180d3000080d300f9ff370011
:103310007fff37002000fa00889fbe008a9fbe0012
:103320008c1f78000205be000004be004418de00b9
:10333000fc7f20000006660020432000800f56001e
:1033400026003c00f8af9f0089b79f009ab79f0006
:10335000abb79f00e00f5400e08f5c00e00f5d0012
:10336000e08f5d0024003d000800be000a01be00a1
:1033700003f0a200f0b79f0081bf9f0092bf9f00a3
:10338000a3bf9f006022b80006002000073324007e
:103390007fb097008fb897001fb99700afb997001b
:1033a00025f60700d43f2000840f560017003c008c
:1033b000b0af9f00c1af9f00d2af9f00e3af9f00af
:1033c0006022b8006033b8000800be000a01be00e9
:1033d00013f707000004be000205be000800be008f
:1033e0000a01be004f0678004f05be004f04be0024
:1033f0000080fa0000000600f8b79f0089bf9f0018
:103400009abf9f00abbf9f00deff37006022b8006d
:10341000060020000733240001f607007fb2970062
:103420008fba97001fbb9700afbb9700fcf5070052
:10343000b0b79f00c1b79f00d2b79f00e3b79f000e
:103440000203be000002be007fb097008fb8970055
:103450001fb99700afb99700f7f507000004be0049
:103460000205be006022b8000600200007fe23000f
:103470003fb09700cfb097005fb19700efb19700d2
:1034800002f507000000e000130034006022b800dd
:103490000600200007ff23000800be000a01be004e
:1034a000dff507000004be000205be007fa89700fc
:1034b0008fb097001fb19700afb19700e00f500099
:1034c000e08f5800e00f5900e08f5900c3ff3d0026
:1034d0000bf0a200c1ff37006022b80006002000f8
:1034e00007fe2b003fb09700cfb097005fb1970069
:1034f000efb19700e0f407000000e000ebff3c00b4
:103500006022b8000600200007ff23000800be006c
:103510000a01be00c8f50700e2ff37001000fa00fc
:10352000889fbe008a9fbe000205be000004be0048
:103530000a02be000400be0001f0a100b21f22007a
:1035400093fe2300820f5000838f58002e003e0010
:10355000f2ff2f00f3e42300820f5000838f580006
:103560001f003e006000b80002ff270085006100d8
:10357000e00f5000e08f580012003a006022b800bf
:1035800006002000078723000800be000a01be00d5
:10359000a3f607000002be000203be00c4b79f00ee
:1035a000d5b79f00e6b79f00f7b79f000800be00a1
:1035b0000a01be004f05be004f04be000080fa00a5
:1035c000000006006022b8000600200007772400f3
:1035d0000800be000a01be0097f50700edff3700a6
:1035e000801feb006022b8006033b8000800be0006
:1035f0000a01be00b80407000205be000004be00b8
:103600008f87e900e9ff3700f2ff2f00f3fe270064
:10361000820f5000838f5800080036000802be0059
:103620000a03be000800be000a01be007cf50700c8
:103630000004be000205be00dcff370084fe2f0040
:103640000f0242000800be000a01be002a02070065
:10365000630460000fba97009fba97002fbb9700d2
:10366000bfbb97004fb09700dfb097006fb19700d6
:10367000ffb19700e10f54000c0032000800e00099
:1036800007003200e20f54000c00320077010700ff
:103690000205be000004be000bf0a200c3ff37000d
:1036a00018002000881f7800d2ff37006f01070044
:1036b0000205be000004be00bcff37001800200059
:1036c000881f7800840407000205be000004be00c5
:1036d0000bf0a200caff3700f6874700889fbe00a4
:1036e0008a9fbe008c9fbe008e1f7800b0b79f00df
:1036f000c1b79f00d2b79f00e3b79f000204be008e
:103700000802be003fb19700cfb197006033b80008
:1037100000ff2700890360000000200001ff270050
:10372000800f5300818f5b001c003a003fb297006e
:10373000cfb297005fb39700efb397000400be00cd
:103740000601be0036f607000203be000002be00fe
:103750003fb09700cfb097005fb19700efb19700ef
:1037600035f50700b0b79f00c1b79f00d2b79f00e3
:10377000e3b79f003fb09700cfb097005fb19700cd
:10378000efb197004f0778004f06be004f05be000f
:103790004f04be006f01b10000000600e00f5400ae
:1037a000e08f5c0017003c000800be0001f0a100a3
:1037b0000200700083807000e00f5000e08f58001e
:1037c000ecff3200e00f5400e08f5c000d003d0084
:1037d0001002200060a988003fb29700cfb2970086
:1037e0005fb39700efb397000400be000601be0070
:1037f0000bf507000203be000002be0059f50700ea
:10380000d8ff370044c8de00cfc8de00e00f50000c
:10381000e08f5800f00032000003be00f63fb10018
:103820000780b10004007800ef8062000140a00032
:10383000610263008002eb00e00f5200e08f5a004b
:103840000800320000004000818048004f1ade006e
:10385000050020000000420081804a000201410072
:10386000838149008786d1000686d300fcaf9f0084
:103870008db79f004f1ade000500200000004000b9
:10388000818048000400400085804800020141001a
:10389000838149006c0120000600200007022000ff
:1038a0006055b8006022b8000404430085844b00d2
:1038b000800f5400818f5c0006003c00080243002a
:1038c00089824b0008005000898058000a05430097
:1038d0008b854b0000004000818048004f1cde00bb
:1038e000090020000000440081804c0002014100da
:1038f000838149008703d1000683d3000c06e900c9
:103900000c00e000e8ff3a000e0220006044b8001e
:103910006033b80096b79f00a7b79f000c00200047
:103920000d002800bcb79f00cdb79f003fb39700a4
:10393000cfb397001fb69700afb6970006034600b7
:1039400087834e00f6b79f0087bf9f00840f50000b
:10395000858f580006003c00840f5000858f58006a
:1039600029003a00820f5300838f5b0026003e003f
:103970007fb397008fbb97003fb69700cfb69700f5
:103980000603460087834e0096b79f00a7b79f00a7
:103990007fb397008fbb9700e00f5300e08f5b0071
:1039a00094003d001fb69700afb69700e00f560099
:1039b000e08f5e008f00350061034200e0834a0023
:1039c00004005000858058007fb297008fba97009e
:1039d000820f5200838f5a000200360061005000af
:1039e000e08058007fb697008fbe97000c01510011
:1039f0008d8159003fb29700cfb297000804420072
:103a000089844a000602be004f1bde00070020002a
:103a10000000400081804800060040008780480088
:103a200002014100838149003fb39700cfb3970063
:103a30008703d1000683d300b6b79f00c7b79f00a6
:103a40000e07e9000e00e000b8ff3a000201700026
:103a500083817000e00f5100e08f590014003200a4
:103a600094352f00852f2c00f6e12600571a2000f0
:103a70006000b8000200200003ff230068f4070084
:103a80006022b8000600200007ff23007ff3070034
:103a90000000e00006003500e10f4400e08f4c001c
:103aa00056003a0061054500e0854d006044b800cd
:103ab0008b82d1000a82d3000000200001fe230087
:103ac00004024000858248008904d1000884d300a4
:103ad000610165008001eb00e00f5100e08f5900ab
:103ae0000100320009f0a0007fae97008fb697006a
:103af000c460dd00000020000000420081804a0018
:103b00004f89de00820178000001be006000b8002d
:103b100000027400818274000203be00b4b79f00eb
:103b2000c5b79f00d6b79f00e7b79f0011ff3700ca
:103b300075035300e0835b00cb1ade00451cdd00fb
:103b40004b12de0004027400c511dd0002002000eb
:103b5000e00f5200e08f5a00f5ff32008004eb00c6
:103b600099b79f004cfe2f000f064600708e620032
:103b70001fb49700afb49700e00f5400e08f5c00d3
:103b80001700320061055000e08558000102200056
:103b9000808050000204be008100e9000300330071
:103ba0008904d1000884d300fbff370004027400ad
:103bb00085827400800478008904e90003003300e2
:103bc0000201410083814900fbff37000a005300d6
:103bd0008b805b0010ff37006033b800dcff3700dc
:103be0000402420085824a0061004000e0804800f3
:103bf000daff37000403be0071ff370094352f0051
:103c0000852f2c00f6e12600571a20006000b8002e
:103c10000200200003ff230007f407006022b80021
:103c20000600200007ff230018f307000000e00053
:103c300008003400e20f4400e08f4c0002003a001c
:103c400061054500e0854d0062044400e0844c00bd
:103c500097ff370061004400e0804c0000047800ca
:103c60000800a1008104780091ff37003000fa00bd
:103c7000889fbe008a9fbe0080bf9f0091bf9f00ab
:103c8000a2bf9f00b3bf9f0084af9f0095af9f006e
:103c9000a6af9f00b7af9f000203be000002be00a8
:103ca000dff407000205be000004be000203be00f0
:103cb0000002be00daf40700c0b79f00d1b79f0032
:103cc000e2b79f00f3b79f006022b8000600200013
:103cd00007fe23000800be000a01be00d0f4070062
:103ce00080b79f0091b79f00a2b79f00b3b79f0016
:103cf0000203be000002be006000b8000200200007
:103d000003ff2300c6f30700c0af9f00d1af9f00a1
:103d1000e2af9f00f3af9f00448d230085e82b00a6
:103d200096ae2f0087da2b000800be000a01be0005
:103d3000bbf40700441c2b0045db2b00e6e92e00fa
:103d400017e22300bcf307000802be000a03be000e
:103d5000b3f40700d42a2500c5092800f6e427009b
:103d600027e92300aef30700c0a79f00d1a79f005b
:103d7000e2a79f00f3a79f004fb29700dfb2970022
:103d80006fb39700ffb397000400be000601be00aa
:103d9000a3f407000203be000002be004fa097007c
:103da000dfa097006fa19700ffa197009cf4070088
:103db000c0b79f00d1b79f00e2b79f00f3b79f0045
:103dc00004592100b59c2100061a2000a7ef23000a
:103dd0000800be000a01be0091f407007417250018
:103de000156c2100c6162c0067f523008cf3070024
:103df0000802be000a03be0089f40700c45425006f
:103e0000555525005655250057fa23008af307001b
:103e10000802be000a03be0081f407000203be00d0
:103e20000002be004fb09700dfb097006fb197005f
:103e3000ffb1970080f307000802be000a03be002e
:103e400077f407000205be000004be000faa970029
:103e50009faa97002fab9700bfab97000fb89700b2
:103e60009fb897002fb99700bfb997006cf407006f
:103e70000203be000002be000800be000a01be0030
:103e800067f307000205be000004be004faa9700ba
:103e9000dfaa97006fab9700ffab97006000b800f8
:103ea0000200200003ff23005df307000fb297001c
:103eb0009fb297002fb39700bfb3970058f3070046
:103ec0000203be000002be000800be000a01be00e0
:103ed00059f307004faa9700dfaa97006fab97002e
:103ee000ffab970054f307004f05be004f04be0020
:103ef0000080fa0000000600ef02b000889fbe00bc
:103f00008a9fbe008c9fbe008e1f78000205be00f7
:103f10000004be00840678004f18de00000678001a
:103f20000a02be00e4af9f008501780003f0a10003
:103f3000f3af9f00a0a72600f10024006fa997000f
:103f4000ffa99700800f5100818f59008d003e001e
:103f500004007800ef806200b21f2200930020006e
:103f6000820f5000838f580029013200c0972d0026
:103f7000210024006faa9700ffaa9700800f52002b
:103f8000818f5a0043003e000400200005442500b4
:103f9000b61f220097ff23000800be000a01be00e2
:103fa0000c00e00021003a001df307000205be00ee
:103fb0000004be001433260025a6210016462b005f
:103fc00007dd230016f307000203be000002be0057
:103fd000809ebe008296be000800be000a01be00a0
:103fe0000ff307001433260025a6210016462b00e8
:103ff00007dd23000af30700c0069800d1069800e9
:10400000e2069800f30698001000200080b79f0099
:104010000fb097004f0778004f06be004f05be0057
:104020004f04be00ef02b1000000060002f30700db
:104030000205be000004be001433260025a62100a0
:1040400016462b0007dd2300fbf207000203be002b
:104050000002be00809ebe008296be000800be0028
:104060000a01be00eef207001433260025a6210047
:1040700016462b0007dd2300eff20700c00698006c
:10408000d1069800e2069800f30698000080eb0045
:10409000deff37000400200005442500b61f220083
:1040a000970024000800be000a01be000c00e000da
:1040b0001a003a00daf207000205be000004be0052
:1040c0001433260025a6210016462b0007de230008
:1040d000d3f207000203be000002be00809ebe00b5
:1040e0008296be000800be000a01be00ccf20700a6
:1040f0001433260025a6210016462b0007de2300d8
:10410000c7f20700c0069800d1069800e2069800a2
:10411000f306980020002000bcff3700c6f207001d
:104120000205be000004be001433260025a62100af
:1041300016462b0007de2300bff207000203be0075
:104140000002be00809ebe008296be000800be0037
:104150000a01be00b2f207001433260025a6210092
:1041600016462b0007de2300b3f20700c0069800b6
:10417000d1069800e2069800f3069800e0ff2f00b1
:10418000a2ff3700b0632400c10124006fa997008b
:10419000ffa99700800f5100818f590095003e00c4
:1041a000c0db2f0051012400800f5100818f590086
:1041b0004d003e00c0972d0021012400800f5100ca
:1041c000818f5900920032006022b8000600200062
:1041d000870024001033260021a6210012462b0060
:1041e00003dd23008ef3070080b79f0091b79f0087
:1041f000a2b79f00b3b79f000400200005f327007b
:10420000c6972d00270124000800be000a01be0049
:104210000c00e0001a003a0081f207000205be001f
:104220000004be000fb297009fb297002fb3970013
:10423000bfb397007af207000203be000002be007f
:10424000809ebe008296be000800be000a01be002d
:1042500073f207000fb297009fb297002fb3970039
:10426000bfb397006ef20700c0069800d106980011
:10427000e2069800f30698003000200063ff370044
:104280006df207000205be000004be000fb29700e9
:104290009fb297002fb39700bfb3970066f2070055
:1042a0000203be000002be00809ebe008296be00d9
:1042b0000800be000a01be0059f207000fb29700c5
:1042c0009fb297002fb39700bfb397005af2070031
:1042d000c0069800d1069800e2069800f306980000
:1042e000d0ff2f0049ff3700b01f220091012400aa
:1042f0006fa99700ffa99700800f5100818f590087
:10430000430032000400200005442500b61f2200af
:10431000970124000800be000a01be000c00e00066
:104320001a003a003ef207000205be000004be007b
:104330001433260025a6210016462b0007df230094
:1043400037f207000203be000002be00809ebe00de
:104350008296be000800be000a01be0030f20700cf
:104360001433260025a6210016462b0007df230064
:104370002bf20700c0069800d1069800e2069800cc
:10438000f30698004000200020ff37002af20700c3
:104390000205be000004be001433260025a621003d
:1043a00016462b0007df230023f207000203be009e
:1043b0000002be00809ebe008296be000800be00c5
:1043c0000a01be0016f207001433260025a62100bc
:1043d00016462b0007df230017f20700c0069800df
:1043e000d1069800e2069800f3069800c0ff2f005f
:1043f00006ff3700a01f2200911324006fa9970029
:10440000ffa99700800f5100818f5900e8003e00fe
:1044100034882c0095dc260006f3250047fe230097
:104420000800be000a01be00fdf207006022b800cd
:104430000600200087332400fff107006022b80047
:104440000600200087332400f5f1070080af9f00ad
:1044500091af9f00a2af9f00b3af9f0038f107005c
:1044600080b79f000400200005442500b61f2200ed
:1044700097ff23000fa897009fa897002fa99700e8
:10448000bfa99700e6f207000203be000002be00cb
:104490000800be000a01be00e1f107000006780036
:1044a00001077800d2af9f00c3af9f0014332600ee
:1044b00025a6210016462b0007dd23000fa8970034
:1044c0009fa897002fa99700bfa99700d4f20700d3
:1044d00080bf9f0001057800820478000304780003
:1044e0000002be000203be000c0078008e007800bf
:1044f0005fa99700cfa99700c9f107006faa97009d
:10450000ffaa9700442ade0005002000b4a79f0000
:10451000c5a79f00441ade006033b8008002eb009c
:10452000c4b79f00d5b79f00e6b79f00f7b79f00bd
:10453000f57f20004fb3970006826200bfa397006b
:1045400004825300f00f520003003c00809ebe0026
:104550008296be00490037000400200005a6210015
:1045600016462b0007dd23000fa897009fa8970091
:104570002fa99700bfa99700a9f207000205be0066
:104580000004be000203be000002be000c00780062
:104590008e0078005fa99700cfa99700a0f10700cf
:1045a000e0af9f00f1a79f00e2a79f00d3a79f0065
:1045b0000002be000203be000c0078008e007800ee
:1045c0005fa99700cfa9970095f107000802be00e8
:1045d0000a03be0092f107000205be000004be00ff
:1045e0003407270035e02200a698210037ba2300bf
:1045f0000fa897009fa897002fa99700bfa9970021
:1046000087f207000802be000a03be0084f107001b
:1046100080bf9f00010578008204780003047800c1
:104620000002be000203be006fa89700ffa0970023
:104630006fa19700dfa1970079f10700441ade000f
:10464000fc7f200004026600bfa297000482520093
:1046500015032000850f52001b003c00809ebe0009
:104660008296be006fae97007fa797006fa197005c
:10467000d2af9f00dfa59700cbaf9f001d0278004f
:104680009d0290002d039000bd0390000c00780067
:104690008e0078005fa99700cfa9970060f107000e
:1046a0000fba97008a02780009037800880378001f
:1046b0005bf10700c0069800d1069800e20698005a
:1046c000f306980052fe37000400200005e02200a7
:1046d000a698210037ba23000fa897009fa897003b
:1046e0002fa99700bfa997004df207000205be0051
:1046f0000004be000203be000002be006fa89700c7
:10470000ffa097006fa19700dfa1970044f1070079
:104710000006780001077800d2af9f00c3af9f006a
:104720000002be000203be006fa89700ffa0970022
:104730006fa19700dfa1970039f107000802be00c2
:104740000a03be0036f107000205be000004be00e9
:10475000149c240005522200a6392800b797230094
:104760000fa897009fa897002fa99700bfa99700af
:104770002bf207000802be000a03be0028f1070062
:1047800080bf9f0001057800820478000304780050
:104790000002be000203be000c0078008e0078000c
:1047a0005fa99700cfa997001df1070067ff3700a9
:1047b000f0ff2f00f1fe27006fa99700ffa99700d7
:1047c000800f5100818f59000d0036000802be0095
:1047d0000a03be000800be000a01be0010f1070077
:1047e000c0069800d1069800e2069800f3069800eb
:1047f000809ebe008296be000000eb0003fe3700e4
:104800000800be000a01be004ff907000205be0005
:104810000004be0034882c0095dc260006f3250039
:1048200047fe2300fef107006022b80006002000ca
:1048300007fe230000f107005a0207000007780076
:1048400003f7070034882c0095dc260006f32500ca
:1048500047fe230043f107000203be000002be0032
:104860000800be000a01be00edf00700809ebe00f9
:104870008296be006000b8006011b800c0069800c3
:10488000d1069800e2069800f30698008eb79f00c4
:104890000c00e0000b0032006000b80002002000b5
:1048a00003002800809ebe008296be00c0069800cd
:1048b000d1069800e2069800f30698000e00ea0080
:1048c000d2fd37006000b8006011b800809ebe00c5
:1048d0008296be0077ff37002800fa00889fbe004e
:1048e0008a9fbe00c0b79f00d1b79f00e2b79f006c
:1048f000f3b79f00c4af9f00d5af9f00e6af9f0006
:10490000f7af9f000203be000002be00c4f1070023
:104910000205be000004be000203be000002be008d
:10492000bff107000802be000a03be00bcf1070089
:1049300080bf9f0091bf9f00a2bf9f00b3bf9f0099
:10494000c4572d00f5ac2500a6932d0057de23009b
:104950000800be000a01be00b1f10700b4ce290074
:10496000b5a22800665e2e00a7e52300acf0070084
:104970000203be000002be000fb897009fb8970068
:104980002fb99700bfb99700a5f1070080bf9f001e
:1049900091bf9f00a2bf9f00b3bf9f00d4e72f002d
:1049a000157b250036de210077ec23000800be00d1
:1049b0000a01be009af10700541d2600159c210033
:1049c000061a2000a7f2230095f007000802be0097
:1049d0000a03be0092f10700648a2f00051121002e
:1049e0001611210017f8230093f007000203be0000
:1049f0000002be000fb897009fb897002fb997002c
:104a0000bfb997008cf0070080af9f0091af9f0067
:104a1000a2af9f00b3af9f000802be000a03be0012
:104a20004fb09700dfb097006fb19700ffb19700cc
:104a30007bf1070080bf9f0091bf9f00a2bf9f0036
:104a4000b3bf9f004fa097000000e0001a003a009b
:104a50000faa97009faa97002fab9700bfab9700b4
:104a60000800be000a01be006df107009454250045
:104a7000555525005655250057fc230068f00700c2
:104a80000fba97009fba97002fbb9700bfbb970044
:104a900063f107004fb29700dfb297006fb3970042
:104aa000ffb3970064f007004f05be004f04be003f
:104ab0000080fa00000006006022b8000600200016
:104ac00007fe23004fa89700dfa897006fa9970063
:104ad000ffa9970052f1070080b79f0091b79f0090
:104ae000a2b79f00b3b79f000fba97009fba970075
:104af0002fbb9700bfbb97000fa897009fa89700f8
:104b00002fa99700bfa9970045f107000203be0037
:104b10000002be000fb097009fb097002fb1970022
:104b2000bfb197003ef007000802be000a03be00b6
:104b30003bf107004faa9700dfaa97006fab9700e1
:104b4000ffab970036f007000205be000004be0070
:104b500094542500555525005655250057fc2b002b
:104b60000fb897009fb897002fb99700bfb997006b
:104b70002bf107000203be000002be000800be00c9
:104b80000a01be0026f007000203be000002be00bc
:104b90004fb09700dfb097006fb19700ffb197005b
:104ba0001ff00700c0ff37001c00fa00889fbe00fe
:104bb0008a9fbe008c9fbe000205be000004be009e
:104bc0000200be006011b800c0b79f00d1b79f00bf
:104bd000e2b79f00f3b79f004f08de0001002000fe
:104be000e0af9f00f1af9f004fb29700dfb2970098
:104bf00005f0a100f0ff2f00f1402400800f5200cb
:104c0000818f5a0021003600f0ff2f00f1ff2f00a6
:104c1000f2ff2f00f3ff270008006000898060008a
:104c20000a0161008b8161006022b800060020004b
:104c300007ff27000400e1000588e1000690e1007d
:104c40000798e10028003e006022b800060020001e
:104c50000787230080d1220041442500b21f220093
:104c600093ff2300f4ef07000004be000205be001e
:104c70006fa99700ffa99700e00f5100e08f59003e
:104c8000190032000bf0a20017003700f0ff2f00d0
:104c9000b1fd2300800f5200818f5a0019003e00a1
:104ca0000086eb00f0ff2f00f1e32300800f52009d
:104cb000818f5a0043003e006000b80002ff2700c9
:104cc000dfb1970083006100e00f5000e08f5800d3
:104cd00005003a000800be000a01be00a5ef07006b
:104ce000c0af9f00d1af9f000800be000a01be0008
:104cf0004f06be004f05be004f04be000080fa0004
:104d0000000006000800be000a01be0084bf9f002c
:104d100095bf9f000cf807000205be000004be000e
:104d2000f0ff2f0021ff23000fba97009fba9700d2
:104d3000800f5200818f5a00cd003e00f0ff2f00ff
:104d400051fe2300800f5200818f5a00ad003e00bb
:104d50000802be000a03be000800be000a01be0031
:104d6000b5ef07006022b8000600200007ff23000f
:104d7000abef0700c0b79f00d1b79f00e2b79f001d
:104d8000f3b79f006022b80006002000070024004f
:104d90000800be000a01be00a7ef07000203be0024
:104da0000002be004fb09700dfb097006fb19700d0
:104db000ffb19700ebef07000004be000205be0044
:104dc0000006eb000802be000a03be000800be0099
:104dd0000a01be0092f0070080b79f0091b79f00c4
:104de000a2b79f00b3b79f000203be000002be003f
:104df0008bf00700c0b79f00d1b79f00e2b79f00bc
:104e0000f3b79f0014a12d0025322e00a6d32a004f
:104e100007f9230082f00700b4de20006547220076
:104e2000b6b4270097fa230083ef07004fb297002c
:104e3000dfb297006fb39700ffb3970078f00700d9
:104e400014d52300050d2a0066d6200017fb230089
:104e500079ef07004fb29700dfb297006fb397006a
:104e6000ffb397006ef00700e4062200c5542c0043
:104e7000d65c240077fb23006fef07004fb297004a
:104e8000dfb297006fb39700ffb3970064f007009d
:104e9000f43f2800052029004692240027fc230027
:104ea00065ef07004fb29700dfb297006fb397002e
:104eb000ffb397005af00700d45025005555250040
:104ec0005655250057fd23005bef07000fb29700f2
:104ed0009fb297002fb39700bfb3970050f0070021
:104ee00080b79f0091b79f00a2b79f00b3b79f0004
:104ef000f4c22600a5c6220046442b0027fa2b0048
:104f00004fb09700dfb097006fb19700ffb19700e7
:104f100043f00700a4d92f00e52d2500d6e22d008f
:104f2000d7fa23003eef07004fb29700dfb2970099
:104f30006fb39700ffb3970039f00700d4a629009c
:104f400045f72a00260f2b0037fb230034ef07001c
:104f50004fb29700dfb297006fb39700ffb397008f
:104f60002ff007001467210035e22f00661c270090
:104f7000c7fb23002aef07004fb29700dfb297006c
:104f80006fb39700ffb3970025f0070044bc2e00d5
:104f9000859929009699290097fc230020ef0700a6
:104fa0004fb29700dfb297006fb39700ffb397003f
:104fb0001bf007000203be000002be000fb0970006
:104fc0009fb097002fb19700bfb197001aef07006d
:104fd0000802be000a03be0011f007000c00e0004a
:104fe00051003d000203be000002be000800be00ea
:104ff0000a01be000aef07000004be000205be0061
:1050000039ff37006022b8000600200007ff2300a8
:105010000800be000a01be0001ef0700c0b79f00f4
:10502000d1b79f00e2b79f00f3b79f006022b8009e
:105030000600200007ff23000800be000a01be0092
:10504000fdee07000203be000002be004fb0970055
:10505000dfb097006fb19700ffb1970041ef0700f5
:105060000004be000205be001c00200055ff3700f2
:10507000f0ff270031002400800f5200818f5a007a
:105080001f003e006022b8000600200087ff2300ba
:105090000800be000a01be00e1ee0700c0b79f0095
:1050a000d1b79f00e2b79f00f3b79f006022b8001e
:1050b0000600200087ff23000800be000a01be0092
:1050c000d7ef07006022b8000600200007ff23008a
:1050d000d9ee07000203be000002be004fb09700e9
:1050e000dfb097006fb19700ffb197001def070089
:1050f0000004be000205be002c00200031ff370076
:105100000802be000a03be006000b80002002000d2
:1051100003ff2b0013ef07000004be000205be00d2
:105120003c00200027ff37006166b900436add00bc
:10513000cd62de00850272004362dd002c5021004a
:1051400004064600254e210004824200940290008d
:1051500024039000b403900014027800b0ee07001e
:105160000802be000a03be00adee07000203be0047
:105170000002be001c0078009c0090002c019000f2
:10518000bc019000a6ee07000004be000205be00b0
:105190006fa89700ffa89700e00f5000e08f58001d
:1051a000b7fe37001400fa00889fbe008a9fbe0039
:1051b0008c9fbe000004be000205be0068004700d0
:1051c0000a90be000890be0046f407000070a700d9
:1051d0000bf0a1009e0990000e099000fe009000c7
:1051e0006e0090009e0290003443200084825200a2
:1051f0000a00320010003c00b4fc2f000428e1003b
:105200001f0034008301d1000281d3008180d300cc
:105210000080d3008502e800faff3a000b00e000ae
:105220006bf43b0060001000e08018006001190082
:10523000e081190066f43700b40020000428e10082
:1052400007003d0000004000818048000201490045
:10525000838149008502e900faff3a00efff370039
:10526000f3ff2700f2ff2f006110b9000b00e000f0
:1052700057f43b0003002800020020000100370023
:0c5280006011b8006000b80051f4370065
:020000040000fa
:10528c000000fa008448210080142e00a147210060
:10529c00e27a240053ff23001002980021029800a8
:1052ac003202980043029800844821006000b80044
:1052bc006011b800500298006102980072029800c8
:1052cc00030a98008448210080d122004144250023
:1052dc00b21f220093002c00100a9800210a98009b
:1052ec00320a9800430a9800844821006000b800f4
:1052fc006011b800500a9800610a9800720a980070
:10530c0003129800844821006000b8006011b800b6
:10531c001012980021129800321298004312980033
:10532c00844821006000b8006011b8005012980049
:10533c006112980072129800031a98008448210098
:10534c006000b8006011b800101a9800211a98007b
:10535c00321a9800431a9800844821006000b80063
:10536c006011b800501a9800611a9800721a9800cf
:10537c0003229800844821006000b8006011b80036
:10538c001022980021229800322298004322980083
:10539c00c230ef00000000000080fa0000000600a0
:1053ac004c00fa00889fbe008a9fbe008c9fbe00f6
:1053bc0080482100e010900070119000801990003e
:1053cc005010900084482100a402900034039000f7
:1053dc00c4039000140290000eee07000002780047
:1053ec0002007800030178004427980051279800a8
:1053fc00800678000206780080482100a0189000f2
:10540c0030199000c01990001018900084482100a9
:10541c00e402900074039000840b900054029000fe
:10542c00fced070000027800020078000301780010
:10543c008405780001057800800478000204780067
:10544c004e229000de2290000d0378008c03780031
:10545c000402be000603be000b0078008a00780030
:10546c0009017800880178000000be000201be002e
:10547c00c7f40700009fbe000297be0080482100c1
:10548c00a008900030099000c0099000100890000e
:10549c001e0278009e0290002e039000be03900026
:1054ac00161907006100b90095ed0700844821002a
:1054bc00a40a9000340b9000c40b9000140a9000c6
:1054cc00d4ed070040079800510798006207980038
:1054dc0073079800804821004e029000de02900075
:1054ec006e039000fe039000541898006518980005
:1054fc00761898000720980080482100a010900092
:10550c0030119000c01190001010900084482100c0
:10551c00a412900034139000c41390001412900045
:10552c00bcee07000002780002007800030178004e
:10553c008405780001057800800478000204780066
:10554c00800521009000900020019000b001900097
:10555c00100078000203be000002be00b3ed07008d
:10556c000002780002007800830278008401780041
:10557c0001017800800078000500780003027800b3
:10558c008202780001037800800378000402be00d8
:10559c000603be000b0078008a0078000901780031
:1055ac00880178000000be000201be00eaed070091
:1055bc00000f9800110f9800220f9800330f9800dd
:1055cc0080482100a010900030119000c011900074
:1055dc00101090006022b8006033b800a3ec0700f4
:1055ec000000e00009003d000e0890009e089000ad
:1055fc002e099000be09900003f0a200000f980045
:10560c00110f9800220f9800330f9800804821004a
:10561c00a010900030119000c0119000101090005c
:10562c006022b80006002400f7062400caed07002b
:10563c00400f9800510f9800620f9800730f98005c
:10564c0080482100e00890007009900080119000c3
:10565c00500890006022b80006002400f7062400d1
:10566c00bded07000017980011179800221798003d
:10567c003317980080482100e008900070099000d2
:10568c00801190005008900084482100e40a90009a
:10569c00740b900084139000540a90005dee070088
:1056ac00000278000200780003017800840578007d
:1056bc0001057800800478000204780000072100be
:1056cc009000900020019000b00190001000780034
:1056dc000203be000002be0054ed07000002780079
:1056ec0002007800830278008401780001017800c0
