:020000040000fa
:080000000002040000000000f2
:020000040000fa
:0400080032040000be
:020000040000fa
:04000c0032040000ba
:020000040000fa
:0400100032040000b6
:020000040000fa
:0400140032040000b2
:020000040000fa
:0400180032040000ae
:020000040000fa
:04001c0032040000aa
:020000040000fa
:0400200032040000a6
:020000040000fa
:0400240032040000a2
:020000040000fa
:04002800320400009e
:020000040000fa
:04002c00320400009a
:020000040000fa
:040030003204000096
:020000040000fa
:04003400fa020000cc
:020000040000fa
:04003800320400008e
:020000040000fa
:04003c00320400008a
:020000040000fa
:040040003204000086
:020000040000fa
:040044003204000082
:020000040000fa
:04004800460300006b
:020000040000fa
:04004c00320400007a
:020000040000fa
:040050003204000076
:020000040000fa
:04005400ea030000bb
:020000040000fa
:04005800be030000e3
:020000040000fa
:04005c009803000005
:020000040000fa
:040060003204000066
:020000040000fa
:040064003204000062
:020000040000fa
:04006800320400005e
:020000040000fa
:04006c00320400005a
:020000040000fa
:040070003204000056
:020000040000fa
:040074003204000052
:020000040000fa
:04007800320400004e
:020000040000fa
:04007c00320400004a
:020000040000fa
:040080003204000046
:020000040000fa
:040084003204000042
:020000040000fa
:04008800320400003e
:020000040000fa
:04008c00320400003a
:020000040000fa
:040090003204000036
:020000040000fa
:0400940066030000ff
:020000040000fa
:04009800320400002e
:020000040000fa
:04009c00320400002a
:020000040000fa
:0400a0003204000026
:020000040000fa
:0400a4003204000022
:020000040000fa
:0400a800320400001e
:020000040000fa
:0400ac00320400001a
:020000040000fa
:0400b0003204000016
:020000040000fa
:0400b4003204000012
:020000040000fa
:0400b800320400000e
:020000040000fa
:0400bc00320400000a
:020000040000fa
:0400c0003204000006
:020000040000fa
:0400c4003204000002
:020000040000fa
:0400c80032040000fe
:020000040000fa
:0400cc0032040000fa
:020000040000fa
:0400d00032040000f6
:020000040000fa
:0400d40032040000f2
:020000040000fa
:0400d80032040000ee
:020000040000fa
:0400dc0032040000ea
:020000040000fa
:0400e00032040000e6
:020000040000fa
:0400e40032040000e2
:020000040000fa
:0400e80032040000de
:020000040000fa
:0400ec0032040000da
:020000040000fa
:0400f00032040000d6
:020000040000fa
:0400f40032040000d2
:020000040000fa
:0400f80032040000ce
:020000040000fa
:0400fc0032040000ca
:020000040000fa
:0401000032040000c5
:020000040000fa
:0401040032040000c1
:020000040000fa
:0401080032040000bd
:020000040000fa
:04010c0032040000b9
:020000040000fa
:0401100032040000b5
:020000040000fa
:0401140032040000b1
:020000040000fa
:0401180032040000ad
:020000040000fa
:04011c0032040000a9
:020000040000fa
:0401200032040000a5
:020000040000fa
:0401240032040000a1
:020000040000fa
:04012800320400009d
:020000040000fa
:04012c003204000099
:020000040000fa
:040130003204000095
:020000040000fa
:040134003204000091
:020000040000fa
:04013800320400008d
:020000040000fa
:04013c003204000089
:020000040000fa
:040140003204000085
:020000040000fa
:040144003204000081
:020000040000fa
:04014800320400007d
:020000040000fa
:04014c003204000079
:020000040000fa
:040150003204000075
:020000040000fa
:040154003204000071
:020000040000fa
:04015800320400006d
:020000040000fa
:04015c003204000069
:020000040000fa
:040160003204000065
:020000040000fa
:040164003204000061
:020000040000fa
:04016800320400005d
:020000040000fa
:04016c003204000059
:020000040000fa
:040170003204000055
:020000040000fa
:040174003204000051
:020000040000fa
:04017800320400004d
:020000040000fa
:04017c003204000049
:020000040000fa
:040180003204000045
:020000040000fa
:040184003204000041
:020000040000fa
:04018800320400003d
:020000040000fa
:04018c003204000039
:020000040000fa
:040190003204000035
:020000040000fa
:040194003204000031
:020000040000fa
:04019800320400002d
:020000040000fa
:04019c003204000029
:020000040000fa
:0401a0003204000025
:020000040000fa
:0401a4003204000021
:020000040000fa
:0401a800320400001d
:020000040000fa
:0401ac003204000019
:020000040000fa
:0401b0003204000015
:020000040000fa
:0401b4003204000011
:020000040000fa
:0401b800320400000d
:020000040000fa
:0401bc003204000009
:020000040000fa
:0401c0003204000005
:020000040000fa
:0401c4003204000001
:020000040000fa
:0401c80032040000fd
:020000040000fa
:0401cc0032040000f9
:020000040000fa
:0401d00032040000f5
:020000040000fa
:0401d40032040000f1
:020000040000fa
:0401d80032040000ed
:020000040000fa
:0401dc0032040000e9
:020000040000fa
:0401e00032040000e5
:020000040000fa
:0401e40032040000e1
:020000040000fa
:0401e80032040000dd
:020000040000fa
:0401ec0032040000d9
:020000040000fa
:0401f00032040000d5
:020000040000fa
:0401f40032040000d1
:020000040000fa
:0401f80032040000cd
:020000040000fa
:0401fc0032040000c9
:020000040000fa
:0402000032040000c4
:020000040000fa
:0402040032040000c0
:020000040000fa
:0402080032040000bc
:020000040000fa
:04020c0032040000b8
:020000040000fa
:0402100032040000b4
:020000040000fa
:0402140032040000b0
:020000040000fa
:0402180032040000ac
:020000040000fa
:04021c0032040000a8
:020000040000fa
:0402200032040000a4
:020000040000fa
:0402240032040000a0
:020000040000fa
:04022800320400009c
:020000040000fa
:04022c003204000098
:020000040000fa
:040230003204000094
:020000040000fa
:040234003204000090
:020000040000fa
:04023800320400008c
:020000040000fa
:04023c003204000088
:020000040000fa
:040240003204000084
:020000040000fa
:040244003204000080
:020000040000fa
:04024800320400007c
:020000040000fa
:04024c003204000078
:020000040000fa
:040250003204000074
:020000040000fa
:040254003204000070
:020000040000fa
:04025800320400006c
:020000040000fa
:04025c003204000068
:020000040000fa
:040260003204000064
:020000040000fa
:040264003204000060
:020000040000fa
:10040000af2821000eff27000e0188000000000029
:10041000000020000000e000020032000001200087
:100420002002880014000700100107000000e0000f
:1004300003003a00c05f22000100200002003700e4
:100440000000200001002000810f70000100320038
:100450000f000700000020000000e0000200320052
:100460000000020000000000bc1c020000000000b0
:100470000040da000000fe00200020000000e00044
:1004800002003200100020009001880000000600e9
:10049000a1028800800478000000eb001f003700f4
:1004a000e284440054a0b4009905ba00e2844400f8
:1004b00054a0b4009906ba00e284440054a0b400e9
:1004c0000006eb00476fde00fd07b200ae018800ba
:1004d000636ce10003003a000ad801000000eb0061
:1004e0000e003700606ce10008003a00004deb00a0
:1004f0000a05e800020039003420ec000af0a000f0
:100500008b05e900f9ff3e00040037006168e10057
:10051000010032000086eb000b00070019c7ba008b
:100520000e04e0001905ba0003003a000a00e000da
:10053000dbff3a0000000600fe07b200ae028800b2
:100540008a047800f5ff37000cd0a300e20f4d00bd
:100550001c003b0089027800354dba000a05e8000e
:10056000020039003420ec000af0a0008b05e900fd
:100570000f003200254dba000a05e80002003900dc
:100580003420ec000af0a0008b05e90008003200de
:100590000c00e0000600320015cdba000a05e800a4
:1005a000020039003420ec000af0a0008b05e900bd
:1005b0008984e80054a0b4000b00e000e2ff3a0098
:1005c000000006009902ba00055d78008b05e9007d
:1005d000f7ff3200c82ade00055d78008b05e900d0
:1005e000f3ff32000c00e000f1ff320019ddba0029
:1005f000eeff37003600f800809fbe00829fbe00ed
:10060000849fbe00869fbe000000fa000068a9001b
:100610004d100700390d0700900a0700e0848000a4
:10062000f18480000200200003f82300f30007009b
:1006300080017800010178000300780082007800d2
:100640000000be00e0848800f184880050818000b2
:100650000000e8005081880050818000f80f5000b1
:10066000020036002a30ef00960b07000000000061
:100670000080fa004f03be004f02be004f01be00d3
:100680004f00be003600f900004006003600f800ba
:10069000809fbe00829fbe00849fbe00869fbe00da
:1006a0000000fa000108a900140d07000000000076
:1006b0000080fa004f03be004f02be004f01be0093
:1006c0004f00be003600f90000400600809fbe00cb
:1006d000829fbe000000fa000368a900128180001a
:1006e0002381800010002000010020000200400053
:1006f0008380480010818800218188003281800039
:100700004381800010002000010020000200400012
:10071000838048003081880041818800000000000b
:100720000080fa004f01be004f00be0000400600ee
:10073000801f78000000fa0001a8a90000188000be
:100740000094880010188000109488002018800001
:100750002094880030188000309488004018800071
:100760004094880010c0b3004bf0b70000000000b8
:100770000080fa004f007800004006003600f800c4
:10078000809fbe00829fbe00849fbe00869fbe00e9
:100790000000fa000188a900f1818000e08180005a
:1007a000808f500002003200800f070001003700e8
:1007b0004070ef00000000000080fa004f03be0010
:1007c0004f02be004f01be004f00be003600f900d0
:1007d000004006003600f800809fbe00829fbe00e9
:1007e000849fbe00869fbe000000fa000168a90039
:1007f000101180004200de0061406000e14f5000b7
:1008000001003a002242a900101180000000d1002e
:1008100061406000e14f500005003a002222a9002b
:10082000030037003011800000407800721007008c
:10083000101180000040780061406000e14f5000de
:10084000f8ff3200000000000080fa004f03be00f5
:100850004f02be004f01be004f00be003600f9003f
:10086000004006000040da000000fe000000050025
:1008700014002000ad033700f4ff2f00ab03370056
:100880000001be003f0007000470a70003f0a100b4
:100890006509b100160032000d0035006828e1003e
:1008a00006003500f0ff2f00f1ff27000300e000f5
:1008b00013003b000100280000000500000040007c
:1008c000818048008502e900fcff3a0008003700fb
:1008d000f88f420002003c008000eb0000000500a1
:1008e0008100d1000080d3008502e800fcff3a00bf
:1008f0000300e00002003b0060001000e0801800f0
:10090000000006000001be001e0007000470a700e2
:1009100003f0a10003f8a30013003a006509b10039
:1009200010003200090035006928e100020035009e
:100930000100280000000500000040008180480000
:100940008502e900fcff3a0000000600f88f420033
:10095000050035008100d1000080d3008502e80049
:10096000fcff3a00000006008000eb0000000500dc
:100970004f89de0082017800870337006011b800dc
:1009800095033700c70ade00f107b200f50fb20089
:1009900008003200e1cf4200020032000170a000e6
:1009a00024000500810f70000100320004080500da
:1009b00044000500810f700002003a001400050099
:1009c0008502e9000000400081c04800fcff3b00b8
:1009d0000170a0002400050007f8270007836100cc
:1009e0000638e10004003a00f70720008783610021
:1009f0008703710001003a0003f0a200889fbe0047
:100a00008a9fbe008c9fbe00470ade000480a100c2
:100a1000c71ade000580a1000700280007856000d6
:100a200087856100f70f20000720e1009e0032005b
:100a30000728e1009c003200010678000400e00075
:100a4000b4003200f7072000878060000170a0002a
:100a50000500e000c0003200f70720008781610038
:100a60000370a000050652000f003a000b50e10091
:100a70000b0032000308e10002003a000200e1002e
:100a80007e003200020450008384580004003100cc
:100a90000001fd008101fd008402fd008a05fd00ca
:100aa0006044b800210037000520e10005003d004a
:100ab0000001fd008101fd008402fd008a05fd00aa
:100ac000050652007a60e100050035000170a100c2
:100ad0004722dd00848070008a8070006300370048
:100ae0006044b800ef02660007ff2f0007066600ab
:100af0000500e00006003400f08312008714dd00da
:100b00000511de00071bdd00060171008519de00fe
:100b10007060e10005003500090478008204780067
:100b2000030178008001eb00700656000b50e100d5
:100b300003003a00020040008380480004003700b0
:100b400060041400e0841c000200580083805800f8
:100b50000188a300060032008100d1000080d3008c
:100b60008984d3000884d3000402e80027003700fa
:100b70000178a30025003a000100e00003003200e4
:100b80008186cf00698656000a0037008c0020005d
:100b90000000e00004003a000900780088047800b2
:100ba0000004eb00700252008086cf000d06460064
:100bb0000c06e9007060e100060035008000780056
:100bc00009007800880478000004eb0070065600e5
:100bd000700252000c00e0000c0034008c08dd00b4
:100be000f00316000703de00868070000c00dd00b5
:100bf000074bde00060070008c4cdd000743de0072
:100c0000868474000c44dd000c0252006120e10077
:100c10002000350061016000070028008781640022
:100c2000f7ff270087836400070374000300e000d8
:100c30000600320082037300040032000000e80066
:100c4000e08048000188a3000e003a00f70f200062
:100c50000720e1004a003d000170a1004722dd00ad
:100c6000810072008a8070000000be004f06be0046
:100c70004f05be004f04be00000006006000b80033
:100c8000faff37008100d1000080d3000402e800a1
:100c9000eeff37000401780089017400a10107000c
:100ca0008a807000f1ff3700f70107000702780023
:100cb0000001fd008101fd00f301070087027800bb
:100cc000850372000778a300040032000001fd00d4
:100cd0008101fd0006020700e4ff37008503620082
:100ce0000768a300080032000b50e1000300320047
:100cf000f0ff2f00f1ff2700dcff37000001fd00af
:100d00008101fd00d9ff37000468a300d7ff32003e
:100d1000faff3700f8ff2700888360000b003a00d5
:100d20000000e00009003a0083036400828373003e
:100d3000020032000200be00ccff37000b50e10081
:100d4000ceff3a000200be00c8ff370014002000aa
:100d5000810064003eff3700f8ff270088836100b0
:100d600004003a000200e00002003a008c00780023
:100d7000beff3700150020008301640039ff3700f3
:100d800001f827000000200081007500b7ff370040
:100d9000889fbe008a9fbe008c9fbe001b00200063
:100da0000202be00058668000600280006066600ee
:100db0004709de00f20fb200820032000243e80071
:100dc00080003200c729de00f30fb2007d00320040
:100dd0000343e8007b003200f107b2000170a0007d
:100de000f507b2000570a000c708dd004903de006a
:100df000868070004700dd00c72add004923de0041
:100e0000868272004722dd00030551000403500072
:100e100085835800030031000000400081804800b5
:100e20000a05e9008c1f78008a9fbe00040050006c
:100e3000858058000402420085824a00000040007c
:100e4000818048000005eb000004be006033b8005c
:100e50000406be000d48e1005600310011000900f3
:100e60004dccd8000c01b8000d02b80084814100bf
:100e700060824a008283530003045c0084845c0027
:100e800060055d000a00e00025003a00800578005a
:100e90000d40e1004900310088007800070078002b
:100ea000110009004d88d8000c01b8000d02b800ef
:100eb0008481410060824a006003110083835b00eb
:100ec00004045c00e0845c000900e00021003a00ba
:100ed0004f01be000300e0002b003200e301600080
:100ee000070673008c8171000100320064007000fd
:100ef0004200de004e5edd000c007000c258de00d5
:100f000001e0a00083010700cf017800818071001b
:100f10004f06be004f05be004f04be000000060095
:100f20008c8343000d044c00e0844c0060054d00b0
:100f30000000e9000a00e000d4ff32008c83430087
:100f40000d044c00e0844c0060054d000000e900f9
:100f5000ceff37000c0343008d834b0060044c0030
:100f6000e0844c000000e9000900e000d8ff3200f6
:100f70000c0343008d834b0060044c00e0844c0064
:100f80000000e900d2ff37004200de004e5edd00c7
:100f90000c007000c258de0001e0a000cf01780014
:100fa0000300e000daff320060001000e08018006b
:100fb000d7ff3700f0ff2f00aaff3700f0ff2f0008
:100fc000b9ff37000404be002f0107008706780030
:100fd0000004fd008104fd002b010700078366006b
:100fe0000678a300030032000960a7000800be00d5
:100ff0002c0037000d78a300020032000800be006c
:10100000280037000778a30026003a0001f0a1006d
:1010100009f0a1000668a30003003200f1ff2700d9
:10102000f0ff2f00baff37000d68a3000300320065
:101030000800be008c807000b5ff37000768a30071
:1010400007003a000648a30003003200f1ff270022
:10105000f0ff2f00aeff37000d48a3000300320061
:101060006000b8008c807000a9ff37000748a3001b
:101070000400320001f82700000020008c8070007e
:10108000a3ff3700760107000004fd008104fd0086
:1010900002057800720107000802be008a0178008c
:1010a00059ff37000160a000120220006282880010
:1010b00097ff37000100e000120032000500e00059
:1010c00010003200889fbe008a9fbe008c9fbe0029
:1010d0000006eb0001f8a3000300320060001000de
:1010e000e08018000cf0a00005f8a3000300320017
:1010f00060021200e0821a000cf0a2008005eb00f2
:1011000041ff37006000b80002000500038368005b
:101110000700280007036300470ade000480a100df
:10112000c71ade000580a100f70f20000720e100ac
:10113000420032000728e10040003200889fbe00d4
:101140008a9fbe008c1f7800f107b200f307b2003f
:101150000400e000640032000170a0000500e0001f
:10116000680032000370a00085054200eb07b10063
:101170000204b8000302b8008484440060854a0079
:10118000020ab800848444000a854a00030ab800b1
:1011900004054500040033000804d0008984d2000f
:1011a0000a85d2008b05e9006158e1003d00350059
:1011b00002102000090161000308200089816100fc
:1011c000f70720008783640008867300c84cde00a0
:1011d000c853dd00878474004855de000300e0003a
:1011e0000600320082037600040032008904e80021
:1011f00060054d000a88a3000c003a00f70f20009c
:101200000758e10044003d000a70a100c75ddd0001
:101210000a8575008a007300090078004f0678007f
:101220004f05be004f04be00000006000a05d100b5
:101230008984d3008b05e800f0ff3700881f780011
:101240000604780090000700070278000001fd0006
:101250008101fd008c000700870278008503720081
:101260000778a300050032000001fd008101fd00a8
:101270009f0007004f0478000000060085037200fd
:101280000748a30003003200f0ff2f00f1ff270002
:10129000f8ff37000000200001f827008880700068
:1012a000f4ff3700880178004848dd008081710034
:1012b0004848de00c850dd0001007000c850de0064
:1012c000060478000b017800160007008880700083
:1012d000d2ff37000500e0000500320017002000b3
:1012e0003a0007009dff370081037000f9ff3a00c4
:1012f000860078004f0678004f05be004f04be0000
:101300000000050083037100f9ff32002700200070
:101310002e00070094ff370001f827008680700038
:10132000f4ff37000100e0002600320061011100e7
:101330007810e10023003c006022b8007010e1004a
:101340000400350080027800010078008000eb0086
:10135000700151000200e000090034007003110028
:10136000062add00822ade008603dd008782720005
:101370000200de00860bdd00070070008208de0040
:1013800084817100f4ff270004826200848171006f
:1013900004002800848262006102600005f0a6005b
:1013a0000000060004827100070032000000e8001f
:1013b000e0804800000006000002be006000b800a7
:1013c000efff37006000b80000000600889fbe00f5
:1013d0000004eb006138e10016003a000100e00073
:1013e00008003a00c800de004800dd008800200048
:1013f0000100e00003003a00c800de004800dd0004
:10140000680444008184cf00e9845400060034005d
:101410008908dd00f08314008703de0087807000f8
:101420000900dd0009044400610214004f04be00fd
:10143000000006000300e00008003a00c811de00ca
:101440004811dd00880020000300e00003003a009e
:10145000c811de004811dd00680444008384cf0019
:10146000e9845400060034008919dd00f08314007b
:101470008713de00878171000911dd000904440033
:10148000e1021400e9ff37002700200001f0a70067
:1014900017002000470bde00f60fb20004003200f8
:1014a0000643e8000a0032004702b30000000600cd
:1014b00001037800f607b2000603700002003a004c
:1014c0000703b300000006008702b3000000060017
:1014d00001037800f607b200060370000200320034
:1014e0000770a000000006000760a00000000600d2
:1014f0000478a300040032000578a3000300320042
:101500000168a30001003a000200be000160a000d3
:101510000000060081017000270032008002eb000d
:1015200001f8a3000300320060001000e080180002
:1015300015002000f40720000202420020003400c1
:10154000f703200087036000060420000003630007
:1015500002082000000161004700de00c909dd002b
:1015600000807100c708de000600e00008003200bd
:1015700087037100060032001000b0000180b00047
:101580000188a30002003200c108de000402e80066
:10159000f107b200f30f20000320e10003003d003b
:1015a0004722dd00810072002900370001f8270082
:1015b0000000eb00260037006000b80000000600c5
:1015c000680212007f20e100020034006000b800d1
:1015d0001f0037006011b8007020e10004003500e2
:1015e00080017800010078008000eb00700252005a
:1015f0000400e00009003400f00312000719dd00c8
:101600008419de000703dd00868171000400de001e
:10161000070bdd00060070008408de00f7ff2700de
:1016200083836300870371000600280003036300bf
:10163000070032000700e00003003a00610160008b
:1016400002817300020032001000b0000180b0007f
:101650000500a6000000060001f0a0000000060042
:101660004f0ade004709de00f107b200f20fb200b8
:101670000b003200f207b1000170a000c708dd00c6
:10168000c901de00838070004700dd000400a60071
:101690000000060060001000e08018000000060056
:1016a000810f700001003a00000006008182cf0027
:1016b0000500e00010003e008082cf00ee82420074
:1016c0007028e1000400390007003e008000780027
:1016d0000000eb000e003700708312008600de0071
:1016e0000500dd000a003700708352008600dd002f
:1016f0000000eb0006003700e28252008508dd00a2
:10170000708312000603de00868070000500dd0095
:101710007507b0000501ea000400a60000000600fd
:1017200060001000e080180000000600889fbe00e6
:101730008a9fbe00841f78007c0007004f0078005d
:1017400011003300f0ff2f00838f6c0006003b0078
:10175000040565000a00a7000800370009f0a6008c
:101760001000200008003700820f5400838f5c00b7
:10177000030039001000200001003e00000020009e
:1017800009f0a7000000ea004f05be004f04be00ac
:101790000000e00000000600881f780003047800c5
:1017a0000300e00007003d0060001000e08018002a
:1017b00060011900e081190002003b0001f02d00da
:1017c000030037000400070008f0a70001f0a000a4
:1017d0004f04780000000600889fbe008a9fbe006c
:1017e0000082700004027100048271002600320041
:1017f0000004be000200be006011b8006b092000aa
:10180000950220000182cf000a0039000541b10095
:101810000082cf00070039000541b1000982cf00e6
:10182000040039000541b1000882cf0001003900f1
:101830000541b10005425200120032000a003b008f
:1018400082817100610164008100d1000080d300b9
:101850008984d3000884d3008b05e8000442e800a3
:10186000f7ff3a00070037000804440089844c0061
:1018700000004800818048008b05e9000442e9002f
:10188000f9ff3a00030007004f05be004f04be00f9
:101890000000060081002000618055000b003d0023
:1018a0000b00200061fe2f000100e1001d0034004c
:1018b00082817100610164008904d1000884d30031
:1018c0000000e800faff3a007100200061006400a7
:1018d000030070000200600009003200610444004f
:1018e000e0844c000988a500050032008b05e80063
:1018f0006808e10002003a008904d1000884d3009e
:10190000f20f20000258e10005003d00c75ddd0038
:10191000f907b20089807500080078000000060011
:101920000bf827008b007800000005000004be00c3
:1019300014fc07000003be000405be000200be0048
:1019400010fc0700844f7500000006000400fa0038
:101950000001be0003f0a100a4fd200095f42300c7
:10196000840f5100858f59000e003e00f4ff2f00b8
:10197000f5972300840f5100858f59003a003e00ef
:101980000200200003b827001cfc0700e0bf9f00f6
:10199000f1bf9f000000200001f823000080fa0042
:1019a000000006004f0ade0005002000163d25005d
:1019b000b7072400860f5100878f59001b003e0097
:1019c00036be2c0067012400860f5100878f590016
:1019d0000a003600b2fd2000930424000400e00059
:1019e0000400320005fc07005c01070001f0a200c2
:1019f000eaff3700f8fb0700fbff37000400e000b8
:101a000005003200b2fd200093fc2300fbfb070021
:101a1000dd010700e1ff37000001be00b0fd20003e
:101a200091fc2300ecfb0700f9ff3700561d230053
:101a3000270e2400860f5100878f590014003e00a6
:101a4000f6dd2e00f70a2400860f5100878f59001b
:101a500009003600b2fd2000930c24000400e000d1
:101a600003003200e5fb07003c010700cbff370015
:101a7000d9fb0700fcff37000400e0000100320042
:101a800001f0a20042be2c0063092400e5ff3700ec
:101a9000f4ff2f00f5f72700840f5100858f5900c0
:101aa000040036000001be000200be00cafb0700b1
:101ab000baff3700c2ff2f000f0141005b01070092
:101ac000630160006fb89700ffb89700e10f510005
:101ad00005003200e20f5100c3ff32000200e000b7
:101ae000cbff3a00e0ff370001f0a200c8ff37004b
:101af0000400fa00889fbe008a9fbe0002034100d6
:101b000083834900e00f5300e08f5b000f00320039
:101b10000202be0005f0a1000800200009f827001d
:101b2000880f5200898f5a0008003e00a0bf9f0016
:101b3000b1bf9f00470dde000b002000f40f200016
:101b40000a056200840f550007003a006ffd070088
:101b50000001be008efc07004f05be004f04be0012
:101b60000080fa0000000600000240008182480068
:101b7000840f5300858f5b0006003900840f5300eb
:101b8000858f5b00f4ff3a006011b8005ffd07002d
:101b9000f1ff37000a00e0004c003a002fbb97002d
:101ba000bfbb9700493add00c732de0085027200f4
:101bb0004932dd00e00f5200e08f5a003f003d0047
:101bc000610215002fbb9700bfbb9700040478008b
:101bd0000804e900030033000603430087834b0039
:101be000fbff37000602be00471bde000700200097
:101bf0000683fb000600e0003d003a00491cdd00c2
:101c0000c714de00890474004914dd00e00f54009d
:101c1000e08f5c0032003d00e10313000204be00cf
:101c20008703e900030033000804440089844c0062
:101c3000fbff37000801520089815a00860f5500ca
:101c40002f003c00e00f5100e08f590004003500e8
:101c5000e00f5100e08f5900cbff32000202be00be
:101c60004728de0001002000e00f5000e08f580000
:101c70002e0032000a00e000300034000000200096
:101c800001f82f0004024000858248006150b9002d
:101c9000c700dd0000002000040070008580700097
:101ca0006022b80002002800bfb9970083026100db
:101cb0000000720081807200a7ff37000a05e9006a
:101cc0000402420085824a00baff37002fba97000b
:101cd000bfba9700f507b2000570a000c2ff370039
:101ce0000603e9000804440089844c00c7ff37005c
:101cf0000204be00f907b2000970a000cdff370052
:101d0000e00f5100e08f590004003500e00f510052
:101d1000e08f59009cff32000202be000402420024
:101d200085824a000a05e900c2ff3700040242002a
:101d300085824a000a05e900c9ff370061051500e0
:101d40000400be000a05e900030033008100d10051
:101d50000080d300fbff3700d1ff37000400fa00fa
:101d6000889fbe000004be008900780001f0a10039
:101d7000a4fd200095f42300840f5000858f5800a7
:101d80001e003e00f4ff2f00f5972300840f500043
:101d9000858f580016003e006000b80003f8270049
:101da00089806100e00f5000e08f58000b003a007e
:101db00002002000033820000800be00d3fc07000a
:101dc0000001be00c2bf9f00d3bf9f000800be003d
:101dd0004f04be000080fa00000006000200200050
:101de00003b827000800be0004fb0700f4ff37001b
:101df0000800be00e4000700180037004f49de006d
:101e000003002000143d2500b5072400840f500076
:101e1000858f58001d003e0034be2c006501240053
:101e2000840f5000858f58000e003e000800be0051
:101e30000200e000b2fd200093fc23000500320008
:101e4000eefa0700450007000004be0009f0a200fa
:101e5000deff3700e0fa0700400007000004be0084
:101e6000daff37000800be000200e000b2fd2000eb
:101e70009304240003003200e0fa070001f0a200fe
:101e8000dcff3700d4fa0700fcff3700541d2300a5
:101e9000250e2400840f5000858f580017003e0047
:101ea000f4dd2e00f50a2400840f5000858f5800c1
:101eb00009003e000800be000200e00042be2c0007
:101ec0006309240002003200ccfa0700e2ff370069
:101ed000c1fa0700dbff37000800be000200e00087
:101ee000b2fd2000930c240002003200c3fa070068
:101ef000c0ff3700b8fa0700beff3700f2ff2f001f
:101f0000f3f72700820f5000838f5800050036003a
:101f10000801be000800be00affa07000004be00c2
:101f2000aaff370082ff2f000f0141000800be000a
:101f30003e000700630160004fb89700dfb89700cc
:101f4000e10f5100c4ff3200e20f5100cbff32001d
:101f50000200e000bbff3a00a6ff37000400fa00d1
:101f6000889fbe008a9fbe008c9fbe000001be00fd
:101f700066fc07000004be000001be0063fc070011
:101f80000005be000200200003f02b000800be0088
:101f90005efc07000200200003f8230097fa070008
:101fa0000006be00f2a92a00a3d223000a00be0048
:101fb00056fc07000001be000c00be008ffa0700af
:101fc0000002be0072a12900c37c23000800be00ed
:101fd00084bf9f0095bf9f004cfc0700f243200088
:101fe00063ab23007cfa07000006be000a01be00b6
:101ff0000800be0045fc07000001be000c00be004a
:1020000042fc07000001be000fba97009fba97007c
:102010000400be0079fa07004f06be004f05be005f
:102020004f04be000080fa00000006000400fa0021
:10203000889fbe008a9fbe008c9fbe00000678006d
:10204000810478008206780001f0a100a2fd200042
:1020500093dc2400820f5000838f580023003e0041
:1020600032982f0023f223008900780027fc070014
:102070000200200003b4240060fa070002002000e0
:1020800003b4240054fa07000005be00fcf9070061
:1020900000047800a2fd200093fc23000a00be008b
:1020a0001afc07000001be000c00780089007800cf
:1020b00049fa07000002be00325a28008328230094
:1020c0000a00be0084bf9f0095bf9f000ffc070061
:1020d0000001be000fba97009fba97000400be002f
:1020e0003dfa0700808ebe000b003700f2ff2f0084
:1020f000f3f72700820f5000838f58000c00360042
:1021000000017800890178008900780032fa070020
:10211000808ebe000004eb00080078004f06be0071
:102120004f05be004f04be000080fa00000006000c
:10213000890078004c0007000005be0032982f008f
:1021400023f22300f1fb07000200200003f023002c
:102150002afa070055000700000478008efd0700ea
:1021600032982f0023f2230009fb07000001be0074
:102170000a00be0018fa07006000b800a006980028
:10218000b1069800d7ff37000400fa00889fbe0010
:102190008a9fbe008c9fbe000006be000001be00ec
:1021a000dafb07000004be000001be000c00be0008
:1021b000d6fb07000005be000801be000800be00f7
:1021c000d2fb07000a01be00d0fb07000002be00e0
:1021d000c2c32600636323000800be0084bf9f00c3
:1021e00095bf9f00c9fb0700f27c200003952300e8
:1021f000f9f907000001be000fba97009fba9700d7
:102200000400be00c1fb07000002be004288280097
:1022100083c023000800be0084bf9f0095bf9f00bd
:10222000bafb0700b2aa2a00a3e22300eaf90700da
:102230000a01be00b5fb07000c01be00eff9070064
:102240000001be000fba97009fba97000400be00bd
:10225000eaf907004f06be004f05be004f04be005e
:102260000080fa00000006000400fa006011b800c7
:10227000e2bf9f00f3bf9f006fbb9700ffbb9700bb
:102280000002be00f0ff2f00f1ff2f00f2ff2f0031
:10229000f3ff2700000062008180620002016300fa
:1022a000838163000080fa00000006000003be0086
:1022b000b4f907006011b8000470a70007f0a1008e
:1022c0006509b1001b0032001200350086022000b3
:1022d0000628e10008003500f3ff2700f2ff2f0079
:1022e0006110b9000700e00018003b00030028005f
:1022f0006000b80002000500000040008180480036
:1023000002014900838149008502e900faff3a0091
:1023100008003700f88f420002003c008000eb000c
:10232000000005008100d1000080d3008502e80094
:10233000fcff3a000700e00004003b0060001000d2
:10234000e080180060011900e0811900000006001b
:020000040000fa
:102350000000fa0005e1a9000421a9000068a90015
:102360002068a80005e1a80000002000a137240093
:102370001d000700000000000080fa0000000600b9
:102380000000fa0013e1a90011e1a9001061a80002
:102390001021a900800880000040a1000050a10089
:1023a000800888000a21ef000621ef003039200064
:1023b00070088800007028006008880020428000b3
:1023c0000000a0000010a1000020a1002042880011
:1023d0000108a9002108a80011e1a80000000000e0
:1023e0000080fa00000006000400fa00008fbe0022
:1023f000200880000040a0000050a10020088800b4
:102400001e0178009e019000001c2e0041c6240091
:102410005ffa07000001780001007800820278006e
:102420000002780002f02f00f37724000500780006
:10243000840078000000be000ff907000000e000f3
:102440008d003400200880000040a0000050a10052
:10245000200888001e0178009e019000001c2e00bc
:1024600041c624004afa0700000178000100780004
:10247000820278000002780002002000031024008d
:1024800005007800840078000000be0040fa0700d4
:1024900000017800010078008202780000027800d4
:1024a00002f02f00f3772400050078008400780004
:1024b0000000be00f0f807000000e0005500340006
:1024c000200880000040a1000050a00020088800e3
:1024d0001e0178009e019000001c2e0041c62400c1
:1024e0002bfa0700000178000100780082027800d2
:1024f0000002780002002000032824000500780074
:10250000840078000000be0021fa07000001780076
:1025100001007800820278000002780002f02f00ab
:10252000f377240005007800840078000000be00e6
:10253000d1f807000000e0001d00340020088000f2
:102540000040a0000050a000200888001e01780074
:102550009e019000001c2e0041c624000cfa0700ca
:102560000001780001007800820278000002780003
:102570000200200003382400050078008400780061
:102580000000be0002fa0700000178000100780098
:102590008201780000017800030078008200780052
:1025a0000000be00b6f807001008880040003700a1
:1025b0001e0178009e019000001c2e0041c62400e0
:1025c000f3f907000001780001007800820278002a
:1025d0000002780002002000032824000500780093
:1025e000840078000000be00e9f9070000017800cf
:1025f0000100780082017800000178000300780073
:10260000820078000000be009df8070010088800d6
:10261000270037001e0178009e019000001c2e004c
:1026200041c62400daf907000001780001007800b3
:1026300082027800000278000200200003102400cb
:1026400005007800840078000000be00d0f9070083
:102650000001780001007800820178000001780014
:1026600003007800820078000000be0084f80700b4
:10267000100888000e0037001e0178009e019000af
:10268000001c2e0041c62400c1f90700000178009b
:1026900001007800820178000001780003007800d2
:1026a000820078000000be0075f80700100888005e
:1026b000000000000080fa00000006000000fa00a0
:1026c0001fe1a9001e21a9000368a9002368a80032
:1026d0001fe1a80000002000812c24000300070057
:1026e000000000000080fa00000006000400fa006c
:1026f000008fbe00f00880000040a1000050a10043
:10270000f00888001e0178009e019000001c2e0039
:1027100041c624009ef907000001780001007800fe
:10272000820278000002780002f02f00f377240084
:1027300005007800840078000000be004ef8070015
:102740000000e0008d003400f00880000040a00090
:102750000050a100f00888001e0178009e01900042
:10276000001c2e0041c6240089f9070000017800f2
:102770000100780082027800000278000200200048
:102780000310240005007800840078000000be00db
:102790007ff90700000178000100780082027800cc
:1027a0000002780002f02f00f37724000500780083
:1027b000840078000000be002ff807000000e00051
:1027c00055003400f00880000040a1000050a00037
:1027d000f00888001e0178009e019000001c2e0069
:1027e00041c624006af90700000178000100780062
:1027f00082027800000278000200200003282400f2
:1028000005007800840078000000be0060f9070031
:102810000001780001007800820278000002780050
:1028200002f02f00f3772400050078008400780080
:102830000000be0010f807000000e0001d0034009a
:10284000f00880000040a0000050a000f0088800c0
:102850001e0178009e019000001c2e0041c624003d
:102860004bf907000001780001007800820278002f
:1028700000027800020020000338240005007800e0
:10288000840078000000be0041f9070000017800d4
:1028900001007800820178000001780003007800d0
:1028a000820078000000be00f5f70700d00888001d
:1028b000400037001e0178009e019000001c2e0091
:1028c00041c6240032f907000001780001007800b9
:1028d0008202780000027800020020000328240011
:1028e00005007800840078000000be0028f9070089
:1028f0000001780001007800820178000001780072
:1029000003007800820078000000be00dcf70700ba
:10291000d0088800270037001e0178009e01900033
:10292000001c2e0041c6240019f9070000017800a0
:102930000100780082027800000278000200200086
:102940000310240005007800840078000000be0019
:102950000ff907000001780001007800820178007b
:102960000001780003007800820078000000be00bb
:10297000c3f70700d00888000e0037001e0178005a
:102980009e019000001c2e0041c6240000f90700a3
:1029900000017800010078008201780000017800d1
:1029a00003007800820078000000be00b4f7070042
:1029b000d0088800000000000080fa000000060037
:1029c0000600fa00a07380004300de006140600052
:1029d000004f7800207080004900de0061406000f8
:1029e000104798002070800000407800614060002f
:1029f00020479800a07480004f00de00004078005f
:102a000030479800207080004a00de00614060007e
:102a1000404798000e01780051002000000220007d
:102a200003000700000000000080fa00000006001c
:102a30001000fa00889fbe005007980061079800b8
:102a4000720798000f0478000f0078008004780067
:102a50006c00470061002000108040008000e90009
:102a6000210798000000e8000000d100800040002d
:102a70000f00780081874700600040003007980011
:102a80000000eb00100798009e0090000e80e80008
:102a90000108e80010017800120798003e0090003d
:102aa00001004000e1cfb300014878005e009000d3
:102ab000c880de001e0190000e80e8000208e800d9
:102ac0009001780013079800814078003e00900044
:102ad00002004000014878009e0090000e80e8004f
:102ae0000108e80010017800120798005e009000cd
:102af000004178003e00900001004000024878004c
:102b00006e009000c880de001e0190000e80e8007c
:102b10000208e800900178001307980081407800cf
:102b20003e00900002004000014878009e009000a6
:102b30000e80e8000108e8001001780012079800f4
:102b40006e009000004178003e00900001004000bf
:102b5000024878000000eb00000f78000d003700fd
:102b60001e007800ee004700910040001e0190001a
:102b70000e80e8000208e800900178001307980032
:102b8000914078003e00900002004000014878002b
:102b90001e0fe8006e0090009e007800808f5000ad
:102ba000efff35007e019000ee0090005e00900087
:102bb00013000700004f98009e0090000e80e80070
:102bc0000108e80010017800120798000e499000f3
:102bd0003e00900001004000024878003e00900056
:102be0009e0090002406070089077800000000007e
:102bf000880778004f04be000080fa00000006003d
:102c00000a00fa0020079800310798004207980050
:102c10000040eb00004f78009e407800e0cfb3000a
:102c200000c06800004f78002e0090004880de0051
:102c3000804078001e40780000c06800004f780097
:102c40002e009000804078001e40780000c0680090
:102c5000004f78003e0090004880de008040780001
:102c60001e40780000c06800004f78003e009000d1
:102c7000804078001e40780000c06800004f780057
:102c80000000eb00100798000c0037001e009000b9
:102c9000e800470011004000104078009e40780096
:102ca00000c06800004f78000e80e8008e80e800c9
:102cb0001108e80090007800110798009e0090002d
:102cc0003e009000808f5000f0ff35001e407800dd
:102cd0000080fa00000006000400fa002047980077
:102ce000d0818000e30f500023003200e30f50003a
:102cf00005003e00e10f500010003200e10f5000cf
:102d000015003e0007003700e50f50003600320086
:102d1000e50f50001f003900e60f50004000320060
:102d2000500037002e409000e24f40004f003a0024
:102d300010002000d08188004c0037000e80e80091
:102d40001080fb004800dd00a081880020002000ea
:102d5000d0818800480037000e80e8001080fb001a
:102d6000a181800000807000a081880030002000d8
:102d7000d0818800400037000e80e8001080fb0002
:102d80004800dd00b081880040002000d08188002c
:102d9000390037000e80e8001080fb00b181800010
:102da00000807000b0818800b181800000082000a0
:102db000808f5000020034003a30ef002e003700c0
:102dc000b08180000000e000040034003830ef00e3
:102dd00050002000d08188002700370060002000cc
:102de000d081880024003700c18180000100e80004
:102df000c08188000020210001004000ae4090000a
:102e000001487800c1818000b0818000808f50002f
:102e10001800350060002000d081880015003700c0
:102e2000ae409000014f7800b1818000a081800009
:102e30000220210072ff0700104798001e409000fa
:102e40009e40780080cf500004003a00b18180009d
:102e5000a0818000022021000a0007003a30ef0024
:102e6000050037003a30ef00030037000000000093
:102e70000100370000000000000000000080fa00a0
:102e8000000006000800fa001007980021079800cb
:102e9000320798009e00900000032000808f5000b1
:102ea000560032009e00900000042000808f5000e9
:102eb000540032009e00900000022000808f5000dd
:102ec00001003200520037003e00900010407800b0
:102ed0000080fb00000f78001e0078000000e0007a
:102ee0000c003a00660047001000e800104078002f
:102ef000614060000080fb00610060004300dd0075
:102f0000a17380000130a10001007000a07388004f
:102f10003e0037001e007800e10f50000c003a0020
:102f2000660047001000e800104078006140600033
:102f30000080fb00610060004900dd00217080001e
:102f40000190a10001007000207088002f00370060
:102f50001e007800e20f50000b003a0066004700a8
:102f60001000e80010407800614060000080fb0025
:102f700061006000217080000100a100010070006c
:102f800020708800210037001e007800e30f5000f9
:102f90000b003a00660047001000e800104078007f
:102fa000614060000080fb004f00dd00a1748000e4
:102fb00001f0a10001007000a07488001300370028
:102fc0001e007800e40f500010003a006600470031
:102fd0001000e80010407800614060000080fb00b5
:102fe000610060004a00dd002170800001a0a100a6
:102ff000010070002070880004003700000000000d
:10300000030037000000000001003700000000004e
:10301000000000000080fa00000006000000fa0036
:10302000c301a800dca1ef00dea1ef00c1e1a80010
:10303000000000000080fa00000006000000fa0016
:10304000c305a800dca5ef00dea5ef00c1e5a800e0
:10305000000000000080fa00000006000800fa00ee
:10306000889fbe0020808000318080000080880022
:10307000118088006080800071808000408088001e
:1030800051808800300e80008000eb00008fbe0071
:10309000500e80008000eb00c000dd00000020002a
:1030a0001e0f40005e974800302e80008000eb002d
:1030b0002007980031079800502e80008000eb0018
:1030c000c000dd000000200064014700e40147006b
:1030d00033194000239148001202780092029000b8
:1030e00024079800350798001e0078009e00900085
:1030f0001ff60700c2532e007378230003f8070061
:103100000001780001007800820178000001780059
:1031100003007800820078002080880031808800d9
:103120002e009000be00900011f60700c2532e0042
:1031300073782b00f5f70700000178000100780094
:103140008201780000017800030078008200780096
:103150006080880071808800248080003580800035
:1031600000808000118080000001be000400be00cd
:1031700019f607000001780001007800820178004c
:1031800000017800030078008200780080808800c9
:10319000918088006480800075808000408080007d
:1031a000518080000001be000400be000af6070046
:1031b00000017800010078008201780000017800a9
:1031c0000300780082007800a0808800b180880029
:1031d000808080009180800002002000a3372400be
:1031e000caf7070080017800010178000300780029
:1031f000820078000000be00a0838800b1838800b0
:10320000a0808000b180800002002000a33724004d
:10321000bef7070080017800010178000300780004
:10322000820078000000be00c0838800d18388003f
:10323000a4838000b5838000c0838000d183800098
:103240000001be000400be00ecf50700000178009c
:10325000010078008202780000027800020020005d
:103260000300240005007800840078000000be0000
:10327000c7f607008001780001017800030078009c
:10328000820078000000be00e0838800f18388009f
:10329000a4838000b5838000c0838000d183800038
:1032a0000001be000400be00cbf50700000178005d
:1032b000010078008202780000027800f2532300b7
:1032c000e3e5230005007800840078000000be00dc
:1032d000aff6070080017800010178000300780054
:1032e000820078000000be000084880011848800fd
:1032f000608480007184800020848800318488008c
:1033000080848000918480004084880051848800fb
:10331000c0848000d1848000a0848800b1848800ab
:10332000e8838000f9838000c0848000d18480001d
:1033300086f907000001be000800be0073f7070011
:103340000001780001007800820278000002780015
:1033500002002000a33724000500780084007800d4
:103360000000be008af607008001780001017800a5
:1033700003007800820078000000be0060848800ae
:1033800071848800e8838000f9838000c084800015
:10339000d184800071fa07000001be000800be0061
:1033a0005af70700000178000100780082027800d7
:1033b0000002780002002000a337240005007800f6
:1033c000840078000000be0071f6070080017800dc
:1033d0000101780003007800820078000000be0040
:1033e000808488009184880000848000118480009b
:1033f00002002000a337240065f607008001780052
:103400000101780003007800820078000000be000f
:10341000c0848800d1848800c0848000d18480006a
:10342000b2fd20009304240013f507000000e00023
:103430000c003400c0848000d1848000b2fd2000e4
:10344000930c240064f507008001780001017800e6
:1034500003007800820078000000be00c08488006d
:10346000d1848800c0848000d1848000b2fd200017
:1034700093042c00fef407000000e000010035007a
:103480000c003700c0848000d1848000b2fd200091
:10349000930c240059f507008001780001017800a1
:1034a00003007800820078000000be00c08488001d
:1034b000d1848800000000004f04be000080fa00a4
:1034c000000006001c00fa001081800021818000ad
:1034d00000017800810178008000eb000e00780088
:1034e0000d03070060848000718480000001be002d
:1034f000410020000e007800ea020700808480006e
:10350000918480000001be00810020000e00780040
:10351000e4020700c0848000d18480000001be0066
:10352000c10020000e007800de020700e08380006a
:10353000f18380000001be00010120000e00780030
:10354000d802070000848000118480000001be00c2
:10355000410120000e007800d2020700e0848000c4
:10356000f18480000001be00810120000e0078007f
:10357000cc0207000e017800c101200010062000d7
:103580002bfd0700000000000080fa00000006008c
:103590000600fa00889fbe0074040700e14f500047
:1035a000f1003a00750407006c040700000f780072
:1035b0001e007800100078008000eb00eff4070098
:1035c0003233230033052400d0f6070000017800d1
:1035d00001007800820278000002780002002000da
:1035e0000358240005007800840078000000be0025
:1035f000e7f507001007980021079800188280005f
:10360000298280001e019000ae0190000000200081
:1036100081202400def50700000178000100780019
:10362000820278000002780002002000030a2400d1
:1036300005007800840078000000be00e6f4070072
:103640000001780001007800820278000002780012
:103650000801be0005007800840078000000be006c
:103660001403070080838800918388001e80e8008f
:10367000100078008000eb00c0f407003233230014
:1036800033052400a1f6070000017800010078004e
:103690008202780000027800020020000358240013
:1036a00005007800840078000000be00b8f507002f
:1036b0001007980021079800188280002982800056
:1036c0001e019000ae019000000020008120240027
:1036d000aff5070000017800010078008202780051
:1036e0000002780002002000030a24000500780090
:1036f000840078000000be00b7f4070000017800e5
:103700000100780082027800000278000801be0003
:1037100005007800840078000000be00e502070084
:103720002083880031838800410020001e804000f3
:10373000100078008000eb0090f407003233230083
:103740003305240071f607000001780001007800bd
:103750008202780000027800020020000358240052
:1037600005007800840078000000be0088f507009e
:103770001007980021079800188280002982800095
:103780001e019000ae019000000020008120240066
:103790007ff50700000178000100780082027800c0
:1037a0000002780002002000030a240005007800cf
:1037b000840078000000be0087f407000001780054
:1037c0000100780082027800000278000801be0043
:1037d00005007800840078000000be00b5020700f4
:1037e0000083880011838800610020001e80400053
:1037f000100078008000eb0060f4070032332300f3
:103800003305240041f6070000017800010078002c
:103810008202780000027800020020000358240091
:1038200005007800840078000000be0058f507000d
:1038300010079800210798001882800029828000d4
:103840001e019000ae0190000000200081202400a5
:103850004ff507000001780001007800820278002f
:103860000002780002002000030a2400050078000e
:10387000840078000000be0057f4070000017800c3
:103880000100780082027800000278000801be0082
:1038900005007800840078000000be008502070063
:1038a0004083880051838800810020001e804000f2
:1038b000100078008000eb0030f407003233230062
:1038c0003305240011f6070000017800010078009c
:1038d00082027800000278000200200003582400d1
:1038e00005007800840078000000be0028f507007d
:1038f0001007980021079800188280002982800014
:103900001e019000ae0190000000200081202400e4
:103910001ff507000001780001007800820278009e
:103920000002780002002000030a2400050078004d
:10393000840078000000be0027f407000001780032
:103940000100780082027800000278000801be00c1
:1039500005007800840078000000be0055020700d2
:103960006083880071838800000000004f04be005f
:103970000080fa00000006000000fa00840307003f
:10398000d003070072fa07004cfb07007cfa07001f
:103990003e0007002f0307005e0407009ffd07009d
:1039a000a6fd070000002000a14724004ffb0700f0
:1039b000ffff37000000fa00608380007183800001
:1039c00002002000031c2400a9f307000000e0000f
:1039d00002003d00754ea80001003700754ea90099
:1039e000408380005183800002002000031f2400d8
:1039f0009ff307000000e00002003d00856ea80074
:103a000001003700856ea9000083800011838000cb
:103a1000020020008321240095f307000000e0004d
:103a200002003d00848ea80001003700848ea900aa
:103a3000208380003183800002002000031f2400c7
:103a40008bf307000000e00002003d0084aea800f8
:103a50000100370084aea90080838000918380003c
:103a600002002000031c240081f307000000e00096
:103a700002003d0084cea8000100370084cea900da
:103a8000000000000080fa00000006000000fa00bc
:103a900002ccbf000000a1000010a1000020a10086
:103aa00002ecb700009620002060880010618000c2
:103ab00000a0a00000b0a0001061880023cca800e6
:103ac00023eca800300020002061880010628000f4
:103ad00000a0a00000b0a0001062880043cca800a5
:103ae00043eca800300020002062880001eca80010
:103af000000000000080fa00000006000000fa004c
:103b0000889fbe00e4828000f5828000c082800031
:103b1000d18280000001be000400be0054f3070003
:103b20000000e00014003d00c8828000d9828000bf
:103b3000e4828000f5828000808180009181800095
:103b40000001be000400be00acf3070000017800d5
:103b50000100780082027800000278000801be00af
:103b600005007800840078000000be00d101070045
:103b7000e0828800f1828800e4828000f582800083
:103b8000c0828000d18280000001be000400be001f
:103b900039f307000000e00014003400c882800000
:103ba000d9828000e4828000f582800080818000dc
:103bb000918180000001be000400be0086f3070072
:103bc000000178000100780082027800000278008d
:103bd0000801be0005007800840078000000be00e7
:103be0009d010700e0828800f1828800e082800069
:103bf000f18280006011b8001ff307000000e000b0
:103c00001e003500e0828000f1828000020020006a
:103c1000031c24003df50700000178000100780036
:103c2000820278000002780060818000718180004b
:103c30000001be0005007800840078000000be008e
:103c40006ef307000001780001007800820178001f
:103c50000001780003007800820078000000be00b8
:103c600028f3070030628800608180007181800045
:103c700024f30700706288001e0037006081800016
:103c8000718180001ff3070030628800e0828000ad
:103c9000f182800001f0a20002002000031c240039
:103ca0001af5070000017800010078008202780010
:103cb0000002780060818000718180000001be00f8
:103cc00005007800840078000000be004bf3070078
:103cd000000178000100780082017800000178007e
:103ce00003007800820078000000be0005f30700a2
:103cf00070628800a4828000b5828000808280008b
:103d0000918280000001be000400be00d8f20700ce
:103d10000000e00014003d0088828000998280004d
:103d2000a4828000b5828000808180009181800023
:103d30000001be000400be0030f30700000178005f
:103d40000100780082027800000278000801be00bd
:103d500005007800840078000000be0055010700cf
:103d6000a0828800b1828800a4828000b582800091
:103d700080828000918280000001be000400be00ad
:103d8000bdf207000000e0001400340088828000cb
:103d900099828000a4828000b582800080818000aa
:103da000918180000001be000400be000af30700fc
:103db000000178000100780082027800000278009b
:103dc0000801be0005007800840078000000be00f5
:103dd00021010700a0828800b1828800a0828000b3
:103de000b18280006011b800a3f207000000e0007b
:103df0001e003400a0828000b182800002002000fa
:103e0000031c2400c1f407000001780001007800c1
:103e10008202780000027800608180007181800059
:103e20000001be0005007800840078000000be009c
:103e3000f2f20700000178000100780082017800aa
:103e40000001780003007800820078000000be00c6
:103e5000acf20700306188006081800071818000d1
:103e6000a8f20700706188001e00370060818000a2
:103e700071818000a3f2070030618800a082800079
:103e8000b182800001f0a20002002000031c240087
:103e90009ef407000001780001007800820278009b
:103ea0000002780060818000718180000001be0006
:103eb00005007800840078000000be00cff2070003
:103ec000000178000100780082017800000178008c
:103ed00003007800820078000000be0089f207002d
:103ee00070618800000000004f04be000080fa00ee
:103ef000000006000600fa00008fbe0022079800ae
:103f00002e0090000000e00006003a001e0078003d
:103f10009e00900001f0a200c0828800d18288003b
:103f2000070037002e009000e10f500004003a0017
:103f30001e0178009e019000828288009382880092
:103f4000000000000080fa00000006000800fa00ef
:103f50002007980031079800b2fd20009304240048
:103f60002e009000be0090009bf207000001780038
:103f7000010078008202780000027800b2fd200083
:103f8000930c240005007800840078000000be0037
:103f9000d7f60700b2fd20009304240097f2070033
:103fa000008fbe00b2fd2000930424001e007800a4
:103fb0009e00900091f20700000178000100780057
:103fc0008202780000027800b2fd2000930c2400e9
:103fd00005007800840078000000be00c4f60700e9
:103fe000b2fd2000930424007bf20700000178005a
:103ff00001007800820078008101780000017800db
:1040000003007800820078000000be000080fa0003
:10401000000006000a00fa003007980041079800e7
:104020004e009000e6004700110f40001e0078008f
:104030001001780090019000120798002307980063
:104040009e0090002e009000810178000001780011
:1040500003007800820078000000be000080fa00b3
:10406000000006000600fa001007980021079800db
:104070002e0090008e80e800110f40001e00780096
:104080009000780010009000810178000001780015
:1040900003007800820078000000be000080fa0073
:1040a000000006000c00fa00200798003107980075
:1040b00042079800530798000e80e8006808470000
:1040c00090007800110798000000eb00000f7800c6
:1040d0000b0037001e0078008e80e8009100400041
:1040e00066004700100178001e004100640147008f
:1040f0001200400091407800014878001e0fe8004f
:104100001e007800e30f5000f2ff340000000000b2
:104110000080fa00000006000c00fa00200798005a
:104120003107980042079800530798000e80e80076
:104130006808470090007800110798000000eb0025
:10414000000f78000c003700300020001e005000e7
:104150008e80e80091004000660047001001780062
:104160001e004100640147001200400091407800a9
:10417000014878001e0fe8001e007800e30f500091
:10418000f1ff3400000000000080fa00000006008b
:104190000c00fa00200798003107980042079800a9
:1041a000530798000e80e8006808470090007800e8
:1041b000110798000000eb00000f78000b0037009b
:1041c0001e0078008e80e8009100400066004700e5
:1041d000100178001e0041006401470012004000f9
:1041e00091407800014878001e0fe8001e0078001a
:1041f000e70f5000f2ff3400000000000080fa00da
:10420000000006000400fa00008fbe006011b80034
:104210001e0078009e00900097f107000000e0006b
:10422000030035001e0078009e0090000300370058
:104230001e0078009e00900001f0a200800178002e
:104240000101780003007800820078000000be00c1
:104250000080fa00000006000800fa00008fbe008f
:1042600022079800330798002e019000be019000ad
:104270001e0078009e0090007ff107000000e00023
:10428000030034009e0078001e00900002003700fa
:10429000ae0090003e00900081017800000178009f
:1042a00003007800820078000000be000080fa0061
:1042b000000006000800fa00008fbe0022079800e8
:1042c000330798002e019000be0190001e00780078
:1042d0009e00900066f107000000e00003003d0032
:1042e0009e0078001e00900002003700ae00900093
:1042f0003e00900081017800000178000300780002
:10430000820078000000be000080fa000000060075
:104310000c00fa00008fbe002207980033079800b7
:1043200044079800550798004e019000de01900068
:104330001e0078009e0090004ff107000000e00092
:10434000040034004e019000de019000028fbe0098
:104350000a0037002e019000be0190001e00780078
:104360009e00900042f107000000e00003003d00c5
:104370002e019000be019000028fbe009e007800ca
:104380001e00900081017800000178000300780091
:10439000820078000000be000080fa0000000600e5
:1043a0000400fa00008fbe00b2fd20009304240038
:1043b0001e0078009e00900075f207000001780052
:1043c00001007800820278000002780002002000dc
:1043d0004333240005007800840078000000be000c
:1043e0004af307000001780001007800820078009d
:1043f00081017800000178000300780082007800d5
:104400000000be000080fa00000006000400fa0070
:10441000008fbe00b2fd2000930424001e0078002f
:104420009e00900039f30700000178000100780039
:10443000820278000002780002002000433324004a
:1044400005007800840078000000be0050f20700ec
:104450000001780001007800820078008101780076
:104460000001780003007800820078000000be00a0
:104470000080fa00000006000600fa00100798000d
:10448000210798000040eb00004f7800680007000b
:10449000ae009000808f500013003d000040eb0004
:1044a000004f7800080037001e80fb008e80e80077
:1044b00011004000104078000e0007001e407800f8
:1044c0000040e800004f78001e80fb00ae00900026
:1044d000808f5000f4ff3c003e0007000004e00025
:1044e00001003a0031000700000000000080fa00df
:1044f000000006000400fa0020479800e0818000d8
:10450000000fe800f00720009e007800808f500028
:10451000020034000000eb00000f7800f081800002
:104520009e007800808f500007003200e1818000fb
:104530000010210001004000ae40900001487800ca
:104540009e007800e1818800000000000080fa00f1
:10455000000006000200fa00f1818000e081800086
:10456000808f50000e003200f18180000010210089
:1045700001004000104f7800f08180000000e8004a
:10458000f0818800f1818000f0072000808f5000ca
:10459000010034003e30ef001e407800010037007b
:1045a0000040eb000080fa00000006000200fa0064
:1045b00010c0b30040f0b700e6ff0700004f7800de
:1045c0001e80fb0020118800000000000080fa001f
:1045d000000006000000fa0040d0bf000080fa0092
:1045e000000006000200fa00e1818000f0818000f6
:1045f000808f500005003500e1818000f08180004f
:1046000000805000000f780006003700f181800024
:10461000e0818000808050000008200001005000f0
:10462000000f78001e0078000080fa0000000600ed
:104630000200fa00ebff070080007800f00720007e
:1046400001005000000f78001e0078000080fa0082
:10465000000006000000fa0021e3a9002143a800a1
:10466000001980000080a1000090a10000198800be
:104670002043a900001980000050a0000060a000a5
:104680000070a000001988001019800000d0a1005f
:1046900000e0a10000f0a100101988002343a80049
:1046a000101980000080a1000090a100101988005e
:1046b0001119800030f82f00008060000040a00039
:1046c000101988002203a9002223a90025e3a900cc
:1046d000f0c0b30024e3b70021198000f00f2e00d2
:1046e0008080600000f02000010070002019880028
:1046f0003303a9001e0ea8001f0ea8001f2ea8003d
:104700001f4ea8001f6ea8003003a8003103a800a8
:104710003123a8003143a8003163a800411980006b
:1047200000fe2f00008060004019880028e3a900e7
:1047300001a8a90021a8a80021e3a800000000000a
:104740000080fa00000006000000fa002023a80004
:10475000000000000080fa00000006000000fa00df
:10476000002821000080fa00000006000000fa0086
:104770004bd0bf000080fa00000006000000fa00e5
:104780004b70ef00000000000080fa0000000600ff
:104790000000fa00817420009140780000ccb30042
:1047a00000c060007041b30048e7b700313a8000b4
:1047b00000e02f0080806000800520000100700074
:1047c000303a8800203a80000060a1000070a1000b
:1047d000203a8800213a800000fe2f00008060000f
:1047e0000000a000203a880012002000800720006e
:1047f000a1092000337420008049780081497800a5
:1048000082497800103a8000000178000200a00080
:104810006004200071052000237420008049780086
:10482000814978008249780000000000103a800039
:104830004c00de0067406000e14f5000fbff3a0093
:104840005927a800c03a80000000a0000010a10075
:104850000020a100c03a88005ac7bf000000a00095
:104860000010a0000020a0005ae7b700c03a800066
:104870000050a1000060a0000070a000c03a8800b5
:1048800059a7a80059e7a80000000000c03a80001e
:104890004e00de0061406000e14f5000fbff3a0037
:1048a00000000000103a80004500de00614060001a
:1048b000e14f5000fbff3a00000000000080fa00ca
:1048c000000006000000fa000e2eef001e2eef0082
:1048d0003e2eef002e2eef004e2eef006e2eef003c
:1048e000808ea90080cea90080aea900816ea900ab
:1048f000714ea90091eea900000ea900012ea90099
:10490000014ea900706ea900310007002136800019
:1049100000f82f0080806000e0042000010070009b
:10492000203688004134800000fc2f0000806000a9
:104930000000a000403488000136800000f82f00fd
:1049400080806000100620000100700000368800a2
:1049500001368000f00f28008080600000102700e2
:104960000100700000368800e135800000f82f005b
:1049700080806000e007200001007000e0358800c2
:10498000e1358000f00f28008080600000c0270023
:1049900001007000e03588000300070000000000ff
:1049a0000080fa00000006000000fa0021742000d8
:1049b0006204200073052000824878008348780054
:1049c00042c7a800000000000080fa0000000600b6
:1049d0000000fa002174200062042000730520000a
:1049e000824878008348780042c7a9000000000090
:1049f0000080fa00000006000200fa00004f780074
:104a00003182800000182100010040001e4878001b
:104a1000308280000000e80030828800318280000f
:104a2000f0072000808f5000010034004630ef0076
:104a3000000000000080fa00000006000200fa00fa
:104a4000418280000018210001004000104f7800d2
:104a5000408280000000e80040828800418280009f
:104a6000f0072000808f5000010034004830ef0034
:104a70001e4078000080fa00000006000000fa00e6
:104a80003182800040828000808f5000020032001e
:104a900010c0b300010037000040eb000080fa00b6
:104aa000000006000200fa0031828000408280008f
:104ab000808f5000050035003182800040828000e8
:104ac00000805000000f780006003700418280000f
:104ad00030828000808050000008200001005000db
:104ae000000f78001e0078000080fa000000060029
:104af0000200fa00ebff07008000780000082000a9
:104b000001005000000f78001e0078000080fa00bd
:104b1000000006000000fa002002a9000011800039
:104b20000010a1000020a1000011880020a2a9000f
:104b30002062a800100820004011880023a2a900cc
:104b400023e2a9000188a9002188a8001011800093
:104b50000060a1000070a100101188000168a90088
:104b60002168a80021e2a8002342a800000000005c
:104b70000080fa00000006000600fa001007980006
:104b8000210798000040eb00004f78000040eb0048
:104b9000004f780011003700000000001011800065
:104ba0004900de00614060000004e000fbff3a00c5
:104bb0009e0090000e80e8000108e80010017800d7
:104bc00012079800114078000080fb002011880037
:104bd0001e4078000040e800004f78001e80fb0077
:104be000ae009000808f5000ebff3c000000000002
:084bf0000080fa00000006003d
:020000040000fa
:104bf800181000000a0000008000000042100000a9
:104c080004000000820000000000c800420000000c
:104c1800221000000a000000800000004e10000072
:104c2800b2000000800000002c1000000800000006
:104c3800820000000000480042000000a04100007f
:104c4800801200000a000000800000004a100000e6
:104c58000200000080000000001100008000000039
:104c6800800000003c1000000600000080000000ea
:104c78008011000080000000800000004610000045
:104c88000400000080000000001200008000000006
:104c980080000000341000000800000080000000c0
:104ca8000010000018000000800000004c100000f8
:0c4cb8000200000080000000000000006e
:020000040000fa
:0200000401f009
:04000800cfffff0027
:020000040000fa
:0200000401f009
:04000c00f9ffff00f9
:020000040000fa
:0200000401f009
:040010005bffff0093
:020000040000fa
:0200000401f009
:040014007fffff006b
:020000040000fa
:0200000401f009
:04001800cfffff0017
:020000040000fa
:0200000401f009
:04001c00deffff0004
:020000040000fa
:0200000401f009
:04002000cfffff000f
:00000001FF
